{
	"contracts/ChainlinkConsumer.sol": {
		"APIConsumer": {
			"abi": [
				{
					"inputs": [
						{
							"internalType": "string",
							"name": "_league",
							"type": "string"
						}
					],
					"stateMutability": "nonpayable",
					"type": "constructor"
				},
				{
					"anonymous": false,
					"inputs": [
						{
							"indexed": true,
							"internalType": "bytes32",
							"name": "id",
							"type": "bytes32"
						}
					],
					"name": "ChainlinkCancelled",
					"type": "event"
				},
				{
					"anonymous": false,
					"inputs": [
						{
							"indexed": true,
							"internalType": "bytes32",
							"name": "id",
							"type": "bytes32"
						}
					],
					"name": "ChainlinkFulfilled",
					"type": "event"
				},
				{
					"anonymous": false,
					"inputs": [
						{
							"indexed": true,
							"internalType": "bytes32",
							"name": "id",
							"type": "bytes32"
						}
					],
					"name": "ChainlinkRequested",
					"type": "event"
				},
				{
					"anonymous": false,
					"inputs": [
						{
							"indexed": true,
							"internalType": "address",
							"name": "from",
							"type": "address"
						},
						{
							"indexed": true,
							"internalType": "address",
							"name": "to",
							"type": "address"
						}
					],
					"name": "OwnershipTransferRequested",
					"type": "event"
				},
				{
					"anonymous": false,
					"inputs": [
						{
							"indexed": true,
							"internalType": "address",
							"name": "from",
							"type": "address"
						},
						{
							"indexed": true,
							"internalType": "address",
							"name": "to",
							"type": "address"
						}
					],
					"name": "OwnershipTransferred",
					"type": "event"
				},
				{
					"anonymous": false,
					"inputs": [
						{
							"indexed": true,
							"internalType": "bytes32",
							"name": "requestId",
							"type": "bytes32"
						},
						{
							"indexed": false,
							"internalType": "uint256",
							"name": "winner",
							"type": "uint256"
						},
						{
							"indexed": false,
							"internalType": "uint256",
							"name": "winner2",
							"type": "uint256"
						},
						{
							"indexed": false,
							"internalType": "uint256",
							"name": "winner3",
							"type": "uint256"
						}
					],
					"name": "RequestWinner",
					"type": "event"
				},
				{
					"inputs": [],
					"name": "acceptOwnership",
					"outputs": [],
					"stateMutability": "nonpayable",
					"type": "function"
				},
				{
					"inputs": [
						{
							"internalType": "bytes32",
							"name": "_requestId",
							"type": "bytes32"
						},
						{
							"internalType": "uint256",
							"name": "_winner",
							"type": "uint256"
						},
						{
							"internalType": "uint256",
							"name": "_winner2",
							"type": "uint256"
						},
						{
							"internalType": "uint256",
							"name": "_winner3",
							"type": "uint256"
						}
					],
					"name": "fulfillOracleRequest",
					"outputs": [],
					"stateMutability": "nonpayable",
					"type": "function"
				},
				{
					"inputs": [],
					"name": "league",
					"outputs": [
						{
							"internalType": "string",
							"name": "",
							"type": "string"
						}
					],
					"stateMutability": "view",
					"type": "function"
				},
				{
					"inputs": [],
					"name": "owner",
					"outputs": [
						{
							"internalType": "address",
							"name": "",
							"type": "address"
						}
					],
					"stateMutability": "view",
					"type": "function"
				},
				{
					"inputs": [],
					"name": "requestWinner",
					"outputs": [
						{
							"internalType": "bytes32",
							"name": "requestId",
							"type": "bytes32"
						}
					],
					"stateMutability": "nonpayable",
					"type": "function"
				},
				{
					"inputs": [
						{
							"internalType": "uint256",
							"name": "id",
							"type": "uint256"
						}
					],
					"name": "setWinner",
					"outputs": [],
					"stateMutability": "nonpayable",
					"type": "function"
				},
				{
					"inputs": [
						{
							"internalType": "uint256",
							"name": "id",
							"type": "uint256"
						}
					],
					"name": "setWinner2",
					"outputs": [],
					"stateMutability": "nonpayable",
					"type": "function"
				},
				{
					"inputs": [
						{
							"internalType": "uint256",
							"name": "id",
							"type": "uint256"
						}
					],
					"name": "setWinner3",
					"outputs": [],
					"stateMutability": "nonpayable",
					"type": "function"
				},
				{
					"inputs": [
						{
							"internalType": "address",
							"name": "to",
							"type": "address"
						}
					],
					"name": "transferOwnership",
					"outputs": [],
					"stateMutability": "nonpayable",
					"type": "function"
				},
				{
					"inputs": [],
					"name": "winner",
					"outputs": [
						{
							"internalType": "uint256",
							"name": "",
							"type": "uint256"
						}
					],
					"stateMutability": "view",
					"type": "function"
				},
				{
					"inputs": [],
					"name": "winner2",
					"outputs": [
						{
							"internalType": "uint256",
							"name": "",
							"type": "uint256"
						}
					],
					"stateMutability": "view",
					"type": "function"
				},
				{
					"inputs": [],
					"name": "winner3",
					"outputs": [
						{
							"internalType": "uint256",
							"name": "",
							"type": "uint256"
						}
					],
					"stateMutability": "view",
					"type": "function"
				},
				{
					"inputs": [],
					"name": "withdrawLink",
					"outputs": [],
					"stateMutability": "nonpayable",
					"type": "function"
				}
			],
			"devdoc": {
				"kind": "dev",
				"methods": {},
				"version": 1
			},
			"evm": {
				"assembly": "    /* \"contracts/ChainlinkConsumer.sol\":362:3349  contract APIConsumer is ChainlinkClient, ConfirmedOwner {... */\n  mstore(0x40, 0x80)\n    /* \"@chainlink/contracts/src/v0.8/ChainlinkClient.sol\":1291:1292  1 */\n  0x01\n    /* \"@chainlink/contracts/src/v0.8/ChainlinkClient.sol\":1258:1292  uint256 private s_requestCount = 1 */\n  0x04\n  sstore\n    /* \"contracts/ChainlinkConsumer.sol\":805:1705  constructor(string memory _league) ConfirmedOwner(msg.sender) {... */\n  callvalue\n  dup1\n  iszero\n  tag_1\n  jumpi\n  0x00\n  dup1\n  revert\ntag_1:\n  pop\n  mload(0x40)\n  sub(codesize, bytecodeSize)\n  dup1\n  bytecodeSize\n  dup4\n  codecopy\n  dup2\n  add\n  0x40\n  dup2\n  swap1\n  mstore\n  tag_2\n  swap2\n  tag_3\n  jump\t// in\ntag_2:\n    /* \"contracts/ChainlinkConsumer.sol\":855:865  msg.sender */\n  caller\n  dup1\n    /* \"@chainlink/contracts/src/v0.8/ConfirmedOwner.sol\":345:346  0 */\n  0x00\n    /* \"contracts/ChainlinkConsumer.sol\":855:865  msg.sender */\n  dup2\n    /* \"@chainlink/contracts/src/v0.8/ConfirmedOwnerWithProposal.sol\":544:603  require(newOwner != address(0), \"Cannot set owner to zero\") */\n  tag_8\n  jumpi\n  mload(0x40)\n  shl(0xe5, 0x461bcd)\n  dup2\n  mstore\n    /* \"#utility.yul\":1505:1507   */\n  0x20\n    /* \"@chainlink/contracts/src/v0.8/ConfirmedOwnerWithProposal.sol\":544:603  require(newOwner != address(0), \"Cannot set owner to zero\") */\n  0x04\n  dup3\n  add\n    /* \"#utility.yul\":1487:1508   */\n  mstore\n    /* \"#utility.yul\":1544:1546   */\n  0x18\n    /* \"#utility.yul\":1524:1542   */\n  0x24\n  dup3\n  add\n    /* \"#utility.yul\":1517:1547   */\n  mstore\n    /* \"#utility.yul\":1583:1609   */\n  0x43616e6e6f7420736574206f776e657220746f207a65726f0000000000000000\n    /* \"#utility.yul\":1563:1581   */\n  0x44\n  dup3\n  add\n    /* \"#utility.yul\":1556:1610   */\n  mstore\n    /* \"#utility.yul\":1627:1645   */\n  0x64\n  add\n    /* \"@chainlink/contracts/src/v0.8/ConfirmedOwnerWithProposal.sol\":544:603  require(newOwner != address(0), \"Cannot set owner to zero\") */\ntag_9:\n  mload(0x40)\n  dup1\n  swap2\n  sub\n  swap1\n  revert\ntag_8:\n    /* \"@chainlink/contracts/src/v0.8/ConfirmedOwnerWithProposal.sol\":610:617  s_owner */\n  0x06\n    /* \"@chainlink/contracts/src/v0.8/ConfirmedOwnerWithProposal.sol\":610:628  s_owner = newOwner */\n  dup1\n  sload\n  not(sub(shl(0xa0, 0x01), 0x01))\n  and\n  sub(shl(0xa0, 0x01), 0x01)\n  dup5\n  dup2\n  and\n  swap2\n  swap1\n  swap2\n  or\n  swap1\n  swap2\n  sstore\n    /* \"@chainlink/contracts/src/v0.8/ConfirmedOwnerWithProposal.sol\":638:664  pendingOwner != address(0) */\n  dup2\n  and\n  iszero\n    /* \"@chainlink/contracts/src/v0.8/ConfirmedOwnerWithProposal.sol\":634:713  if (pendingOwner != address(0)) {... */\n  tag_12\n  jumpi\n    /* \"@chainlink/contracts/src/v0.8/ConfirmedOwnerWithProposal.sol\":674:706  _transferOwnership(pendingOwner) */\n  tag_12\n    /* \"@chainlink/contracts/src/v0.8/ConfirmedOwnerWithProposal.sol\":693:705  pendingOwner */\n  dup2\n    /* \"@chainlink/contracts/src/v0.8/ConfirmedOwnerWithProposal.sol\":674:692  _transferOwnership */\n  tag_13\n    /* \"@chainlink/contracts/src/v0.8/ConfirmedOwnerWithProposal.sol\":674:706  _transferOwnership(pendingOwner) */\n  jump\t// in\ntag_12:\n    /* \"@chainlink/contracts/src/v0.8/ConfirmedOwnerWithProposal.sol\":486:717  constructor(address newOwner, address pendingOwner) {... */\n  pop\n  pop\n    /* \"@chainlink/contracts/src/v0.8/ConfirmedOwner.sol\":270:351  constructor(address newOwner) ConfirmedOwnerWithProposal(newOwner, address(0)) {} */\n  pop\n    /* \"contracts/ChainlinkConsumer.sol\":878:899  string memory baseURL */\n  0x00\n    /* \"contracts/ChainlinkConsumer.sol\":878:949  string memory baseURL = \"http://api.football-data.org/v4/competitions/\" */\n  mload(0x40)\n  dup1\n  0x60\n  add\n  0x40\n  mstore\n  dup1\n  0x2d\n  dup2\n  mstore\n  0x20\n  add\n  data_6fc87d337cfc4c898418b7cabed453d3744888e14c12ece71e04efd1e2f026fb\n  0x2d\n  swap2\n  codecopy\n    /* \"contracts/ChainlinkConsumer.sol\":960:997  string memory endpoint = \"/standings\" */\n  0x40\n  dup1\n  mload\n  dup1\n  dup3\n  add\n  swap1\n  swap2\n  mstore\n  0x0a\n  dup2\n  mstore\n  shl(0xb0, 0x2f7374616e64696e6773)\n  0x20\n  dup3\n  add\n  mstore\n    /* \"contracts/ChainlinkConsumer.sol\":878:949  string memory baseURL = \"http://api.football-data.org/v4/competitions/\" */\n  swap1\n  swap2\n  pop\n    /* \"contracts/ChainlinkConsumer.sol\":1009:1015  league */\n  0x0e\n    /* \"contracts/ChainlinkConsumer.sol\":1009:1025  league = _league */\n  tag_16\n    /* \"contracts/ChainlinkConsumer.sol\":1018:1025  _league */\n  dup5\n    /* \"contracts/ChainlinkConsumer.sol\":1009:1015  league */\n  dup3\n    /* \"contracts/ChainlinkConsumer.sol\":1009:1025  league = _league */\n  tag_17\n  jump\t// in\ntag_16:\n  pop\n    /* \"contracts/ChainlinkConsumer.sol\":1042:1081  baseURL.concat(league).concat(endpoint) */\n  tag_18\n    /* \"contracts/ChainlinkConsumer.sol\":1072:1080  endpoint */\n  dup2\n    /* \"contracts/ChainlinkConsumer.sol\":1042:1064  baseURL.concat(league) */\n  tag_19\n    /* \"contracts/ChainlinkConsumer.sol\":1057:1063  league */\n  0x0e\n    /* \"contracts/ChainlinkConsumer.sol\":1042:1064  baseURL.concat(league) */\n  dup1\n  sload\n  tag_20\n  swap1\n  tag_21\n  jump\t// in\ntag_20:\n  dup1\n  0x1f\n  add\n  0x20\n  dup1\n  swap2\n  div\n  mul\n  0x20\n  add\n  mload(0x40)\n  swap1\n  dup2\n  add\n  0x40\n  mstore\n  dup1\n  swap3\n  swap2\n  swap1\n  dup2\n  dup2\n  mstore\n  0x20\n  add\n  dup3\n  dup1\n  sload\n  tag_22\n  swap1\n  tag_21\n  jump\t// in\ntag_22:\n  dup1\n  iszero\n  tag_23\n  jumpi\n  dup1\n  0x1f\n  lt\n  tag_24\n  jumpi\n  0x0100\n  dup1\n  dup4\n  sload\n  div\n  mul\n  dup4\n  mstore\n  swap2\n  0x20\n  add\n  swap2\n  jump(tag_23)\ntag_24:\n  dup3\n  add\n  swap2\n  swap1\n  0x00\n  mstore\n  keccak256(0x00, 0x20)\n  swap1\ntag_25:\n  dup2\n  sload\n  dup2\n  mstore\n  swap1\n  0x01\n  add\n  swap1\n  0x20\n  add\n  dup1\n  dup4\n  gt\n  tag_25\n  jumpi\n  dup3\n  swap1\n  sub\n  0x1f\n  and\n  dup3\n  add\n  swap2\ntag_23:\n  pop\n    /* \"contracts/ChainlinkConsumer.sol\":1042:1049  baseURL */\n  dup10\n  swap5\n    /* \"contracts/ChainlinkConsumer.sol\":1042:1064  baseURL.concat(league) */\n  swap4\n  pop\n  pop\n    /* \"contracts/ChainlinkConsumer.sol\":1042:1056  baseURL.concat */\n  tag_26\n    /* \"contracts/ChainlinkConsumer.sol\":1042:1064  baseURL.concat(league) */\n  swap2\n  pop\n  pop\n  jump\t// in\ntag_19:\n    /* \"contracts/ChainlinkConsumer.sol\":1042:1071  baseURL.concat(league).concat */\n  swap1\n  tag_26\n    /* \"contracts/ChainlinkConsumer.sol\":1042:1081  baseURL.concat(league).concat(endpoint) */\n  jump\t// in\ntag_18:\n    /* \"contracts/ChainlinkConsumer.sol\":1036:1039  URL */\n  0x0d\n  swap1\n    /* \"contracts/ChainlinkConsumer.sol\":1036:1081  URL = baseURL.concat(league).concat(endpoint) */\n  tag_27\n  swap1\n    /* \"contracts/ChainlinkConsumer.sol\":1036:1039  URL */\n  dup3\n    /* \"contracts/ChainlinkConsumer.sol\":1036:1081  URL = baseURL.concat(league).concat(endpoint) */\n  tag_17\n  jump\t// in\ntag_27:\n  pop\n    /* \"@chainlink/contracts/src/v0.8/ChainlinkClient.sol\":8457:8465  s_oracle */\n  0x03\n    /* \"@chainlink/contracts/src/v0.8/ChainlinkClient.sol\":8457:8500  s_oracle = OperatorInterface(oracleAddress) */\n  dup1\n  sload\n  not(sub(shl(0xa0, 0x01), 0x01))\n  and\n    /* \"contracts/ChainlinkConsumer.sol\":1111:1153  0x7ca7215c6B8013f249A195cc107F97c4e623e5F5 */\n  0x7ca7215c6b8013f249a195cc107f97c4e623e5f5\n    /* \"@chainlink/contracts/src/v0.8/ChainlinkClient.sol\":8457:8500  s_oracle = OperatorInterface(oracleAddress) */\n  or\n  swap1\n  sstore\n    /* \"@chainlink/contracts/src/v0.8/ChainlinkClient.sol\":8688:8694  s_link */\n  0x02\n    /* \"@chainlink/contracts/src/v0.8/ChainlinkClient.sol\":8688:8728  s_link = LinkTokenInterface(linkAddress) */\n  dup1\n  sload\n  not(sub(shl(0xa0, 0x01), 0x01))\n  and\n    /* \"contracts/ChainlinkConsumer.sol\":1421:1463  0x326C977E6efc84E512bB9C30f76E30c160eD06FB */\n  0x326c977e6efc84e512bb9c30f76e30c160ed06fb\n    /* \"@chainlink/contracts/src/v0.8/ChainlinkClient.sol\":8688:8728  s_link = LinkTokenInterface(linkAddress) */\n  or\n  swap1\n  sstore\n    /* \"contracts/ChainlinkConsumer.sol\":1573:1615  jobId = \"cd3a5f8dcac245e9a3ff58d59b445595\" */\n  0x6364336135663864636163323435653961336666353864353962343435353935\n    /* \"contracts/ChainlinkConsumer.sol\":1573:1578  jobId */\n  0x0b\n    /* \"contracts/ChainlinkConsumer.sol\":1573:1615  jobId = \"cd3a5f8dcac245e9a3ff58d59b445595\" */\n  sstore\n    /* \"contracts/ChainlinkConsumer.sol\":1679:1681  10 */\n  0x0a\n    /* \"contracts/ChainlinkConsumer.sol\":1654:1675  1 * LINK_DIVISIBILITY */\n  tag_32\n    /* \"@chainlink/contracts/src/v0.8/ChainlinkClient.sol\":675:681  10**18 */\n  0x0de0b6b3a7640000\n    /* \"contracts/ChainlinkConsumer.sol\":1654:1655  1 */\n  0x01\n    /* \"contracts/ChainlinkConsumer.sol\":1654:1675  1 * LINK_DIVISIBILITY */\n  tag_33\n  jump\t// in\ntag_32:\n    /* \"contracts/ChainlinkConsumer.sol\":1653:1681  (1 * LINK_DIVISIBILITY) / 10 */\n  tag_34\n  swap2\n  swap1\n  tag_35\n  jump\t// in\ntag_34:\n    /* \"contracts/ChainlinkConsumer.sol\":1647:1650  fee */\n  0x0c\n    /* \"contracts/ChainlinkConsumer.sol\":1647:1681  fee = (1 * LINK_DIVISIBILITY) / 10 */\n  sstore\n  pop\n    /* \"contracts/ChainlinkConsumer.sol\":362:3349  contract APIConsumer is ChainlinkClient, ConfirmedOwner {... */\n  tag_51\n  swap2\n  pop\n  pop\n  jump\n    /* \"@chainlink/contracts/src/v0.8/ConfirmedOwnerWithProposal.sol\":1497:1685  function _transferOwnership(address to) private {... */\ntag_13:\n    /* \"@chainlink/contracts/src/v0.8/ConfirmedOwnerWithProposal.sol\":1565:1575  msg.sender */\n  caller\n  sub(shl(0xa0, 0x01), 0x01)\n    /* \"@chainlink/contracts/src/v0.8/ConfirmedOwnerWithProposal.sol\":1559:1575  to != msg.sender */\n  dup3\n  and\n  sub\n    /* \"@chainlink/contracts/src/v0.8/ConfirmedOwnerWithProposal.sol\":1551:1603  require(to != msg.sender, \"Cannot transfer to self\") */\n  tag_38\n  jumpi\n  mload(0x40)\n  shl(0xe5, 0x461bcd)\n  dup2\n  mstore\n    /* \"#utility.yul\":4939:4941   */\n  0x20\n    /* \"@chainlink/contracts/src/v0.8/ConfirmedOwnerWithProposal.sol\":1551:1603  require(to != msg.sender, \"Cannot transfer to self\") */\n  0x04\n  dup3\n  add\n    /* \"#utility.yul\":4921:4942   */\n  mstore\n    /* \"#utility.yul\":4978:4980   */\n  0x17\n    /* \"#utility.yul\":4958:4976   */\n  0x24\n  dup3\n  add\n    /* \"#utility.yul\":4951:4981   */\n  mstore\n    /* \"#utility.yul\":5017:5042   */\n  0x43616e6e6f74207472616e7366657220746f2073656c66000000000000000000\n    /* \"#utility.yul\":4997:5015   */\n  0x44\n  dup3\n  add\n    /* \"#utility.yul\":4990:5043   */\n  mstore\n    /* \"#utility.yul\":5060:5078   */\n  0x64\n  add\n    /* \"@chainlink/contracts/src/v0.8/ConfirmedOwnerWithProposal.sol\":1551:1603  require(to != msg.sender, \"Cannot transfer to self\") */\n  tag_9\n    /* \"#utility.yul\":4737:5084   */\n  jump\n    /* \"@chainlink/contracts/src/v0.8/ConfirmedOwnerWithProposal.sol\":1551:1603  require(to != msg.sender, \"Cannot transfer to self\") */\ntag_38:\n    /* \"@chainlink/contracts/src/v0.8/ConfirmedOwnerWithProposal.sol\":1610:1624  s_pendingOwner */\n  0x07\n    /* \"@chainlink/contracts/src/v0.8/ConfirmedOwnerWithProposal.sol\":1610:1629  s_pendingOwner = to */\n  dup1\n  sload\n  not(sub(shl(0xa0, 0x01), 0x01))\n  and\n  sub(shl(0xa0, 0x01), 0x01)\n  dup4\n  dup2\n  and\n  swap2\n  dup3\n  or\n  swap1\n  swap3\n  sstore\n    /* \"@chainlink/contracts/src/v0.8/ConfirmedOwnerWithProposal.sol\":1668:1675  s_owner */\n  sload(0x06)\n    /* \"@chainlink/contracts/src/v0.8/ConfirmedOwnerWithProposal.sol\":1641:1680  OwnershipTransferRequested(s_owner, to) */\n  mload(0x40)\n    /* \"@chainlink/contracts/src/v0.8/ConfirmedOwnerWithProposal.sol\":1610:1629  s_pendingOwner = to */\n  swap2\n  swap3\n    /* \"@chainlink/contracts/src/v0.8/ConfirmedOwnerWithProposal.sol\":1668:1675  s_owner */\n  and\n  swap1\n    /* \"@chainlink/contracts/src/v0.8/ConfirmedOwnerWithProposal.sol\":1641:1680  OwnershipTransferRequested(s_owner, to) */\n  0xed8889f560326eb138920d842192f0eb3dd22b4f139c87a2c57538e05bae1278\n  swap1\n  0x00\n  swap1\n  log3\n    /* \"@chainlink/contracts/src/v0.8/ConfirmedOwnerWithProposal.sol\":1497:1685  function _transferOwnership(address to) private {... */\n  pop\n  jump\t// out\n    /* \"contracts/ChainlinkConsumer.sol\":211:355  function concat(string memory a, string memory b) internal pure returns (string memory) {... */\ntag_26:\n    /* \"contracts/ChainlinkConsumer.sol\":284:297  string memory */\n  0x60\n    /* \"contracts/ChainlinkConsumer.sol\":341:342  a */\n  dup3\n    /* \"contracts/ChainlinkConsumer.sol\":344:345  b */\n  dup3\n    /* \"contracts/ChainlinkConsumer.sol\":324:346  abi.encodePacked(a, b) */\n  add(0x20, mload(0x40))\n  tag_42\n  swap3\n  swap2\n  swap1\n  tag_43\n  jump\t// in\ntag_42:\n  mload(0x40)\n  0x20\n  dup2\n  dup4\n  sub\n  sub\n  dup2\n  mstore\n  swap1\n  0x40\n  mstore\n    /* \"contracts/ChainlinkConsumer.sol\":310:347  return string(abi.encodePacked(a, b)) */\n  swap1\n  pop\n    /* \"contracts/ChainlinkConsumer.sol\":211:355  function concat(string memory a, string memory b) internal pure returns (string memory) {... */\ntag_41:\n  swap3\n  swap2\n  pop\n  pop\n  jump\t// out\n    /* \"#utility.yul\":14:141   */\ntag_46:\n    /* \"#utility.yul\":75:85   */\n  0x4e487b71\n    /* \"#utility.yul\":70:73   */\n  0xe0\n    /* \"#utility.yul\":66:86   */\n  shl\n    /* \"#utility.yul\":63:64   */\n  0x00\n    /* \"#utility.yul\":56:87   */\n  mstore\n    /* \"#utility.yul\":106:110   */\n  0x41\n    /* \"#utility.yul\":103:104   */\n  0x04\n    /* \"#utility.yul\":96:111   */\n  mstore\n    /* \"#utility.yul\":130:134   */\n  0x24\n    /* \"#utility.yul\":127:128   */\n  0x00\n    /* \"#utility.yul\":120:135   */\n  revert\n    /* \"#utility.yul\":146:396   */\ntag_47:\n    /* \"#utility.yul\":231:232   */\n  0x00\n    /* \"#utility.yul\":241:354   */\ntag_54:\n    /* \"#utility.yul\":255:261   */\n  dup4\n    /* \"#utility.yul\":252:253   */\n  dup2\n    /* \"#utility.yul\":249:262   */\n  lt\n    /* \"#utility.yul\":241:354   */\n  iszero\n  tag_56\n  jumpi\n    /* \"#utility.yul\":331:342   */\n  dup2\n  dup2\n  add\n    /* \"#utility.yul\":325:343   */\n  mload\n    /* \"#utility.yul\":312:323   */\n  dup4\n  dup3\n  add\n    /* \"#utility.yul\":305:344   */\n  mstore\n    /* \"#utility.yul\":277:279   */\n  0x20\n    /* \"#utility.yul\":270:280   */\n  add\n    /* \"#utility.yul\":241:354   */\n  jump(tag_54)\ntag_56:\n  pop\n  pop\n    /* \"#utility.yul\":388:389   */\n  0x00\n    /* \"#utility.yul\":370:386   */\n  swap2\n  add\n    /* \"#utility.yul\":363:390   */\n  mstore\n    /* \"#utility.yul\":146:396   */\n  jump\t// out\n    /* \"#utility.yul\":401:1298   */\ntag_3:\n    /* \"#utility.yul\":481:487   */\n  0x00\n    /* \"#utility.yul\":534:536   */\n  0x20\n    /* \"#utility.yul\":522:531   */\n  dup3\n    /* \"#utility.yul\":513:520   */\n  dup5\n    /* \"#utility.yul\":509:532   */\n  sub\n    /* \"#utility.yul\":505:537   */\n  slt\n    /* \"#utility.yul\":502:554   */\n  iszero\n  tag_58\n  jumpi\n    /* \"#utility.yul\":550:551   */\n  0x00\n    /* \"#utility.yul\":547:548   */\n  dup1\n    /* \"#utility.yul\":540:552   */\n  revert\n    /* \"#utility.yul\":502:554   */\ntag_58:\n    /* \"#utility.yul\":577:593   */\n  dup2\n  mload\n  sub(shl(0x40, 0x01), 0x01)\n    /* \"#utility.yul\":642:656   */\n  dup1\n  dup3\n  gt\n    /* \"#utility.yul\":639:673   */\n  iszero\n  tag_59\n  jumpi\n    /* \"#utility.yul\":669:670   */\n  0x00\n    /* \"#utility.yul\":666:667   */\n  dup1\n    /* \"#utility.yul\":659:671   */\n  revert\n    /* \"#utility.yul\":639:673   */\ntag_59:\n    /* \"#utility.yul\":707:713   */\n  dup2\n    /* \"#utility.yul\":696:705   */\n  dup5\n    /* \"#utility.yul\":692:714   */\n  add\n    /* \"#utility.yul\":682:714   */\n  swap2\n  pop\n    /* \"#utility.yul\":752:759   */\n  dup5\n    /* \"#utility.yul\":745:749   */\n  0x1f\n    /* \"#utility.yul\":741:743   */\n  dup4\n    /* \"#utility.yul\":737:750   */\n  add\n    /* \"#utility.yul\":733:760   */\n  slt\n    /* \"#utility.yul\":723:778   */\n  tag_60\n  jumpi\n    /* \"#utility.yul\":774:775   */\n  0x00\n    /* \"#utility.yul\":771:772   */\n  dup1\n    /* \"#utility.yul\":764:776   */\n  revert\n    /* \"#utility.yul\":723:778   */\ntag_60:\n    /* \"#utility.yul\":803:805   */\n  dup2\n    /* \"#utility.yul\":797:806   */\n  mload\n    /* \"#utility.yul\":825:827   */\n  dup2\n    /* \"#utility.yul\":821:823   */\n  dup2\n    /* \"#utility.yul\":818:828   */\n  gt\n    /* \"#utility.yul\":815:851   */\n  iszero\n  tag_62\n  jumpi\n    /* \"#utility.yul\":831:849   */\n  tag_62\n  tag_46\n  jump\t// in\ntag_62:\n    /* \"#utility.yul\":906:908   */\n  0x40\n    /* \"#utility.yul\":900:909   */\n  mload\n    /* \"#utility.yul\":874:876   */\n  0x1f\n    /* \"#utility.yul\":960:973   */\n  dup3\n  add\n  not(0x1f)\n    /* \"#utility.yul\":956:978   */\n  swap1\n  dup2\n  and\n    /* \"#utility.yul\":980:982   */\n  0x3f\n    /* \"#utility.yul\":952:983   */\n  add\n    /* \"#utility.yul\":948:988   */\n  and\n    /* \"#utility.yul\":936:989   */\n  dup2\n  add\n  swap1\n    /* \"#utility.yul\":1004:1022   */\n  dup4\n  dup3\n  gt\n    /* \"#utility.yul\":1024:1046   */\n  dup2\n  dup4\n  lt\n    /* \"#utility.yul\":1001:1047   */\n  or\n    /* \"#utility.yul\":998:1070   */\n  iszero\n  tag_64\n  jumpi\n    /* \"#utility.yul\":1050:1068   */\n  tag_64\n  tag_46\n  jump\t// in\ntag_64:\n    /* \"#utility.yul\":1090:1100   */\n  dup2\n    /* \"#utility.yul\":1086:1088   */\n  0x40\n    /* \"#utility.yul\":1079:1101   */\n  mstore\n    /* \"#utility.yul\":1125:1127   */\n  dup3\n    /* \"#utility.yul\":1117:1123   */\n  dup2\n    /* \"#utility.yul\":1110:1128   */\n  mstore\n    /* \"#utility.yul\":1165:1172   */\n  dup8\n    /* \"#utility.yul\":1160:1162   */\n  0x20\n    /* \"#utility.yul\":1155:1157   */\n  dup5\n    /* \"#utility.yul\":1151:1153   */\n  dup8\n    /* \"#utility.yul\":1147:1158   */\n  add\n    /* \"#utility.yul\":1143:1163   */\n  add\n    /* \"#utility.yul\":1140:1173   */\n  gt\n    /* \"#utility.yul\":1137:1190   */\n  iszero\n  tag_65\n  jumpi\n    /* \"#utility.yul\":1186:1187   */\n  0x00\n    /* \"#utility.yul\":1183:1184   */\n  dup1\n    /* \"#utility.yul\":1176:1188   */\n  revert\n    /* \"#utility.yul\":1137:1190   */\ntag_65:\n    /* \"#utility.yul\":1199:1267   */\n  tag_66\n    /* \"#utility.yul\":1264:1266   */\n  dup4\n    /* \"#utility.yul\":1259:1261   */\n  0x20\n    /* \"#utility.yul\":1251:1257   */\n  dup4\n    /* \"#utility.yul\":1247:1262   */\n  add\n    /* \"#utility.yul\":1242:1244   */\n  0x20\n    /* \"#utility.yul\":1238:1240   */\n  dup9\n    /* \"#utility.yul\":1234:1245   */\n  add\n    /* \"#utility.yul\":1199:1267   */\n  tag_47\n  jump\t// in\ntag_66:\n    /* \"#utility.yul\":1286:1292   */\n  swap8\n    /* \"#utility.yul\":401:1298   */\n  swap7\n  pop\n  pop\n  pop\n  pop\n  pop\n  pop\n  pop\n  jump\t// out\n    /* \"#utility.yul\":1656:2036   */\ntag_21:\n    /* \"#utility.yul\":1735:1736   */\n  0x01\n    /* \"#utility.yul\":1731:1743   */\n  dup2\n  dup2\n  shr\n  swap1\n    /* \"#utility.yul\":1778:1790   */\n  dup3\n  and\n  dup1\n    /* \"#utility.yul\":1799:1860   */\n  tag_69\n  jumpi\n    /* \"#utility.yul\":1853:1857   */\n  0x7f\n    /* \"#utility.yul\":1845:1851   */\n  dup3\n    /* \"#utility.yul\":1841:1858   */\n  and\n    /* \"#utility.yul\":1831:1858   */\n  swap2\n  pop\n    /* \"#utility.yul\":1799:1860   */\ntag_69:\n    /* \"#utility.yul\":1906:1908   */\n  0x20\n    /* \"#utility.yul\":1898:1904   */\n  dup3\n    /* \"#utility.yul\":1895:1909   */\n  lt\n    /* \"#utility.yul\":1875:1893   */\n  dup2\n    /* \"#utility.yul\":1872:1910   */\n  sub\n    /* \"#utility.yul\":1869:2030   */\n  tag_70\n  jumpi\n    /* \"#utility.yul\":1952:1962   */\n  0x4e487b71\n    /* \"#utility.yul\":1947:1950   */\n  0xe0\n    /* \"#utility.yul\":1943:1963   */\n  shl\n    /* \"#utility.yul\":1940:1941   */\n  0x00\n    /* \"#utility.yul\":1933:1964   */\n  mstore\n    /* \"#utility.yul\":1987:1991   */\n  0x22\n    /* \"#utility.yul\":1984:1985   */\n  0x04\n    /* \"#utility.yul\":1977:1992   */\n  mstore\n    /* \"#utility.yul\":2015:2019   */\n  0x24\n    /* \"#utility.yul\":2012:2013   */\n  0x00\n    /* \"#utility.yul\":2005:2020   */\n  revert\n    /* \"#utility.yul\":1869:2030   */\ntag_70:\n  pop\n    /* \"#utility.yul\":1656:2036   */\n  swap2\n  swap1\n  pop\n  jump\t// out\n    /* \"#utility.yul\":2167:2712   */\ntag_49:\n    /* \"#utility.yul\":2269:2271   */\n  0x1f\n    /* \"#utility.yul\":2264:2267   */\n  dup3\n    /* \"#utility.yul\":2261:2272   */\n  gt\n    /* \"#utility.yul\":2258:2706   */\n  iszero\n  tag_73\n  jumpi\n    /* \"#utility.yul\":2305:2306   */\n  0x00\n    /* \"#utility.yul\":2330:2335   */\n  dup2\n    /* \"#utility.yul\":2326:2328   */\n  dup2\n    /* \"#utility.yul\":2319:2336   */\n  mstore\n    /* \"#utility.yul\":2375:2379   */\n  0x20\n    /* \"#utility.yul\":2371:2373   */\n  dup2\n    /* \"#utility.yul\":2361:2380   */\n  keccak256\n    /* \"#utility.yul\":2445:2447   */\n  0x1f\n    /* \"#utility.yul\":2433:2443   */\n  dup6\n    /* \"#utility.yul\":2429:2448   */\n  add\n    /* \"#utility.yul\":2426:2427   */\n  0x05\n    /* \"#utility.yul\":2422:2449   */\n  shr\n    /* \"#utility.yul\":2416:2420   */\n  dup2\n    /* \"#utility.yul\":2412:2450   */\n  add\n    /* \"#utility.yul\":2481:2485   */\n  0x20\n    /* \"#utility.yul\":2469:2479   */\n  dup7\n    /* \"#utility.yul\":2466:2486   */\n  lt\n    /* \"#utility.yul\":2463:2510   */\n  iszero\n  tag_74\n  jumpi\n  pop\n    /* \"#utility.yul\":2504:2508   */\n  dup1\n    /* \"#utility.yul\":2463:2510   */\ntag_74:\n    /* \"#utility.yul\":2559:2561   */\n  0x1f\n    /* \"#utility.yul\":2554:2557   */\n  dup6\n    /* \"#utility.yul\":2550:2562   */\n  add\n    /* \"#utility.yul\":2547:2548   */\n  0x05\n    /* \"#utility.yul\":2543:2563   */\n  shr\n    /* \"#utility.yul\":2537:2541   */\n  dup3\n    /* \"#utility.yul\":2533:2564   */\n  add\n    /* \"#utility.yul\":2523:2564   */\n  swap2\n  pop\n    /* \"#utility.yul\":2614:2696   */\ntag_75:\n    /* \"#utility.yul\":2632:2634   */\n  dup2\n    /* \"#utility.yul\":2625:2630   */\n  dup2\n    /* \"#utility.yul\":2622:2635   */\n  lt\n    /* \"#utility.yul\":2614:2696   */\n  iszero\n  tag_77\n  jumpi\n    /* \"#utility.yul\":2677:2694   */\n  dup3\n  dup2\n  sstore\n    /* \"#utility.yul\":2658:2659   */\n  0x01\n    /* \"#utility.yul\":2647:2660   */\n  add\n    /* \"#utility.yul\":2614:2696   */\n  jump(tag_75)\ntag_77:\n    /* \"#utility.yul\":2618:2621   */\n  pop\n  pop\n  pop\n    /* \"#utility.yul\":2258:2706   */\ntag_73:\n    /* \"#utility.yul\":2167:2712   */\n  pop\n  pop\n  pop\n  jump\t// out\n    /* \"#utility.yul\":2888:4240   */\ntag_17:\n    /* \"#utility.yul\":3008:3018   */\n  dup2\n  mload\n  sub(shl(0x40, 0x01), 0x01)\n    /* \"#utility.yul\":3030:3060   */\n  dup2\n  gt\n    /* \"#utility.yul\":3027:3083   */\n  iszero\n  tag_81\n  jumpi\n    /* \"#utility.yul\":3063:3081   */\n  tag_81\n  tag_46\n  jump\t// in\ntag_81:\n    /* \"#utility.yul\":3092:3189   */\n  tag_82\n    /* \"#utility.yul\":3182:3188   */\n  dup2\n    /* \"#utility.yul\":3142:3180   */\n  tag_83\n    /* \"#utility.yul\":3174:3178   */\n  dup5\n    /* \"#utility.yul\":3168:3179   */\n  sload\n    /* \"#utility.yul\":3142:3180   */\n  tag_21\n  jump\t// in\ntag_83:\n    /* \"#utility.yul\":3136:3140   */\n  dup5\n    /* \"#utility.yul\":3092:3189   */\n  tag_49\n  jump\t// in\ntag_82:\n    /* \"#utility.yul\":3244:3248   */\n  0x20\n  dup1\n    /* \"#utility.yul\":3308:3310   */\n  0x1f\n    /* \"#utility.yul\":3297:3311   */\n  dup4\n  gt\n    /* \"#utility.yul\":3325:3326   */\n  0x01\n    /* \"#utility.yul\":3320:3983   */\n  dup2\n  eq\n  tag_85\n  jumpi\n    /* \"#utility.yul\":4027:4028   */\n  0x00\n    /* \"#utility.yul\":4044:4050   */\n  dup5\n    /* \"#utility.yul\":4041:4130   */\n  iszero\n  tag_86\n  jumpi\n  pop\n    /* \"#utility.yul\":4096:4115   */\n  dup6\n  dup4\n  add\n    /* \"#utility.yul\":4090:4116   */\n  mload\n    /* \"#utility.yul\":4041:4130   */\ntag_86:\n  not(0x00)\n    /* \"#utility.yul\":2845:2846   */\n  0x03\n    /* \"#utility.yul\":2841:2852   */\n  dup7\n  swap1\n  shl\n    /* \"#utility.yul\":2837:2861   */\n  shr\n    /* \"#utility.yul\":2833:2862   */\n  not\n    /* \"#utility.yul\":2823:2863   */\n  and\n    /* \"#utility.yul\":2869:2870   */\n  0x01\n    /* \"#utility.yul\":2865:2876   */\n  dup6\n  swap1\n  shl\n    /* \"#utility.yul\":2820:2877   */\n  or\n    /* \"#utility.yul\":4143:4224   */\n  dup6\n  sstore\n    /* \"#utility.yul\":3290:4234   */\n  jump(tag_77)\n    /* \"#utility.yul\":3320:3983   */\ntag_85:\n    /* \"#utility.yul\":2114:2115   */\n  0x00\n    /* \"#utility.yul\":2107:2121   */\n  dup6\n  dup2\n  mstore\n    /* \"#utility.yul\":2151:2155   */\n  0x20\n    /* \"#utility.yul\":2138:2156   */\n  dup2\n  keccak256\n  not(0x1f)\n    /* \"#utility.yul\":3356:3376   */\n  dup7\n  and\n  swap2\n    /* \"#utility.yul\":3474:3710   */\ntag_89:\n    /* \"#utility.yul\":3488:3495   */\n  dup3\n    /* \"#utility.yul\":3485:3486   */\n  dup2\n    /* \"#utility.yul\":3482:3496   */\n  lt\n    /* \"#utility.yul\":3474:3710   */\n  iszero\n  tag_91\n  jumpi\n    /* \"#utility.yul\":3577:3596   */\n  dup9\n  dup7\n  add\n    /* \"#utility.yul\":3571:3597   */\n  mload\n    /* \"#utility.yul\":3556:3598   */\n  dup3\n  sstore\n    /* \"#utility.yul\":3669:3696   */\n  swap5\n  dup5\n  add\n  swap5\n    /* \"#utility.yul\":3637:3638   */\n  0x01\n    /* \"#utility.yul\":3625:3639   */\n  swap1\n  swap2\n  add\n  swap1\n    /* \"#utility.yul\":3504:3523   */\n  dup5\n  add\n    /* \"#utility.yul\":3474:3710   */\n  jump(tag_89)\ntag_91:\n    /* \"#utility.yul\":3478:3481   */\n  pop\n    /* \"#utility.yul\":3738:3744   */\n  dup6\n    /* \"#utility.yul\":3729:3736   */\n  dup3\n    /* \"#utility.yul\":3726:3745   */\n  lt\n    /* \"#utility.yul\":3723:3924   */\n  iszero\n  tag_92\n  jumpi\n    /* \"#utility.yul\":3799:3818   */\n  dup8\n  dup6\n  add\n    /* \"#utility.yul\":3793:3819   */\n  mload\n  not(0x00)\n    /* \"#utility.yul\":3882:3883   */\n  0x03\n    /* \"#utility.yul\":3878:3892   */\n  dup9\n  swap1\n  shl\n    /* \"#utility.yul\":3894:3897   */\n  0xf8\n    /* \"#utility.yul\":3874:3898   */\n  and\n    /* \"#utility.yul\":3870:3907   */\n  shr\n    /* \"#utility.yul\":3866:3908   */\n  not\n    /* \"#utility.yul\":3851:3909   */\n  and\n    /* \"#utility.yul\":3836:3910   */\n  dup2\n  sstore\n    /* \"#utility.yul\":3723:3924   */\ntag_92:\n  pop\n  pop\n  pop\n  pop\n  pop\n    /* \"#utility.yul\":3970:3971   */\n  0x01\n    /* \"#utility.yul\":3954:3968   */\n  swap1\n  dup2\n  shl\n    /* \"#utility.yul\":3950:3972   */\n  add\n    /* \"#utility.yul\":3937:3973   */\n  swap1\n  sstore\n  pop\n    /* \"#utility.yul\":2888:4240   */\n  jump\t// out\n    /* \"#utility.yul\":4245:4510   */\ntag_33:\n    /* \"#utility.yul\":4318:4327   */\n  dup1\n  dup3\n  mul\n    /* \"#utility.yul\":4349:4358   */\n  dup2\n  iszero\n    /* \"#utility.yul\":4366:4381   */\n  dup3\n  dup3\n  div\n    /* \"#utility.yul\":4360:4382   */\n  dup5\n  eq\n    /* \"#utility.yul\":4346:4383   */\n  or\n    /* \"#utility.yul\":4336:4504   */\n  tag_41\n  jumpi\n    /* \"#utility.yul\":4426:4436   */\n  0x4e487b71\n    /* \"#utility.yul\":4421:4424   */\n  0xe0\n    /* \"#utility.yul\":4417:4437   */\n  shl\n    /* \"#utility.yul\":4414:4415   */\n  0x00\n    /* \"#utility.yul\":4407:4438   */\n  mstore\n    /* \"#utility.yul\":4461:4465   */\n  0x11\n    /* \"#utility.yul\":4458:4459   */\n  0x04\n    /* \"#utility.yul\":4451:4466   */\n  mstore\n    /* \"#utility.yul\":4489:4493   */\n  0x24\n    /* \"#utility.yul\":4486:4487   */\n  0x00\n    /* \"#utility.yul\":4479:4494   */\n  revert\n    /* \"#utility.yul\":4515:4732   */\ntag_35:\n    /* \"#utility.yul\":4555:4556   */\n  0x00\n    /* \"#utility.yul\":4581:4582   */\n  dup3\n    /* \"#utility.yul\":4571:4703   */\n  tag_96\n  jumpi\n    /* \"#utility.yul\":4625:4635   */\n  0x4e487b71\n    /* \"#utility.yul\":4620:4623   */\n  0xe0\n    /* \"#utility.yul\":4616:4636   */\n  shl\n    /* \"#utility.yul\":4613:4614   */\n  0x00\n    /* \"#utility.yul\":4606:4637   */\n  mstore\n    /* \"#utility.yul\":4660:4664   */\n  0x12\n    /* \"#utility.yul\":4657:4658   */\n  0x04\n    /* \"#utility.yul\":4650:4665   */\n  mstore\n    /* \"#utility.yul\":4688:4692   */\n  0x24\n    /* \"#utility.yul\":4685:4686   */\n  0x00\n    /* \"#utility.yul\":4678:4693   */\n  revert\n    /* \"#utility.yul\":4571:4703   */\ntag_96:\n  pop\n    /* \"#utility.yul\":4717:4726   */\n  div\n  swap1\n    /* \"#utility.yul\":4515:4732   */\n  jump\t// out\n    /* \"#utility.yul\":5089:5585   */\ntag_43:\n    /* \"#utility.yul\":5268:5271   */\n  0x00\n    /* \"#utility.yul\":5306:5312   */\n  dup4\n    /* \"#utility.yul\":5300:5313   */\n  mload\n    /* \"#utility.yul\":5322:5388   */\n  tag_99\n    /* \"#utility.yul\":5381:5387   */\n  dup2\n    /* \"#utility.yul\":5376:5379   */\n  dup5\n    /* \"#utility.yul\":5369:5373   */\n  0x20\n    /* \"#utility.yul\":5361:5367   */\n  dup9\n    /* \"#utility.yul\":5357:5374   */\n  add\n    /* \"#utility.yul\":5322:5388   */\n  tag_47\n  jump\t// in\ntag_99:\n    /* \"#utility.yul\":5451:5464   */\n  dup4\n  mload\n    /* \"#utility.yul\":5410:5426   */\n  swap1\n  dup4\n  add\n  swap1\n    /* \"#utility.yul\":5473:5543   */\n  tag_100\n    /* \"#utility.yul\":5451:5464   */\n  dup2\n    /* \"#utility.yul\":5410:5426   */\n  dup4\n    /* \"#utility.yul\":5520:5524   */\n  0x20\n    /* \"#utility.yul\":5508:5525   */\n  dup9\n  add\n    /* \"#utility.yul\":5473:5543   */\n  tag_47\n  jump\t// in\ntag_100:\n    /* \"#utility.yul\":5559:5579   */\n  add\n  swap5\n    /* \"#utility.yul\":5089:5585   */\n  swap4\n  pop\n  pop\n  pop\n  pop\n  jump\t// out\ntag_51:\n    /* \"contracts/ChainlinkConsumer.sol\":362:3349  contract APIConsumer is ChainlinkClient, ConfirmedOwner {... */\n  dataSize(sub_0)\n  dup1\n  dataOffset(sub_0)\n  0x00\n  codecopy\n  0x00\n  return\nstop\ndata_6fc87d337cfc4c898418b7cabed453d3744888e14c12ece71e04efd1e2f026fb 687474703a2f2f6170692e666f6f7462616c6c2d646174612e6f72672f76342f636f6d7065746974696f6e732f\n\nsub_0: assembly {\n        /* \"contracts/ChainlinkConsumer.sol\":362:3349  contract APIConsumer is ChainlinkClient, ConfirmedOwner {... */\n      mstore(0x40, 0x80)\n      callvalue\n      dup1\n      iszero\n      tag_1\n      jumpi\n      0x00\n      dup1\n      revert\n    tag_1:\n      pop\n      jumpi(tag_2, lt(calldatasize, 0x04))\n      shr(0xe0, calldataload(0x00))\n      dup1\n      0x8dc654a2\n      gt\n      tag_16\n      jumpi\n      dup1\n      0xd9b29297\n      gt\n      tag_17\n      jumpi\n      dup1\n      0xd9b29297\n      eq\n      tag_12\n      jumpi\n      dup1\n      0xdfbf53ae\n      eq\n      tag_13\n      jumpi\n      dup1\n      0xf2fde38b\n      eq\n      tag_14\n      jumpi\n      dup1\n      0xf81b5c5b\n      eq\n      tag_15\n      jumpi\n      0x00\n      dup1\n      revert\n    tag_17:\n      dup1\n      0x8dc654a2\n      eq\n      tag_9\n      jumpi\n      dup1\n      0x9ae2c3c6\n      eq\n      tag_10\n      jumpi\n      dup1\n      0xa8d54261\n      eq\n      tag_11\n      jumpi\n      0x00\n      dup1\n      revert\n    tag_16:\n      dup1\n      0x78a7d3af\n      gt\n      tag_18\n      jumpi\n      dup1\n      0x78a7d3af\n      eq\n      tag_6\n      jumpi\n      dup1\n      0x79ba5097\n      eq\n      tag_7\n      jumpi\n      dup1\n      0x8da5cb5b\n      eq\n      tag_8\n      jumpi\n      0x00\n      dup1\n      revert\n    tag_18:\n      dup1\n      0x01a3694e\n      eq\n      tag_3\n      jumpi\n      dup1\n      0x0df71602\n      eq\n      tag_4\n      jumpi\n      dup1\n      0x3d5d3236\n      eq\n      tag_5\n      jumpi\n    tag_2:\n      0x00\n      dup1\n      revert\n        /* \"contracts/ChainlinkConsumer.sol\":534:556  uint256 public winner2 */\n    tag_3:\n      tag_19\n      sload(0x09)\n      dup2\n      jump\n    tag_19:\n      mload(0x40)\n        /* \"#utility.yul\":160:185   */\n      swap1\n      dup2\n      mstore\n        /* \"#utility.yul\":148:150   */\n      0x20\n        /* \"#utility.yul\":133:151   */\n      add\n        /* \"contracts/ChainlinkConsumer.sol\":534:556  uint256 public winner2 */\n    tag_21:\n      mload(0x40)\n      dup1\n      swap2\n      sub\n      swap1\n      return\n        /* \"contracts/ChainlinkConsumer.sol\":3133:3198  function setWinner(uint id) public {... */\n    tag_4:\n      tag_23\n      tag_24\n      calldatasize\n      0x04\n      tag_25\n      jump\t// in\n    tag_24:\n        /* \"contracts/ChainlinkConsumer.sol\":3179:3185  winner */\n      0x08\n        /* \"contracts/ChainlinkConsumer.sol\":3179:3190  winner = id */\n      sstore\n        /* \"contracts/ChainlinkConsumer.sol\":3133:3198  function setWinner(uint id) public {... */\n      jump\n    tag_23:\n      stop\n        /* \"contracts/ChainlinkConsumer.sol\":2422:2779  function fulfillOracleRequest(... */\n    tag_5:\n      tag_23\n      tag_28\n      calldatasize\n      0x04\n      tag_29\n      jump\t// in\n    tag_28:\n      tag_30\n      jump\t// in\n        /* \"contracts/ChainlinkConsumer.sol\":1827:2300  function requestWinner() public virtual returns (bytes32 requestId) {... */\n    tag_6:\n      tag_19\n      tag_32\n      jump\t// in\n        /* \"@chainlink/contracts/src/v0.8/ConfirmedOwnerWithProposal.sol\":1016:1281  function acceptOwnership() external override {... */\n    tag_7:\n      tag_23\n      tag_36\n      jump\t// in\n        /* \"@chainlink/contracts/src/v0.8/ConfirmedOwnerWithProposal.sol\":1332:1413  function owner() public view override returns (address) {... */\n    tag_8:\n        /* \"@chainlink/contracts/src/v0.8/ConfirmedOwnerWithProposal.sol\":1401:1408  s_owner */\n      sload(0x06)\n        /* \"@chainlink/contracts/src/v0.8/ConfirmedOwnerWithProposal.sol\":1332:1413  function owner() public view override returns (address) {... */\n      mload(0x40)\n        /* \"@chainlink/contracts/src/v0.8/ConfirmedOwnerWithProposal.sol\":1401:1408  s_owner */\n      0xffffffffffffffffffffffffffffffffffffffff\n      swap1\n      swap2\n      and\n        /* \"#utility.yul\":1099:1173   */\n      dup2\n      mstore\n        /* \"#utility.yul\":1087:1089   */\n      0x20\n        /* \"#utility.yul\":1072:1090   */\n      add\n        /* \"@chainlink/contracts/src/v0.8/ConfirmedOwnerWithProposal.sol\":1332:1413  function owner() public view override returns (address) {... */\n      tag_21\n        /* \"#utility.yul\":953:1179   */\n      jump\n        /* \"contracts/ChainlinkConsumer.sol\":2861:3125  function withdrawLink() public onlyOwner {... */\n    tag_9:\n      tag_23\n      tag_42\n      jump\t// in\n        /* \"contracts/ChainlinkConsumer.sol\":3279:3346  function setWinner3(uint id) public {... */\n    tag_10:\n      tag_23\n      tag_44\n      calldatasize\n      0x04\n      tag_25\n      jump\t// in\n    tag_44:\n        /* \"contracts/ChainlinkConsumer.sol\":3326:3333  winner3 */\n      0x0a\n        /* \"contracts/ChainlinkConsumer.sol\":3326:3338  winner3 = id */\n      sstore\n        /* \"contracts/ChainlinkConsumer.sol\":3279:3346  function setWinner3(uint id) public {... */\n      jump\n        /* \"contracts/ChainlinkConsumer.sol\":3206:3273  function setWinner2(uint id) public {... */\n    tag_11:\n      tag_23\n      tag_47\n      calldatasize\n      0x04\n      tag_25\n      jump\t// in\n    tag_47:\n        /* \"contracts/ChainlinkConsumer.sol\":3253:3260  winner2 */\n      0x09\n        /* \"contracts/ChainlinkConsumer.sol\":3253:3265  winner2 = id */\n      sstore\n        /* \"contracts/ChainlinkConsumer.sol\":3206:3273  function setWinner2(uint id) public {... */\n      jump\n        /* \"contracts/ChainlinkConsumer.sol\":673:693  string public league */\n    tag_12:\n      tag_49\n      tag_50\n      jump\t// in\n    tag_49:\n      mload(0x40)\n      tag_21\n      swap2\n      swap1\n      tag_52\n      jump\t// in\n        /* \"contracts/ChainlinkConsumer.sol\":506:527  uint256 public winner */\n    tag_13:\n      tag_19\n      sload(0x08)\n      dup2\n      jump\n        /* \"@chainlink/contracts/src/v0.8/ConfirmedOwnerWithProposal.sol\":826:924  function transferOwnership(address to) public override onlyOwner {... */\n    tag_14:\n      tag_23\n      tag_57\n      calldatasize\n      0x04\n      tag_58\n      jump\t// in\n    tag_57:\n      tag_59\n      jump\t// in\n        /* \"contracts/ChainlinkConsumer.sol\":563:585  uint256 public winner3 */\n    tag_15:\n      tag_19\n      sload(0x0a)\n      dup2\n      jump\n        /* \"contracts/ChainlinkConsumer.sol\":2422:2779  function fulfillOracleRequest(... */\n    tag_30:\n        /* \"@chainlink/contracts/src/v0.8/ChainlinkClient.sol\":11663:11691  s_pendingRequests[requestId] */\n      0x00\n      dup5\n      dup2\n      mstore\n        /* \"@chainlink/contracts/src/v0.8/ChainlinkClient.sol\":11663:11680  s_pendingRequests */\n      0x05\n        /* \"@chainlink/contracts/src/v0.8/ChainlinkClient.sol\":11663:11691  s_pendingRequests[requestId] */\n      0x20\n      mstore\n      0x40\n      swap1\n      keccak256\n      sload\n      dup5\n      swap1\n      0xffffffffffffffffffffffffffffffffffffffff\n      and\n        /* \"@chainlink/contracts/src/v0.8/ChainlinkClient.sol\":11649:11659  msg.sender */\n      caller\n        /* \"@chainlink/contracts/src/v0.8/ChainlinkClient.sol\":11649:11691  msg.sender == s_pendingRequests[requestId] */\n      eq\n        /* \"@chainlink/contracts/src/v0.8/ChainlinkClient.sol\":11641:11736  require(msg.sender == s_pendingRequests[requestId], \"Source must be the oracle of the request\") */\n      tag_65\n      jumpi\n      mload(0x40)\n      0x08c379a000000000000000000000000000000000000000000000000000000000\n      dup2\n      mstore\n        /* \"#utility.yul\":2412:2414   */\n      0x20\n        /* \"@chainlink/contracts/src/v0.8/ChainlinkClient.sol\":11641:11736  require(msg.sender == s_pendingRequests[requestId], \"Source must be the oracle of the request\") */\n      0x04\n      dup3\n      add\n        /* \"#utility.yul\":2394:2415   */\n      mstore\n        /* \"#utility.yul\":2451:2453   */\n      0x28\n        /* \"#utility.yul\":2431:2449   */\n      0x24\n      dup3\n      add\n        /* \"#utility.yul\":2424:2454   */\n      mstore\n        /* \"#utility.yul\":2490:2524   */\n      0x536f75726365206d75737420626520746865206f7261636c65206f6620746865\n        /* \"#utility.yul\":2470:2488   */\n      0x44\n      dup3\n      add\n        /* \"#utility.yul\":2463:2525   */\n      mstore\n        /* \"#utility.yul\":2561:2571   */\n      0x2072657175657374000000000000000000000000000000000000000000000000\n        /* \"#utility.yul\":2541:2559   */\n      0x64\n      dup3\n      add\n        /* \"#utility.yul\":2534:2572   */\n      mstore\n        /* \"#utility.yul\":2589:2608   */\n      0x84\n      add\n        /* \"@chainlink/contracts/src/v0.8/ChainlinkClient.sol\":11641:11736  require(msg.sender == s_pendingRequests[requestId], \"Source must be the oracle of the request\") */\n    tag_66:\n      mload(0x40)\n      dup1\n      swap2\n      sub\n      swap1\n      revert\n    tag_65:\n        /* \"@chainlink/contracts/src/v0.8/ChainlinkClient.sol\":11749:11777  s_pendingRequests[requestId] */\n      0x00\n      dup2\n      dup2\n      mstore\n        /* \"@chainlink/contracts/src/v0.8/ChainlinkClient.sol\":11749:11766  s_pendingRequests */\n      0x05\n        /* \"@chainlink/contracts/src/v0.8/ChainlinkClient.sol\":11749:11777  s_pendingRequests[requestId] */\n      0x20\n      mstore\n      0x40\n      dup1\n      dup3\n      keccak256\n        /* \"@chainlink/contracts/src/v0.8/ChainlinkClient.sol\":11742:11777  delete s_pendingRequests[requestId] */\n      dup1\n      sload\n      0xffffffffffffffffffffffff0000000000000000000000000000000000000000\n      and\n      swap1\n      sstore\n        /* \"@chainlink/contracts/src/v0.8/ChainlinkClient.sol\":11788:11817  ChainlinkFulfilled(requestId) */\n      mload\n        /* \"@chainlink/contracts/src/v0.8/ChainlinkClient.sol\":11767:11776  requestId */\n      dup3\n      swap2\n        /* \"@chainlink/contracts/src/v0.8/ChainlinkClient.sol\":11788:11817  ChainlinkFulfilled(requestId) */\n      0x7cc135e0cebb02c3480ae5d74d377283180a2601f8f644edf7987b009316c63a\n      swap2\n      log2\n        /* \"contracts/ChainlinkConsumer.sol\":2632:2686  RequestWinner(_requestId, _winner, _winner2, _winner3) */\n      0x40\n      dup1\n      mload\n        /* \"#utility.yul\":2821:2846   */\n      dup6\n      dup2\n      mstore\n        /* \"#utility.yul\":2877:2879   */\n      0x20\n        /* \"#utility.yul\":2862:2880   */\n      dup2\n      add\n        /* \"#utility.yul\":2855:2889   */\n      dup6\n      swap1\n      mstore\n        /* \"#utility.yul\":2905:2923   */\n      swap1\n      dup2\n      add\n        /* \"#utility.yul\":2898:2932   */\n      dup4\n      swap1\n      mstore\n        /* \"contracts/ChainlinkConsumer.sol\":2646:2656  _requestId */\n      dup6\n      swap1\n        /* \"contracts/ChainlinkConsumer.sol\":2632:2686  RequestWinner(_requestId, _winner, _winner2, _winner3) */\n      0x539e5682d95ed725b9a92ef19aefc24d6e1bc6aa39ab4f2ac96a3e48f1dd2e46\n      swap1\n        /* \"#utility.yul\":2809:2811   */\n      0x60\n        /* \"#utility.yul\":2794:2812   */\n      add\n        /* \"contracts/ChainlinkConsumer.sol\":2632:2686  RequestWinner(_requestId, _winner, _winner2, _winner3) */\n      mload(0x40)\n      dup1\n      swap2\n      sub\n      swap1\n      log2\n      pop\n        /* \"contracts/ChainlinkConsumer.sol\":2697:2703  winner */\n      0x08\n        /* \"contracts/ChainlinkConsumer.sol\":2697:2713  winner = _winner */\n      swap3\n      swap1\n      swap3\n      sstore\n        /* \"contracts/ChainlinkConsumer.sol\":2724:2731  winner2 */\n      0x09\n        /* \"contracts/ChainlinkConsumer.sol\":2724:2742  winner2 = _winner2 */\n      sstore\n        /* \"contracts/ChainlinkConsumer.sol\":2753:2760  winner3 */\n      0x0a\n        /* \"contracts/ChainlinkConsumer.sol\":2753:2771  winner3 = _winner3 */\n      sstore\n      pop\n        /* \"contracts/ChainlinkConsumer.sol\":2422:2779  function fulfillOracleRequest(... */\n      jump\t// out\n        /* \"contracts/ChainlinkConsumer.sol\":1827:2300  function requestWinner() public virtual returns (bytes32 requestId) {... */\n    tag_32:\n        /* \"contracts/ChainlinkConsumer.sol\":1876:1893  bytes32 requestId */\n      0x00\n        /* \"contracts/ChainlinkConsumer.sol\":1906:1934  Chainlink.Request memory req */\n      dup1\n        /* \"contracts/ChainlinkConsumer.sol\":1937:2066  buildChainlinkRequest(... */\n      tag_72\n        /* \"contracts/ChainlinkConsumer.sol\":1973:1978  jobId */\n      sload(0x0b)\n        /* \"contracts/ChainlinkConsumer.sol\":2001:2005  this */\n      address\n        /* \"contracts/ChainlinkConsumer.sol\":2021:2055  this.fulfillOracleRequest.selector */\n      shl(0xe0, 0x3d5d3236)\n        /* \"contracts/ChainlinkConsumer.sol\":1937:1958  buildChainlinkRequest */\n      tag_73\n        /* \"contracts/ChainlinkConsumer.sol\":1937:2066  buildChainlinkRequest(... */\n      jump\t// in\n    tag_72:\n        /* \"contracts/ChainlinkConsumer.sol\":1906:2066  Chainlink.Request memory req = buildChainlinkRequest(... */\n      swap1\n      pop\n        /* \"contracts/ChainlinkConsumer.sol\":2079:2135  req.add(... */\n      tag_74\n      mload(0x40)\n      dup1\n      0x40\n      add\n      0x40\n      mstore\n      dup1\n      0x03\n      dup2\n      mstore\n      0x20\n      add\n      0x6765740000000000000000000000000000000000000000000000000000000000\n      dup2\n      mstore\n      pop\n        /* \"contracts/ChainlinkConsumer.sol\":2121:2124  URL */\n      0x0d\n        /* \"contracts/ChainlinkConsumer.sol\":2079:2135  req.add(... */\n      dup1\n      sload\n      tag_75\n      swap1\n      tag_76\n      jump\t// in\n    tag_75:\n      dup1\n      0x1f\n      add\n      0x20\n      dup1\n      swap2\n      div\n      mul\n      0x20\n      add\n      mload(0x40)\n      swap1\n      dup2\n      add\n      0x40\n      mstore\n      dup1\n      swap3\n      swap2\n      swap1\n      dup2\n      dup2\n      mstore\n      0x20\n      add\n      dup3\n      dup1\n      sload\n      tag_77\n      swap1\n      tag_76\n      jump\t// in\n    tag_77:\n      dup1\n      iszero\n      tag_78\n      jumpi\n      dup1\n      0x1f\n      lt\n      tag_79\n      jumpi\n      0x0100\n      dup1\n      dup4\n      sload\n      div\n      mul\n      dup4\n      mstore\n      swap2\n      0x20\n      add\n      swap2\n      jump(tag_78)\n    tag_79:\n      dup3\n      add\n      swap2\n      swap1\n      0x00\n      mstore\n      keccak256(0x00, 0x20)\n      swap1\n    tag_80:\n      dup2\n      sload\n      dup2\n      mstore\n      swap1\n      0x01\n      add\n      swap1\n      0x20\n      add\n      dup1\n      dup4\n      gt\n      tag_80\n      jumpi\n      dup3\n      swap1\n      sub\n      0x1f\n      and\n      dup3\n      add\n      swap2\n    tag_78:\n      pop\n      pop\n      pop\n      pop\n      pop\n        /* \"contracts/ChainlinkConsumer.sol\":2079:2082  req */\n      dup4\n        /* \"contracts/ChainlinkConsumer.sol\":2079:2086  req.add */\n      tag_81\n      swap1\n        /* \"contracts/ChainlinkConsumer.sol\":2079:2135  req.add(... */\n      swap3\n      swap2\n      swap1\n      0xffffffff\n      and\n      jump\t// in\n    tag_74:\n        /* \"contracts/ChainlinkConsumer.sol\":2148:2210  req.add(... */\n      tag_82\n      mload(0x40)\n      dup1\n      0x40\n      add\n      0x40\n      mstore\n      dup1\n      0x06\n      dup2\n      mstore\n      0x20\n      add\n      0x6c65616775650000000000000000000000000000000000000000000000000000\n      dup2\n      mstore\n      pop\n        /* \"contracts/ChainlinkConsumer.sol\":2193:2199  league */\n      0x0e\n        /* \"contracts/ChainlinkConsumer.sol\":2148:2210  req.add(... */\n      dup1\n      sload\n      tag_75\n      swap1\n      tag_76\n      jump\t// in\n    tag_82:\n        /* \"contracts/ChainlinkConsumer.sol\":2262:2292  sendChainlinkRequest(req, fee) */\n      tag_88\n        /* \"contracts/ChainlinkConsumer.sol\":2283:2286  req */\n      dup2\n        /* \"contracts/ChainlinkConsumer.sol\":2288:2291  fee */\n      sload(0x0c)\n        /* \"contracts/ChainlinkConsumer.sol\":2262:2282  sendChainlinkRequest */\n      tag_89\n        /* \"contracts/ChainlinkConsumer.sol\":2262:2292  sendChainlinkRequest(req, fee) */\n      jump\t// in\n    tag_88:\n        /* \"contracts/ChainlinkConsumer.sol\":2255:2292  return sendChainlinkRequest(req, fee) */\n      swap2\n      pop\n      pop\n        /* \"contracts/ChainlinkConsumer.sol\":1827:2300  function requestWinner() public virtual returns (bytes32 requestId) {... */\n      swap1\n      jump\t// out\n        /* \"@chainlink/contracts/src/v0.8/ConfirmedOwnerWithProposal.sol\":1016:1281  function acceptOwnership() external override {... */\n    tag_36:\n        /* \"@chainlink/contracts/src/v0.8/ConfirmedOwnerWithProposal.sol\":1089:1103  s_pendingOwner */\n      and(0xffffffffffffffffffffffffffffffffffffffff, sload(0x07))\n        /* \"@chainlink/contracts/src/v0.8/ConfirmedOwnerWithProposal.sol\":1075:1085  msg.sender */\n      caller\n        /* \"@chainlink/contracts/src/v0.8/ConfirmedOwnerWithProposal.sol\":1075:1103  msg.sender == s_pendingOwner */\n      eq\n        /* \"@chainlink/contracts/src/v0.8/ConfirmedOwnerWithProposal.sol\":1067:1130  require(msg.sender == s_pendingOwner, \"Must be proposed owner\") */\n      tag_91\n      jumpi\n      mload(0x40)\n      0x08c379a000000000000000000000000000000000000000000000000000000000\n      dup2\n      mstore\n        /* \"#utility.yul\":3587:3589   */\n      0x20\n        /* \"@chainlink/contracts/src/v0.8/ConfirmedOwnerWithProposal.sol\":1067:1130  require(msg.sender == s_pendingOwner, \"Must be proposed owner\") */\n      0x04\n      dup3\n      add\n        /* \"#utility.yul\":3569:3590   */\n      mstore\n        /* \"#utility.yul\":3626:3628   */\n      0x16\n        /* \"#utility.yul\":3606:3624   */\n      0x24\n      dup3\n      add\n        /* \"#utility.yul\":3599:3629   */\n      mstore\n        /* \"#utility.yul\":3665:3689   */\n      0x4d7573742062652070726f706f736564206f776e657200000000000000000000\n        /* \"#utility.yul\":3645:3663   */\n      0x44\n      dup3\n      add\n        /* \"#utility.yul\":3638:3690   */\n      mstore\n        /* \"#utility.yul\":3707:3725   */\n      0x64\n      add\n        /* \"@chainlink/contracts/src/v0.8/ConfirmedOwnerWithProposal.sol\":1067:1130  require(msg.sender == s_pendingOwner, \"Must be proposed owner\") */\n      tag_66\n        /* \"#utility.yul\":3385:3731   */\n      jump\n        /* \"@chainlink/contracts/src/v0.8/ConfirmedOwnerWithProposal.sol\":1067:1130  require(msg.sender == s_pendingOwner, \"Must be proposed owner\") */\n    tag_91:\n        /* \"@chainlink/contracts/src/v0.8/ConfirmedOwnerWithProposal.sol\":1156:1163  s_owner */\n      0x06\n      dup1\n      sload\n        /* \"@chainlink/contracts/src/v0.8/ConfirmedOwnerWithProposal.sol\":1169:1189  s_owner = msg.sender */\n      0xffffffffffffffffffffffff0000000000000000000000000000000000000000\n      dup1\n      dup3\n      and\n        /* \"@chainlink/contracts/src/v0.8/ConfirmedOwnerWithProposal.sol\":1179:1189  msg.sender */\n      caller\n        /* \"@chainlink/contracts/src/v0.8/ConfirmedOwnerWithProposal.sol\":1169:1189  s_owner = msg.sender */\n      swap1\n      dup2\n      or\n      swap1\n      swap4\n      sstore\n        /* \"@chainlink/contracts/src/v0.8/ConfirmedOwnerWithProposal.sol\":1195:1209  s_pendingOwner */\n      0x07\n        /* \"@chainlink/contracts/src/v0.8/ConfirmedOwnerWithProposal.sol\":1195:1222  s_pendingOwner = address(0) */\n      dup1\n      sload\n      swap1\n      swap2\n      and\n      swap1\n      sstore\n        /* \"@chainlink/contracts/src/v0.8/ConfirmedOwnerWithProposal.sol\":1234:1276  OwnershipTransferred(oldOwner, msg.sender) */\n      mload(0x40)\n        /* \"@chainlink/contracts/src/v0.8/ConfirmedOwnerWithProposal.sol\":1156:1163  s_owner */\n      0xffffffffffffffffffffffffffffffffffffffff\n      swap1\n      swap2\n      and\n      swap2\n        /* \"@chainlink/contracts/src/v0.8/ConfirmedOwnerWithProposal.sol\":1179:1189  msg.sender */\n      swap1\n        /* \"@chainlink/contracts/src/v0.8/ConfirmedOwnerWithProposal.sol\":1156:1163  s_owner */\n      dup3\n      swap1\n        /* \"@chainlink/contracts/src/v0.8/ConfirmedOwnerWithProposal.sol\":1234:1276  OwnershipTransferred(oldOwner, msg.sender) */\n      0x8be0079c531659141344cd1fd0a4f28419497f9722a3daafe3b4186f6b6457e0\n      swap1\n        /* \"@chainlink/contracts/src/v0.8/ConfirmedOwnerWithProposal.sol\":1137:1153  address oldOwner */\n      0x00\n      swap1\n        /* \"@chainlink/contracts/src/v0.8/ConfirmedOwnerWithProposal.sol\":1234:1276  OwnershipTransferred(oldOwner, msg.sender) */\n      log3\n        /* \"@chainlink/contracts/src/v0.8/ConfirmedOwnerWithProposal.sol\":1061:1281  {... */\n      pop\n        /* \"@chainlink/contracts/src/v0.8/ConfirmedOwnerWithProposal.sol\":1016:1281  function acceptOwnership() external override {... */\n      jump\t// out\n        /* \"contracts/ChainlinkConsumer.sol\":2861:3125  function withdrawLink() public onlyOwner {... */\n    tag_42:\n        /* \"@chainlink/contracts/src/v0.8/ConfirmedOwnerWithProposal.sol\":1956:1976  _validateOwnership() */\n      tag_96\n        /* \"@chainlink/contracts/src/v0.8/ConfirmedOwnerWithProposal.sol\":1956:1974  _validateOwnership */\n      tag_97\n        /* \"@chainlink/contracts/src/v0.8/ConfirmedOwnerWithProposal.sol\":1956:1976  _validateOwnership() */\n      jump\t// in\n    tag_96:\n        /* \"contracts/ChainlinkConsumer.sol\":2913:2936  LinkTokenInterface link */\n      0x00\n        /* \"contracts/ChainlinkConsumer.sol\":2958:2981  chainlinkTokenAddress() */\n      tag_99\n        /* \"@chainlink/contracts/src/v0.8/ChainlinkClient.sol\":9184:9190  s_link */\n      and(0xffffffffffffffffffffffffffffffffffffffff, sload(0x02))\n      swap1\n        /* \"@chainlink/contracts/src/v0.8/ChainlinkClient.sol\":9098:9196  function chainlinkTokenAddress() internal view returns (address) {... */\n      jump\n        /* \"contracts/ChainlinkConsumer.sol\":2958:2981  chainlinkTokenAddress() */\n    tag_99:\n        /* \"contracts/ChainlinkConsumer.sol\":3041:3070  link.balanceOf(address(this)) */\n      mload(0x40)\n      0x70a0823100000000000000000000000000000000000000000000000000000000\n      dup2\n      mstore\n        /* \"contracts/ChainlinkConsumer.sol\":3064:3068  this */\n      address\n        /* \"contracts/ChainlinkConsumer.sol\":3041:3070  link.balanceOf(address(this)) */\n      0x04\n      dup3\n      add\n        /* \"#utility.yul\":1099:1173   */\n      mstore\n        /* \"contracts/ChainlinkConsumer.sol\":2913:2982  LinkTokenInterface link = LinkTokenInterface(chainlinkTokenAddress()) */\n      swap1\n      swap2\n      pop\n        /* \"contracts/ChainlinkConsumer.sol\":3015:3028  link.transfer */\n      0xffffffffffffffffffffffffffffffffffffffff\n      dup3\n      and\n      swap1\n      0xa9059cbb\n      swap1\n        /* \"contracts/ChainlinkConsumer.sol\":3029:3039  msg.sender */\n      caller\n      swap1\n        /* \"contracts/ChainlinkConsumer.sol\":3015:3028  link.transfer */\n      dup4\n      swap1\n        /* \"contracts/ChainlinkConsumer.sol\":3041:3055  link.balanceOf */\n      0x70a08231\n      swap1\n        /* \"#utility.yul\":1072:1090   */\n      0x24\n      add\n        /* \"contracts/ChainlinkConsumer.sol\":3041:3070  link.balanceOf(address(this)) */\n      0x20\n      mload(0x40)\n      dup1\n      dup4\n      sub\n      dup2\n      dup7\n      gas\n      staticcall\n      iszero\n      dup1\n      iszero\n      tag_103\n      jumpi\n      returndatasize\n      0x00\n      dup1\n      returndatacopy\n      revert(0x00, returndatasize)\n    tag_103:\n      pop\n      pop\n      pop\n      pop\n      mload(0x40)\n      returndatasize\n      not(0x1f)\n      0x1f\n      dup3\n      add\n      and\n      dup3\n      add\n      dup1\n      0x40\n      mstore\n      pop\n      dup2\n      add\n      swap1\n      tag_104\n      swap2\n      swap1\n      tag_105\n      jump\t// in\n    tag_104:\n        /* \"contracts/ChainlinkConsumer.sol\":3015:3071  link.transfer(msg.sender, link.balanceOf(address(this))) */\n      mload(0x40)\n      0xffffffff00000000000000000000000000000000000000000000000000000000\n      0xe0\n      dup6\n      swap1\n      shl\n      and\n      dup2\n      mstore\n        /* \"#utility.yul\":4129:4171   */\n      0xffffffffffffffffffffffffffffffffffffffff\n        /* \"#utility.yul\":4117:4172   */\n      swap1\n      swap3\n      and\n        /* \"contracts/ChainlinkConsumer.sol\":3015:3071  link.transfer(msg.sender, link.balanceOf(address(this))) */\n      0x04\n      dup4\n      add\n        /* \"#utility.yul\":4099:4173   */\n      mstore\n        /* \"#utility.yul\":4189:4207   */\n      0x24\n      dup3\n      add\n        /* \"#utility.yul\":4182:4216   */\n      mstore\n        /* \"#utility.yul\":4072:4090   */\n      0x44\n      add\n        /* \"contracts/ChainlinkConsumer.sol\":3015:3071  link.transfer(msg.sender, link.balanceOf(address(this))) */\n      0x20\n      mload(0x40)\n      dup1\n      dup4\n      sub\n      dup2\n      0x00\n      dup8\n      gas\n      call\n      iszero\n      dup1\n      iszero\n      tag_109\n      jumpi\n      returndatasize\n      0x00\n      dup1\n      returndatacopy\n      revert(0x00, returndatasize)\n    tag_109:\n      pop\n      pop\n      pop\n      pop\n      mload(0x40)\n      returndatasize\n      not(0x1f)\n      0x1f\n      dup3\n      add\n      and\n      dup3\n      add\n      dup1\n      0x40\n      mstore\n      pop\n      dup2\n      add\n      swap1\n      tag_110\n      swap2\n      swap1\n      tag_111\n      jump\t// in\n    tag_110:\n        /* \"contracts/ChainlinkConsumer.sol\":2993:3117  require(... */\n      tag_112\n      jumpi\n      mload(0x40)\n      0x08c379a000000000000000000000000000000000000000000000000000000000\n      dup2\n      mstore\n        /* \"#utility.yul\":4711:4713   */\n      0x20\n        /* \"contracts/ChainlinkConsumer.sol\":2993:3117  require(... */\n      0x04\n      dup3\n      add\n        /* \"#utility.yul\":4693:4714   */\n      mstore\n        /* \"#utility.yul\":4750:4752   */\n      0x12\n        /* \"#utility.yul\":4730:4748   */\n      0x24\n      dup3\n      add\n        /* \"#utility.yul\":4723:4753   */\n      mstore\n        /* \"#utility.yul\":4789:4809   */\n      0x556e61626c6520746f207472616e736665720000000000000000000000000000\n        /* \"#utility.yul\":4769:4787   */\n      0x44\n      dup3\n      add\n        /* \"#utility.yul\":4762:4810   */\n      mstore\n        /* \"#utility.yul\":4827:4845   */\n      0x64\n      add\n        /* \"contracts/ChainlinkConsumer.sol\":2993:3117  require(... */\n      tag_66\n        /* \"#utility.yul\":4509:4851   */\n      jump\n        /* \"contracts/ChainlinkConsumer.sol\":2993:3117  require(... */\n    tag_112:\n        /* \"contracts/ChainlinkConsumer.sol\":2902:3125  {... */\n      pop\n        /* \"contracts/ChainlinkConsumer.sol\":2861:3125  function withdrawLink() public onlyOwner {... */\n      jump\t// out\n        /* \"contracts/ChainlinkConsumer.sol\":673:693  string public league */\n    tag_50:\n      0x0e\n      dup1\n      sload\n      tag_117\n      swap1\n      tag_76\n      jump\t// in\n    tag_117:\n      dup1\n      0x1f\n      add\n      0x20\n      dup1\n      swap2\n      div\n      mul\n      0x20\n      add\n      mload(0x40)\n      swap1\n      dup2\n      add\n      0x40\n      mstore\n      dup1\n      swap3\n      swap2\n      swap1\n      dup2\n      dup2\n      mstore\n      0x20\n      add\n      dup3\n      dup1\n      sload\n      tag_118\n      swap1\n      tag_76\n      jump\t// in\n    tag_118:\n      dup1\n      iszero\n      tag_119\n      jumpi\n      dup1\n      0x1f\n      lt\n      tag_120\n      jumpi\n      0x0100\n      dup1\n      dup4\n      sload\n      div\n      mul\n      dup4\n      mstore\n      swap2\n      0x20\n      add\n      swap2\n      jump(tag_119)\n    tag_120:\n      dup3\n      add\n      swap2\n      swap1\n      0x00\n      mstore\n      keccak256(0x00, 0x20)\n      swap1\n    tag_121:\n      dup2\n      sload\n      dup2\n      mstore\n      swap1\n      0x01\n      add\n      swap1\n      0x20\n      add\n      dup1\n      dup4\n      gt\n      tag_121\n      jumpi\n      dup3\n      swap1\n      sub\n      0x1f\n      and\n      dup3\n      add\n      swap2\n    tag_119:\n      pop\n      pop\n      pop\n      pop\n      pop\n      dup2\n      jump\t// out\n        /* \"@chainlink/contracts/src/v0.8/ConfirmedOwnerWithProposal.sol\":826:924  function transferOwnership(address to) public override onlyOwner {... */\n    tag_59:\n        /* \"@chainlink/contracts/src/v0.8/ConfirmedOwnerWithProposal.sol\":1956:1976  _validateOwnership() */\n      tag_123\n        /* \"@chainlink/contracts/src/v0.8/ConfirmedOwnerWithProposal.sol\":1956:1974  _validateOwnership */\n      tag_97\n        /* \"@chainlink/contracts/src/v0.8/ConfirmedOwnerWithProposal.sol\":1956:1976  _validateOwnership() */\n      jump\t// in\n    tag_123:\n        /* \"@chainlink/contracts/src/v0.8/ConfirmedOwnerWithProposal.sol\":897:919  _transferOwnership(to) */\n      tag_112\n        /* \"@chainlink/contracts/src/v0.8/ConfirmedOwnerWithProposal.sol\":916:918  to */\n      dup2\n        /* \"@chainlink/contracts/src/v0.8/ConfirmedOwnerWithProposal.sol\":897:915  _transferOwnership */\n      tag_126\n        /* \"@chainlink/contracts/src/v0.8/ConfirmedOwnerWithProposal.sol\":897:919  _transferOwnership(to) */\n      jump\t// in\n        /* \"@chainlink/contracts/src/v0.8/ChainlinkClient.sol\":1850:2133  function buildChainlinkRequest(... */\n    tag_73:\n        /* \"@chainlink/contracts/src/v0.8/ChainlinkClient.sol\":1992:2016  Chainlink.Request memory */\n      tag_127\n      0x40\n      dup1\n      mload\n      0xa0\n      dup2\n      add\n      dup3\n      mstore\n      0x00\n      dup1\n      dup3\n      mstore\n      0x20\n      dup1\n      dup4\n      add\n      dup3\n      swap1\n      mstore\n      dup3\n      dup5\n      add\n      dup3\n      swap1\n      mstore\n      0x60\n      dup1\n      dup5\n      add\n      dup4\n      swap1\n      mstore\n      dup5\n      mload\n      dup1\n      dup7\n      add\n      swap1\n      swap6\n      mstore\n      dup5\n      mstore\n      dup4\n      add\n      mstore\n      swap1\n      0x80\n      dup3\n      add\n      mstore\n      swap1\n      jump\n    tag_127:\n        /* \"@chainlink/contracts/src/v0.8/ChainlinkClient.sol\":2024:2052  Chainlink.Request memory req */\n      tag_130\n      0x40\n      dup1\n      mload\n      0xa0\n      dup2\n      add\n      dup3\n      mstore\n      0x00\n      dup1\n      dup3\n      mstore\n      0x20\n      dup1\n      dup4\n      add\n      dup3\n      swap1\n      mstore\n      dup3\n      dup5\n      add\n      dup3\n      swap1\n      mstore\n      0x60\n      dup1\n      dup5\n      add\n      dup4\n      swap1\n      mstore\n      dup5\n      mload\n      dup1\n      dup7\n      add\n      swap1\n      swap6\n      mstore\n      dup5\n      mstore\n      dup4\n      add\n      mstore\n      swap1\n      0x80\n      dup3\n      add\n      mstore\n      swap1\n      jump\n    tag_130:\n        /* \"@chainlink/contracts/src/v0.8/ChainlinkClient.sol\":2065:2128  req.initialize(specId, callbackAddr, callbackFunctionSignature) */\n      tag_131\n        /* \"@chainlink/contracts/src/v0.8/ChainlinkClient.sol\":2065:2068  req */\n      dup2\n        /* \"@chainlink/contracts/src/v0.8/ChainlinkClient.sol\":2080:2086  specId */\n      dup7\n        /* \"@chainlink/contracts/src/v0.8/ChainlinkClient.sol\":2088:2100  callbackAddr */\n      dup7\n        /* \"@chainlink/contracts/src/v0.8/ChainlinkClient.sol\":2102:2127  callbackFunctionSignature */\n      dup7\n        /* \"@chainlink/contracts/src/v0.8/ChainlinkClient.sol\":2065:2079  req.initialize */\n      tag_132\n        /* \"@chainlink/contracts/src/v0.8/ChainlinkClient.sol\":2065:2128  req.initialize(specId, callbackAddr, callbackFunctionSignature) */\n      jump\t// in\n    tag_131:\n        /* \"@chainlink/contracts/src/v0.8/ChainlinkClient.sol\":2058:2128  return req.initialize(specId, callbackAddr, callbackFunctionSignature) */\n      swap6\n        /* \"@chainlink/contracts/src/v0.8/ChainlinkClient.sol\":1850:2133  function buildChainlinkRequest(... */\n      swap5\n      pop\n      pop\n      pop\n      pop\n      pop\n      jump\t// out\n        /* \"@chainlink/contracts/src/v0.8/Chainlink.sol\":1951:2126  function add(... */\n    tag_81:\n        /* \"@chainlink/contracts/src/v0.8/Chainlink.sol\":2061:2069  self.buf */\n      0x80\n      dup4\n      add\n      mload\n        /* \"@chainlink/contracts/src/v0.8/Chainlink.sol\":2061:2087  self.buf.encodeString(key) */\n      tag_134\n      swap1\n        /* \"@chainlink/contracts/src/v0.8/Chainlink.sol\":2083:2086  key */\n      dup4\n        /* \"@chainlink/contracts/src/v0.8/Chainlink.sol\":2061:2082  self.buf.encodeString */\n      tag_135\n        /* \"@chainlink/contracts/src/v0.8/Chainlink.sol\":2061:2087  self.buf.encodeString(key) */\n      jump\t// in\n    tag_134:\n        /* \"@chainlink/contracts/src/v0.8/Chainlink.sol\":2093:2101  self.buf */\n      0x80\n      dup4\n      add\n      mload\n        /* \"@chainlink/contracts/src/v0.8/Chainlink.sol\":2093:2121  self.buf.encodeString(value) */\n      tag_136\n      swap1\n        /* \"@chainlink/contracts/src/v0.8/Chainlink.sol\":2115:2120  value */\n      dup3\n        /* \"@chainlink/contracts/src/v0.8/Chainlink.sol\":2093:2114  self.buf.encodeString */\n      tag_135\n        /* \"@chainlink/contracts/src/v0.8/Chainlink.sol\":2093:2121  self.buf.encodeString(value) */\n      jump\t// in\n    tag_136:\n        /* \"@chainlink/contracts/src/v0.8/Chainlink.sol\":1951:2126  function add(... */\n      pop\n      pop\n      pop\n      jump\t// out\n        /* \"@chainlink/contracts/src/v0.8/ChainlinkClient.sol\":2992:3169  function sendChainlinkRequest(Chainlink.Request memory req, uint256 payment) internal returns (bytes32) {... */\n    tag_89:\n        /* \"@chainlink/contracts/src/v0.8/ChainlinkClient.sol\":3140:3148  s_oracle */\n      sload(0x03)\n        /* \"@chainlink/contracts/src/v0.8/ChainlinkClient.sol\":3087:3094  bytes32 */\n      0x00\n      swap1\n        /* \"@chainlink/contracts/src/v0.8/ChainlinkClient.sol\":3109:3164  sendChainlinkRequestTo(address(s_oracle), req, payment) */\n      tag_138\n      swap1\n        /* \"@chainlink/contracts/src/v0.8/ChainlinkClient.sol\":3140:3148  s_oracle */\n      0xffffffffffffffffffffffffffffffffffffffff\n      and\n        /* \"@chainlink/contracts/src/v0.8/ChainlinkClient.sol\":3151:3154  req */\n      dup5\n        /* \"@chainlink/contracts/src/v0.8/ChainlinkClient.sol\":3156:3163  payment */\n      dup5\n        /* \"@chainlink/contracts/src/v0.8/ChainlinkClient.sol\":3109:3131  sendChainlinkRequestTo */\n      tag_139\n        /* \"@chainlink/contracts/src/v0.8/ChainlinkClient.sol\":3109:3164  sendChainlinkRequestTo(address(s_oracle), req, payment) */\n      jump\t// in\n    tag_138:\n        /* \"@chainlink/contracts/src/v0.8/ChainlinkClient.sol\":3102:3164  return sendChainlinkRequestTo(address(s_oracle), req, payment) */\n      swap1\n      pop\n        /* \"@chainlink/contracts/src/v0.8/ChainlinkClient.sol\":2992:3169  function sendChainlinkRequest(Chainlink.Request memory req, uint256 payment) internal returns (bytes32) {... */\n    tag_137:\n      swap3\n      swap2\n      pop\n      pop\n      jump\t// out\n        /* \"@chainlink/contracts/src/v0.8/ConfirmedOwnerWithProposal.sol\":1730:1841  function _validateOwnership() internal view {... */\n    tag_97:\n        /* \"@chainlink/contracts/src/v0.8/ConfirmedOwnerWithProposal.sol\":1802:1809  s_owner */\n      and(0xffffffffffffffffffffffffffffffffffffffff, sload(0x06))\n        /* \"@chainlink/contracts/src/v0.8/ConfirmedOwnerWithProposal.sol\":1788:1798  msg.sender */\n      caller\n        /* \"@chainlink/contracts/src/v0.8/ConfirmedOwnerWithProposal.sol\":1788:1809  msg.sender == s_owner */\n      eq\n        /* \"@chainlink/contracts/src/v0.8/ConfirmedOwnerWithProposal.sol\":1780:1836  require(msg.sender == s_owner, \"Only callable by owner\") */\n      tag_141\n      jumpi\n      mload(0x40)\n      0x08c379a000000000000000000000000000000000000000000000000000000000\n      dup2\n      mstore\n        /* \"#utility.yul\":5058:5060   */\n      0x20\n        /* \"@chainlink/contracts/src/v0.8/ConfirmedOwnerWithProposal.sol\":1780:1836  require(msg.sender == s_owner, \"Only callable by owner\") */\n      0x04\n      dup3\n      add\n        /* \"#utility.yul\":5040:5061   */\n      mstore\n        /* \"#utility.yul\":5097:5099   */\n      0x16\n        /* \"#utility.yul\":5077:5095   */\n      0x24\n      dup3\n      add\n        /* \"#utility.yul\":5070:5100   */\n      mstore\n        /* \"#utility.yul\":5136:5160   */\n      0x4f6e6c792063616c6c61626c65206279206f776e657200000000000000000000\n        /* \"#utility.yul\":5116:5134   */\n      0x44\n      dup3\n      add\n        /* \"#utility.yul\":5109:5161   */\n      mstore\n        /* \"#utility.yul\":5178:5196   */\n      0x64\n      add\n        /* \"@chainlink/contracts/src/v0.8/ConfirmedOwnerWithProposal.sol\":1780:1836  require(msg.sender == s_owner, \"Only callable by owner\") */\n      tag_66\n        /* \"#utility.yul\":4856:5202   */\n      jump\n        /* \"@chainlink/contracts/src/v0.8/ConfirmedOwnerWithProposal.sol\":1780:1836  require(msg.sender == s_owner, \"Only callable by owner\") */\n    tag_141:\n        /* \"@chainlink/contracts/src/v0.8/ConfirmedOwnerWithProposal.sol\":1730:1841  function _validateOwnership() internal view {... */\n      jump\t// out\n        /* \"@chainlink/contracts/src/v0.8/ConfirmedOwnerWithProposal.sol\":1497:1685  function _transferOwnership(address to) private {... */\n    tag_126:\n        /* \"@chainlink/contracts/src/v0.8/ConfirmedOwnerWithProposal.sol\":1565:1575  msg.sender */\n      caller\n        /* \"@chainlink/contracts/src/v0.8/ConfirmedOwnerWithProposal.sol\":1559:1575  to != msg.sender */\n      0xffffffffffffffffffffffffffffffffffffffff\n      dup3\n      and\n      sub\n        /* \"@chainlink/contracts/src/v0.8/ConfirmedOwnerWithProposal.sol\":1551:1603  require(to != msg.sender, \"Cannot transfer to self\") */\n      tag_146\n      jumpi\n      mload(0x40)\n      0x08c379a000000000000000000000000000000000000000000000000000000000\n      dup2\n      mstore\n        /* \"#utility.yul\":5409:5411   */\n      0x20\n        /* \"@chainlink/contracts/src/v0.8/ConfirmedOwnerWithProposal.sol\":1551:1603  require(to != msg.sender, \"Cannot transfer to self\") */\n      0x04\n      dup3\n      add\n        /* \"#utility.yul\":5391:5412   */\n      mstore\n        /* \"#utility.yul\":5448:5450   */\n      0x17\n        /* \"#utility.yul\":5428:5446   */\n      0x24\n      dup3\n      add\n        /* \"#utility.yul\":5421:5451   */\n      mstore\n        /* \"#utility.yul\":5487:5512   */\n      0x43616e6e6f74207472616e7366657220746f2073656c66000000000000000000\n        /* \"#utility.yul\":5467:5485   */\n      0x44\n      dup3\n      add\n        /* \"#utility.yul\":5460:5513   */\n      mstore\n        /* \"#utility.yul\":5530:5548   */\n      0x64\n      add\n        /* \"@chainlink/contracts/src/v0.8/ConfirmedOwnerWithProposal.sol\":1551:1603  require(to != msg.sender, \"Cannot transfer to self\") */\n      tag_66\n        /* \"#utility.yul\":5207:5554   */\n      jump\n        /* \"@chainlink/contracts/src/v0.8/ConfirmedOwnerWithProposal.sol\":1551:1603  require(to != msg.sender, \"Cannot transfer to self\") */\n    tag_146:\n        /* \"@chainlink/contracts/src/v0.8/ConfirmedOwnerWithProposal.sol\":1610:1624  s_pendingOwner */\n      0x07\n        /* \"@chainlink/contracts/src/v0.8/ConfirmedOwnerWithProposal.sol\":1610:1629  s_pendingOwner = to */\n      dup1\n      sload\n      0xffffffffffffffffffffffff0000000000000000000000000000000000000000\n      and\n      0xffffffffffffffffffffffffffffffffffffffff\n      dup4\n      dup2\n      and\n      swap2\n      dup3\n      or\n      swap1\n      swap3\n      sstore\n        /* \"@chainlink/contracts/src/v0.8/ConfirmedOwnerWithProposal.sol\":1668:1675  s_owner */\n      sload(0x06)\n        /* \"@chainlink/contracts/src/v0.8/ConfirmedOwnerWithProposal.sol\":1641:1680  OwnershipTransferRequested(s_owner, to) */\n      mload(0x40)\n        /* \"@chainlink/contracts/src/v0.8/ConfirmedOwnerWithProposal.sol\":1610:1629  s_pendingOwner = to */\n      swap2\n      swap3\n        /* \"@chainlink/contracts/src/v0.8/ConfirmedOwnerWithProposal.sol\":1668:1675  s_owner */\n      and\n      swap1\n        /* \"@chainlink/contracts/src/v0.8/ConfirmedOwnerWithProposal.sol\":1641:1680  OwnershipTransferRequested(s_owner, to) */\n      0xed8889f560326eb138920d842192f0eb3dd22b4f139c87a2c57538e05bae1278\n      swap1\n      0x00\n      swap1\n      log3\n        /* \"@chainlink/contracts/src/v0.8/ConfirmedOwnerWithProposal.sol\":1497:1685  function _transferOwnership(address to) private {... */\n      pop\n      jump\t// out\n        /* \"@chainlink/contracts/src/v0.8/Chainlink.sol\":987:1338  function initialize(... */\n    tag_132:\n        /* \"@chainlink/contracts/src/v0.8/Chainlink.sol\":1129:1153  Chainlink.Request memory */\n      tag_149\n      0x40\n      dup1\n      mload\n      0xa0\n      dup2\n      add\n      dup3\n      mstore\n      0x00\n      dup1\n      dup3\n      mstore\n      0x20\n      dup1\n      dup4\n      add\n      dup3\n      swap1\n      mstore\n      dup3\n      dup5\n      add\n      dup3\n      swap1\n      mstore\n      0x60\n      dup1\n      dup5\n      add\n      dup4\n      swap1\n      mstore\n      dup5\n      mload\n      dup1\n      dup7\n      add\n      swap1\n      swap6\n      mstore\n      dup5\n      mstore\n      dup4\n      add\n      mstore\n      swap1\n      0x80\n      dup3\n      add\n      mstore\n      swap1\n      jump\n    tag_149:\n        /* \"@chainlink/contracts/src/v0.8/Chainlink.sol\":1161:1210  BufferChainlink.init(self.buf, defaultBufferSize) */\n      tag_151\n        /* \"@chainlink/contracts/src/v0.8/Chainlink.sol\":1182:1186  self */\n      dup6\n        /* \"@chainlink/contracts/src/v0.8/Chainlink.sol\":1182:1190  self.buf */\n      0x80\n      add\n      mload\n        /* \"@chainlink/contracts/src/v0.8/Chainlink.sol\":361:364  256 */\n      0x0100\n        /* \"@chainlink/contracts/src/v0.8/Chainlink.sol\":1161:1181  BufferChainlink.init */\n      tag_152\n        /* \"@chainlink/contracts/src/v0.8/Chainlink.sol\":1161:1210  BufferChainlink.init(self.buf, defaultBufferSize) */\n      jump\t// in\n    tag_151:\n      pop\n      pop\n        /* \"@chainlink/contracts/src/v0.8/Chainlink.sol\":1216:1231  self.id = jobId */\n      dup3\n      dup5\n      mstore\n        /* \"@chainlink/contracts/src/v0.8/Chainlink.sol\":1237:1272  self.callbackAddress = callbackAddr */\n      0xffffffffffffffffffffffffffffffffffffffff\n      dup3\n      and\n        /* \"@chainlink/contracts/src/v0.8/Chainlink.sol\":1237:1257  self.callbackAddress */\n      0x20\n      dup6\n      add\n        /* \"@chainlink/contracts/src/v0.8/Chainlink.sol\":1237:1272  self.callbackAddress = callbackAddr */\n      mstore\n        /* \"@chainlink/contracts/src/v0.8/Chainlink.sol\":1278:1316  self.callbackFunctionId = callbackFunc */\n      0xffffffff00000000000000000000000000000000000000000000000000000000\n      dup2\n      and\n        /* \"@chainlink/contracts/src/v0.8/Chainlink.sol\":1278:1301  self.callbackFunctionId */\n      0x40\n      dup6\n      add\n        /* \"@chainlink/contracts/src/v0.8/Chainlink.sol\":1278:1316  self.callbackFunctionId = callbackFunc */\n      mstore\n        /* \"@chainlink/contracts/src/v0.8/Chainlink.sol\":1216:1220  self */\n      dup4\n        /* \"@chainlink/contracts/src/v0.8/Chainlink.sol\":987:1338  function initialize(... */\n    tag_150:\n      swap5\n      swap4\n      pop\n      pop\n      pop\n      pop\n      jump\t// out\n        /* \"@chainlink/contracts/src/v0.8/vendor/CBORChainlink.sol\":2777:2981  function encodeString(BufferChainlink.buffer memory buf, string memory value) internal pure {... */\n    tag_135:\n        /* \"@chainlink/contracts/src/v0.8/vendor/CBORChainlink.sol\":2875:2946  encodeFixedNumeric(buf, MAJOR_TYPE_STRING, uint64(bytes(value).length)) */\n      tag_154\n        /* \"@chainlink/contracts/src/v0.8/vendor/CBORChainlink.sol\":2894:2897  buf */\n      dup3\n        /* \"@chainlink/contracts/src/v0.8/vendor/CBORChainlink.sol\":383:384  3 */\n      0x03\n        /* \"@chainlink/contracts/src/v0.8/vendor/CBORChainlink.sol\":2931:2936  value */\n      dup4\n        /* \"@chainlink/contracts/src/v0.8/vendor/CBORChainlink.sol\":2925:2944  bytes(value).length */\n      mload\n        /* \"@chainlink/contracts/src/v0.8/vendor/CBORChainlink.sol\":2875:2893  encodeFixedNumeric */\n      tag_155\n        /* \"@chainlink/contracts/src/v0.8/vendor/CBORChainlink.sol\":2875:2946  encodeFixedNumeric(buf, MAJOR_TYPE_STRING, uint64(bytes(value).length)) */\n      jump\t// in\n    tag_154:\n        /* \"@chainlink/contracts/src/v0.8/vendor/CBORChainlink.sol\":2952:2976  buf.append(bytes(value)) */\n      tag_136\n        /* \"@chainlink/contracts/src/v0.8/vendor/CBORChainlink.sol\":2952:2955  buf */\n      dup3\n        /* \"@chainlink/contracts/src/v0.8/vendor/CBORChainlink.sol\":2969:2974  value */\n      dup3\n        /* \"@chainlink/contracts/src/v0.8/vendor/CBORChainlink.sol\":2952:2962  buf.append */\n      tag_157\n        /* \"@chainlink/contracts/src/v0.8/vendor/CBORChainlink.sol\":2952:2976  buf.append(bytes(value)) */\n      jump\t// in\n        /* \"@chainlink/contracts/src/v0.8/ChainlinkClient.sol\":3687:4443  function sendChainlinkRequestTo(... */\n    tag_139:\n        /* \"@chainlink/contracts/src/v0.8/ChainlinkClient.sol\":3864:3878  s_requestCount */\n      sload(0x04)\n        /* \"@chainlink/contracts/src/v0.8/ChainlinkClient.sol\":3823:3840  bytes32 requestId */\n      0x00\n      swap1\n        /* \"@chainlink/contracts/src/v0.8/ChainlinkClient.sol\":3901:3910  nonce + 1 */\n      tag_159\n        /* \"@chainlink/contracts/src/v0.8/ChainlinkClient.sol\":3864:3878  s_requestCount */\n      dup2\n        /* \"@chainlink/contracts/src/v0.8/ChainlinkClient.sol\":3909:3910  1 */\n      0x01\n        /* \"@chainlink/contracts/src/v0.8/ChainlinkClient.sol\":3901:3910  nonce + 1 */\n      tag_160\n      jump\t// in\n    tag_159:\n        /* \"@chainlink/contracts/src/v0.8/ChainlinkClient.sol\":3884:3898  s_requestCount */\n      0x04\n        /* \"@chainlink/contracts/src/v0.8/ChainlinkClient.sol\":3884:3910  s_requestCount = nonce + 1 */\n      sstore\n        /* \"@chainlink/contracts/src/v0.8/ChainlinkClient.sol\":4245:4251  req.id */\n      dup4\n      mload\n        /* \"@chainlink/contracts/src/v0.8/ChainlinkClient.sol\":4280:4302  req.callbackFunctionId */\n      0x40\n      dup1\n      dup7\n      add\n      mload\n        /* \"@chainlink/contracts/src/v0.8/ChainlinkClient.sol\":4350:4357  req.buf */\n      0x80\n      dup8\n      add\n      mload\n        /* \"@chainlink/contracts/src/v0.8/ChainlinkClient.sol\":4350:4361  req.buf.buf */\n      mload\n        /* \"@chainlink/contracts/src/v0.8/ChainlinkClient.sol\":3946:4367  abi.encodeWithSelector(... */\n      swap2\n      mload\n        /* \"@chainlink/contracts/src/v0.8/ChainlinkClient.sol\":3916:3943  bytes memory encodedRequest */\n      0x00\n      swap4\n        /* \"@chainlink/contracts/src/v0.8/ChainlinkClient.sol\":3976:4024  ChainlinkRequestInterface.oracleRequest.selector */\n      0x4042994600000000000000000000000000000000000000000000000000000000\n      swap4\n        /* \"@chainlink/contracts/src/v0.8/ChainlinkClient.sol\":3946:4367  abi.encodeWithSelector(... */\n      tag_161\n      swap4\n        /* \"@chainlink/contracts/src/v0.8/ChainlinkClient.sol\":3916:3943  bytes memory encodedRequest */\n      dup7\n      swap4\n      dup5\n      swap4\n        /* \"@chainlink/contracts/src/v0.8/ChainlinkClient.sol\":4245:4251  req.id */\n      swap3\n        /* \"@chainlink/contracts/src/v0.8/ChainlinkClient.sol\":4267:4271  this */\n      address\n      swap3\n        /* \"@chainlink/contracts/src/v0.8/ChainlinkClient.sol\":4280:4302  req.callbackFunctionId */\n      swap2\n        /* \"@chainlink/contracts/src/v0.8/ChainlinkClient.sol\":4310:4315  nonce */\n      dup11\n      swap2\n        /* \"@chainlink/contracts/src/v0.8/ChainlinkClient.sol\":837:838  1 */\n      0x01\n      swap2\n        /* \"@chainlink/contracts/src/v0.8/ChainlinkClient.sol\":3946:4367  abi.encodeWithSelector(... */\n      0x24\n      add\n      tag_162\n      jump\t// in\n    tag_161:\n      0x40\n      dup1\n      mload\n      0xffffffffffffffffffffffffffffffffffffffffffffffffffffffffffffffe0\n      dup2\n      dup5\n      sub\n      add\n      dup2\n      mstore\n      swap2\n      swap1\n      mstore\n      0x20\n      dup2\n      add\n      dup1\n      mload\n      0xffffffffffffffffffffffffffffffffffffffffffffffffffffffff\n      and\n      0xffffffff00000000000000000000000000000000000000000000000000000000\n      swap1\n      swap4\n      and\n      swap3\n      swap1\n      swap3\n      or\n      swap1\n      swap2\n      mstore\n      swap1\n      pop\n        /* \"@chainlink/contracts/src/v0.8/ChainlinkClient.sol\":4380:4438  _rawRequest(oracleAddress, nonce, payment, encodedRequest) */\n      tag_163\n        /* \"@chainlink/contracts/src/v0.8/ChainlinkClient.sol\":4392:4405  oracleAddress */\n      dup7\n        /* \"@chainlink/contracts/src/v0.8/ChainlinkClient.sol\":4407:4412  nonce */\n      dup4\n        /* \"@chainlink/contracts/src/v0.8/ChainlinkClient.sol\":4414:4421  payment */\n      dup7\n        /* \"@chainlink/contracts/src/v0.8/ChainlinkClient.sol\":3946:4367  abi.encodeWithSelector(... */\n      dup5\n        /* \"@chainlink/contracts/src/v0.8/ChainlinkClient.sol\":4380:4391  _rawRequest */\n      tag_164\n        /* \"@chainlink/contracts/src/v0.8/ChainlinkClient.sol\":4380:4438  _rawRequest(oracleAddress, nonce, payment, encodedRequest) */\n      jump\t// in\n    tag_163:\n        /* \"@chainlink/contracts/src/v0.8/ChainlinkClient.sol\":4373:4438  return _rawRequest(oracleAddress, nonce, payment, encodedRequest) */\n      swap7\n        /* \"@chainlink/contracts/src/v0.8/ChainlinkClient.sol\":3687:4443  function sendChainlinkRequestTo(... */\n      swap6\n      pop\n      pop\n      pop\n      pop\n      pop\n      pop\n      jump\t// out\n        /* \"@chainlink/contracts/src/v0.8/vendor/BufferChainlink.sol\":1001:1400  function init(buffer memory buf, uint256 capacity) internal pure returns (buffer memory) {... */\n    tag_152:\n      0x40\n      dup1\n      mload\n      dup1\n      dup3\n      add\n      swap1\n      swap2\n      mstore\n      0x60\n      dup2\n      mstore\n      0x00\n      0x20\n      dup3\n      add\n      mstore\n        /* \"@chainlink/contracts/src/v0.8/vendor/BufferChainlink.sol\":1100:1113  capacity % 32 */\n      tag_168\n        /* \"@chainlink/contracts/src/v0.8/vendor/BufferChainlink.sol\":1111:1113  32 */\n      0x20\n        /* \"@chainlink/contracts/src/v0.8/vendor/BufferChainlink.sol\":1100:1108  capacity */\n      dup4\n        /* \"@chainlink/contracts/src/v0.8/vendor/BufferChainlink.sol\":1100:1113  capacity % 32 */\n      tag_169\n      jump\t// in\n    tag_168:\n        /* \"@chainlink/contracts/src/v0.8/vendor/BufferChainlink.sol\":1100:1118  capacity % 32 != 0 */\n      iszero\n        /* \"@chainlink/contracts/src/v0.8/vendor/BufferChainlink.sol\":1096:1167  if (capacity % 32 != 0) {... */\n      tag_170\n      jumpi\n        /* \"@chainlink/contracts/src/v0.8/vendor/BufferChainlink.sol\":1146:1159  capacity % 32 */\n      tag_171\n        /* \"@chainlink/contracts/src/v0.8/vendor/BufferChainlink.sol\":1157:1159  32 */\n      0x20\n        /* \"@chainlink/contracts/src/v0.8/vendor/BufferChainlink.sol\":1146:1154  capacity */\n      dup4\n        /* \"@chainlink/contracts/src/v0.8/vendor/BufferChainlink.sol\":1146:1159  capacity % 32 */\n      tag_169\n      jump\t// in\n    tag_171:\n        /* \"@chainlink/contracts/src/v0.8/vendor/BufferChainlink.sol\":1140:1160  32 - (capacity % 32) */\n      tag_172\n      swap1\n        /* \"@chainlink/contracts/src/v0.8/vendor/BufferChainlink.sol\":1140:1142  32 */\n      0x20\n        /* \"@chainlink/contracts/src/v0.8/vendor/BufferChainlink.sol\":1140:1160  32 - (capacity % 32) */\n      tag_173\n      jump\t// in\n    tag_172:\n        /* \"@chainlink/contracts/src/v0.8/vendor/BufferChainlink.sol\":1128:1160  capacity += 32 - (capacity % 32) */\n      tag_174\n      swap1\n      dup4\n      tag_160\n      jump\t// in\n    tag_174:\n      swap2\n      pop\n        /* \"@chainlink/contracts/src/v0.8/vendor/BufferChainlink.sol\":1096:1167  if (capacity % 32 != 0) {... */\n    tag_170:\n      pop\n        /* \"@chainlink/contracts/src/v0.8/vendor/BufferChainlink.sol\":1214:1226  buf.capacity */\n      0x20\n      dup3\n      dup2\n      add\n        /* \"@chainlink/contracts/src/v0.8/vendor/BufferChainlink.sol\":1214:1237  buf.capacity = capacity */\n      dup3\n      swap1\n      mstore\n        /* \"@chainlink/contracts/src/v0.8/vendor/BufferChainlink.sol\":1277:1281  0x40 */\n      0x40\n        /* \"@chainlink/contracts/src/v0.8/vendor/BufferChainlink.sol\":1271:1282  mload(0x40) */\n      dup1\n      mload\n        /* \"@chainlink/contracts/src/v0.8/vendor/BufferChainlink.sol\":1289:1305  mstore(buf, ptr) */\n      dup1\n      dup6\n      mstore\n      0x00\n        /* \"@chainlink/contracts/src/v0.8/vendor/BufferChainlink.sol\":1312:1326  mstore(ptr, 0) */\n      dup2\n      mstore\n        /* \"@chainlink/contracts/src/v0.8/vendor/BufferChainlink.sol\":1354:1372  add(ptr, capacity) */\n      swap1\n      swap3\n      add\n        /* \"@chainlink/contracts/src/v0.8/vendor/BufferChainlink.sol\":1346:1373  add(32, add(ptr, capacity)) */\n      add\n        /* \"@chainlink/contracts/src/v0.8/vendor/BufferChainlink.sol\":1333:1374  mstore(0x40, add(32, add(ptr, capacity))) */\n      swap1\n      mstore\n        /* \"@chainlink/contracts/src/v0.8/vendor/BufferChainlink.sol\":1214:1226  buf.capacity */\n      swap1\n        /* \"@chainlink/contracts/src/v0.8/vendor/BufferChainlink.sol\":1001:1400  function init(buffer memory buf, uint256 capacity) internal pure returns (buffer memory) {... */\n      jump\t// out\n        /* \"@chainlink/contracts/src/v0.8/vendor/CBORChainlink.sol\":682:1307  function encodeFixedNumeric(BufferChainlink.buffer memory buf, uint8 major, uint64 value) private pure {... */\n    tag_155:\n        /* \"@chainlink/contracts/src/v0.8/vendor/CBORChainlink.sol\":803:805  23 */\n      0x17\n        /* \"@chainlink/contracts/src/v0.8/vendor/CBORChainlink.sol\":794:799  value */\n      dup2\n        /* \"@chainlink/contracts/src/v0.8/vendor/CBORChainlink.sol\":794:805  value <= 23 */\n      0xffffffffffffffff\n      and\n      gt\n        /* \"@chainlink/contracts/src/v0.8/vendor/CBORChainlink.sol\":791:1303  if(value <= 23) {... */\n      tag_176\n      jumpi\n        /* \"@chainlink/contracts/src/v0.8/vendor/CBORChainlink.sol\":815:859  buf.appendUint8(uint8((major << 5) | value)) */\n      tag_177\n        /* \"@chainlink/contracts/src/v0.8/vendor/CBORChainlink.sol\":815:818  buf */\n      dup4\n        /* \"@chainlink/contracts/src/v0.8/vendor/CBORChainlink.sol\":837:857  (major << 5) | value */\n      0xe0\n        /* \"@chainlink/contracts/src/v0.8/vendor/CBORChainlink.sol\":847:848  5 */\n      0x05\n        /* \"@chainlink/contracts/src/v0.8/vendor/CBORChainlink.sol\":838:848  major << 5 */\n      dup6\n      swap1\n      shl\n        /* \"@chainlink/contracts/src/v0.8/vendor/CBORChainlink.sol\":837:857  (major << 5) | value */\n      and\n      dup4\n      or\n        /* \"@chainlink/contracts/src/v0.8/vendor/CBORChainlink.sol\":815:830  buf.appendUint8 */\n      tag_178\n        /* \"@chainlink/contracts/src/v0.8/vendor/CBORChainlink.sol\":815:859  buf.appendUint8(uint8((major << 5) | value)) */\n      jump\t// in\n    tag_177:\n      pop\n        /* \"@chainlink/contracts/src/v0.8/Chainlink.sol\":1951:2126  function add(... */\n      pop\n      pop\n      pop\n      jump\t// out\n        /* \"@chainlink/contracts/src/v0.8/vendor/CBORChainlink.sol\":791:1303  if(value <= 23) {... */\n    tag_176:\n        /* \"@chainlink/contracts/src/v0.8/vendor/CBORChainlink.sol\":885:889  0xFF */\n      0xff\n        /* \"@chainlink/contracts/src/v0.8/vendor/CBORChainlink.sol\":876:881  value */\n      dup2\n        /* \"@chainlink/contracts/src/v0.8/vendor/CBORChainlink.sol\":876:889  value <= 0xFF */\n      0xffffffffffffffff\n      and\n      gt\n        /* \"@chainlink/contracts/src/v0.8/vendor/CBORChainlink.sol\":872:1303  if (value <= 0xFF) {... */\n      tag_180\n      jumpi\n        /* \"@chainlink/contracts/src/v0.8/vendor/CBORChainlink.sol\":899:940  buf.appendUint8(uint8((major << 5) | 24)) */\n      tag_181\n        /* \"@chainlink/contracts/src/v0.8/vendor/CBORChainlink.sol\":899:902  buf */\n      dup4\n        /* \"@chainlink/contracts/src/v0.8/vendor/CBORChainlink.sol\":936:938  24 */\n      0x18\n        /* \"@chainlink/contracts/src/v0.8/vendor/CBORChainlink.sol\":922:932  major << 5 */\n      0x1fe0\n        /* \"@chainlink/contracts/src/v0.8/vendor/CBORChainlink.sol\":931:932  5 */\n      0x05\n        /* \"@chainlink/contracts/src/v0.8/vendor/CBORChainlink.sol\":922:932  major << 5 */\n      dup7\n      swap1\n      shl\n      and\n        /* \"@chainlink/contracts/src/v0.8/vendor/CBORChainlink.sol\":921:938  (major << 5) | 24 */\n      or\n        /* \"@chainlink/contracts/src/v0.8/vendor/CBORChainlink.sol\":899:914  buf.appendUint8 */\n      tag_178\n        /* \"@chainlink/contracts/src/v0.8/vendor/CBORChainlink.sol\":899:940  buf.appendUint8(uint8((major << 5) | 24)) */\n      jump\t// in\n    tag_181:\n      pop\n        /* \"@chainlink/contracts/src/v0.8/vendor/CBORChainlink.sol\":948:971  buf.appendInt(value, 1) */\n      tag_177\n        /* \"@chainlink/contracts/src/v0.8/vendor/CBORChainlink.sol\":948:951  buf */\n      dup4\n        /* \"@chainlink/contracts/src/v0.8/vendor/CBORChainlink.sol\":948:971  buf.appendInt(value, 1) */\n      0xffffffffffffffff\n      dup4\n      and\n        /* \"@chainlink/contracts/src/v0.8/vendor/CBORChainlink.sol\":969:970  1 */\n      0x01\n        /* \"@chainlink/contracts/src/v0.8/vendor/CBORChainlink.sol\":948:961  buf.appendInt */\n      tag_183\n        /* \"@chainlink/contracts/src/v0.8/vendor/CBORChainlink.sol\":948:971  buf.appendInt(value, 1) */\n      jump\t// in\n        /* \"@chainlink/contracts/src/v0.8/vendor/CBORChainlink.sol\":872:1303  if (value <= 0xFF) {... */\n    tag_180:\n        /* \"@chainlink/contracts/src/v0.8/vendor/CBORChainlink.sol\":997:1003  0xFFFF */\n      0xffff\n        /* \"@chainlink/contracts/src/v0.8/vendor/CBORChainlink.sol\":988:993  value */\n      dup2\n        /* \"@chainlink/contracts/src/v0.8/vendor/CBORChainlink.sol\":988:1003  value <= 0xFFFF */\n      0xffffffffffffffff\n      and\n      gt\n        /* \"@chainlink/contracts/src/v0.8/vendor/CBORChainlink.sol\":984:1303  if (value <= 0xFFFF) {... */\n      tag_185\n      jumpi\n        /* \"@chainlink/contracts/src/v0.8/vendor/CBORChainlink.sol\":1013:1054  buf.appendUint8(uint8((major << 5) | 25)) */\n      tag_186\n        /* \"@chainlink/contracts/src/v0.8/vendor/CBORChainlink.sol\":1013:1016  buf */\n      dup4\n        /* \"@chainlink/contracts/src/v0.8/vendor/CBORChainlink.sol\":1050:1052  25 */\n      0x19\n        /* \"@chainlink/contracts/src/v0.8/vendor/CBORChainlink.sol\":1036:1046  major << 5 */\n      0x1fe0\n        /* \"@chainlink/contracts/src/v0.8/vendor/CBORChainlink.sol\":1045:1046  5 */\n      0x05\n        /* \"@chainlink/contracts/src/v0.8/vendor/CBORChainlink.sol\":1036:1046  major << 5 */\n      dup7\n      swap1\n      shl\n      and\n        /* \"@chainlink/contracts/src/v0.8/vendor/CBORChainlink.sol\":1035:1052  (major << 5) | 25 */\n      or\n        /* \"@chainlink/contracts/src/v0.8/vendor/CBORChainlink.sol\":1013:1028  buf.appendUint8 */\n      tag_178\n        /* \"@chainlink/contracts/src/v0.8/vendor/CBORChainlink.sol\":1013:1054  buf.appendUint8(uint8((major << 5) | 25)) */\n      jump\t// in\n    tag_186:\n      pop\n        /* \"@chainlink/contracts/src/v0.8/vendor/CBORChainlink.sol\":1062:1085  buf.appendInt(value, 2) */\n      tag_177\n        /* \"@chainlink/contracts/src/v0.8/vendor/CBORChainlink.sol\":1062:1065  buf */\n      dup4\n        /* \"@chainlink/contracts/src/v0.8/vendor/CBORChainlink.sol\":1062:1085  buf.appendInt(value, 2) */\n      0xffffffffffffffff\n      dup4\n      and\n        /* \"@chainlink/contracts/src/v0.8/vendor/CBORChainlink.sol\":1083:1084  2 */\n      0x02\n        /* \"@chainlink/contracts/src/v0.8/vendor/CBORChainlink.sol\":1062:1075  buf.appendInt */\n      tag_183\n        /* \"@chainlink/contracts/src/v0.8/vendor/CBORChainlink.sol\":1062:1085  buf.appendInt(value, 2) */\n      jump\t// in\n        /* \"@chainlink/contracts/src/v0.8/vendor/CBORChainlink.sol\":984:1303  if (value <= 0xFFFF) {... */\n    tag_185:\n        /* \"@chainlink/contracts/src/v0.8/vendor/CBORChainlink.sol\":1111:1121  0xFFFFFFFF */\n      0xffffffff\n        /* \"@chainlink/contracts/src/v0.8/vendor/CBORChainlink.sol\":1102:1107  value */\n      dup2\n        /* \"@chainlink/contracts/src/v0.8/vendor/CBORChainlink.sol\":1102:1121  value <= 0xFFFFFFFF */\n      0xffffffffffffffff\n      and\n      gt\n        /* \"@chainlink/contracts/src/v0.8/vendor/CBORChainlink.sol\":1098:1303  if (value <= 0xFFFFFFFF) {... */\n      tag_189\n      jumpi\n        /* \"@chainlink/contracts/src/v0.8/vendor/CBORChainlink.sol\":1131:1172  buf.appendUint8(uint8((major << 5) | 26)) */\n      tag_190\n        /* \"@chainlink/contracts/src/v0.8/vendor/CBORChainlink.sol\":1131:1134  buf */\n      dup4\n        /* \"@chainlink/contracts/src/v0.8/vendor/CBORChainlink.sol\":1168:1170  26 */\n      0x1a\n        /* \"@chainlink/contracts/src/v0.8/vendor/CBORChainlink.sol\":1154:1164  major << 5 */\n      0x1fe0\n        /* \"@chainlink/contracts/src/v0.8/vendor/CBORChainlink.sol\":1163:1164  5 */\n      0x05\n        /* \"@chainlink/contracts/src/v0.8/vendor/CBORChainlink.sol\":1154:1164  major << 5 */\n      dup7\n      swap1\n      shl\n      and\n        /* \"@chainlink/contracts/src/v0.8/vendor/CBORChainlink.sol\":1153:1170  (major << 5) | 26 */\n      or\n        /* \"@chainlink/contracts/src/v0.8/vendor/CBORChainlink.sol\":1131:1146  buf.appendUint8 */\n      tag_178\n        /* \"@chainlink/contracts/src/v0.8/vendor/CBORChainlink.sol\":1131:1172  buf.appendUint8(uint8((major << 5) | 26)) */\n      jump\t// in\n    tag_190:\n      pop\n        /* \"@chainlink/contracts/src/v0.8/vendor/CBORChainlink.sol\":1180:1203  buf.appendInt(value, 4) */\n      tag_177\n        /* \"@chainlink/contracts/src/v0.8/vendor/CBORChainlink.sol\":1180:1183  buf */\n      dup4\n        /* \"@chainlink/contracts/src/v0.8/vendor/CBORChainlink.sol\":1180:1203  buf.appendInt(value, 4) */\n      0xffffffffffffffff\n      dup4\n      and\n        /* \"@chainlink/contracts/src/v0.8/vendor/CBORChainlink.sol\":1201:1202  4 */\n      0x04\n        /* \"@chainlink/contracts/src/v0.8/vendor/CBORChainlink.sol\":1180:1193  buf.appendInt */\n      tag_183\n        /* \"@chainlink/contracts/src/v0.8/vendor/CBORChainlink.sol\":1180:1203  buf.appendInt(value, 4) */\n      jump\t// in\n        /* \"@chainlink/contracts/src/v0.8/vendor/CBORChainlink.sol\":1098:1303  if (value <= 0xFFFFFFFF) {... */\n    tag_189:\n        /* \"@chainlink/contracts/src/v0.8/vendor/CBORChainlink.sol\":1224:1265  buf.appendUint8(uint8((major << 5) | 27)) */\n      tag_193\n        /* \"@chainlink/contracts/src/v0.8/vendor/CBORChainlink.sol\":1224:1227  buf */\n      dup4\n        /* \"@chainlink/contracts/src/v0.8/vendor/CBORChainlink.sol\":1261:1263  27 */\n      0x1b\n        /* \"@chainlink/contracts/src/v0.8/vendor/CBORChainlink.sol\":1247:1257  major << 5 */\n      0x1fe0\n        /* \"@chainlink/contracts/src/v0.8/vendor/CBORChainlink.sol\":1256:1257  5 */\n      0x05\n        /* \"@chainlink/contracts/src/v0.8/vendor/CBORChainlink.sol\":1247:1257  major << 5 */\n      dup7\n      swap1\n      shl\n      and\n        /* \"@chainlink/contracts/src/v0.8/vendor/CBORChainlink.sol\":1246:1263  (major << 5) | 27 */\n      or\n        /* \"@chainlink/contracts/src/v0.8/vendor/CBORChainlink.sol\":1224:1239  buf.appendUint8 */\n      tag_178\n        /* \"@chainlink/contracts/src/v0.8/vendor/CBORChainlink.sol\":1224:1265  buf.appendUint8(uint8((major << 5) | 27)) */\n      jump\t// in\n    tag_193:\n      pop\n        /* \"@chainlink/contracts/src/v0.8/vendor/CBORChainlink.sol\":1273:1296  buf.appendInt(value, 8) */\n      tag_177\n        /* \"@chainlink/contracts/src/v0.8/vendor/CBORChainlink.sol\":1273:1276  buf */\n      dup4\n        /* \"@chainlink/contracts/src/v0.8/vendor/CBORChainlink.sol\":1273:1296  buf.appendInt(value, 8) */\n      0xffffffffffffffff\n      dup4\n      and\n        /* \"@chainlink/contracts/src/v0.8/vendor/CBORChainlink.sol\":1294:1295  8 */\n      0x08\n        /* \"@chainlink/contracts/src/v0.8/vendor/CBORChainlink.sol\":1273:1286  buf.appendInt */\n      tag_183\n        /* \"@chainlink/contracts/src/v0.8/vendor/CBORChainlink.sol\":1273:1296  buf.appendInt(value, 8) */\n      jump\t// in\n        /* \"@chainlink/contracts/src/v0.8/vendor/BufferChainlink.sol\":4692:4847  function append(buffer memory buf, bytes memory data) internal pure returns (buffer memory) {... */\n    tag_157:\n      0x40\n      dup1\n      mload\n      dup1\n      dup3\n      add\n      swap1\n      swap2\n      mstore\n      0x60\n      dup2\n      mstore\n      0x00\n      0x20\n      dup3\n      add\n      mstore\n        /* \"@chainlink/contracts/src/v0.8/vendor/BufferChainlink.sol\":4797:4842  write(buf, buf.buf.length, data, data.length) */\n      tag_138\n        /* \"@chainlink/contracts/src/v0.8/vendor/BufferChainlink.sol\":4803:4806  buf */\n      dup4\n        /* \"@chainlink/contracts/src/v0.8/vendor/BufferChainlink.sol\":4808:4811  buf */\n      dup5\n        /* \"@chainlink/contracts/src/v0.8/vendor/BufferChainlink.sol\":4808:4815  buf.buf */\n      0x00\n      add\n      mload\n        /* \"@chainlink/contracts/src/v0.8/vendor/BufferChainlink.sol\":4808:4822  buf.buf.length */\n      mload\n        /* \"@chainlink/contracts/src/v0.8/vendor/BufferChainlink.sol\":4824:4828  data */\n      dup5\n        /* \"@chainlink/contracts/src/v0.8/vendor/BufferChainlink.sol\":4830:4834  data */\n      dup6\n        /* \"@chainlink/contracts/src/v0.8/vendor/BufferChainlink.sol\":4830:4841  data.length */\n      mload\n        /* \"@chainlink/contracts/src/v0.8/vendor/BufferChainlink.sol\":4797:4802  write */\n      tag_198\n        /* \"@chainlink/contracts/src/v0.8/vendor/BufferChainlink.sol\":4797:4842  write(buf, buf.buf.length, data, data.length) */\n      jump\t// in\n        /* \"@chainlink/contracts/src/v0.8/ChainlinkClient.sol\":6629:7059  function _rawRequest(... */\n    tag_164:\n        /* \"@chainlink/contracts/src/v0.8/ChainlinkClient.sol\":6818:6847  abi.encodePacked(this, nonce) */\n      mload(0x40)\n        /* \"#utility.yul\":7391:7457   */\n      0xffffffffffffffffffffffffffffffffffffffff000000000000000000000000\n        /* \"@chainlink/contracts/src/v0.8/ChainlinkClient.sol\":6835:6839  this */\n      address\n        /* \"#utility.yul\":7378:7380   */\n      0x60\n        /* \"#utility.yul\":7374:7389   */\n      shl\n        /* \"#utility.yul\":7370:7458   */\n      and\n        /* \"@chainlink/contracts/src/v0.8/ChainlinkClient.sol\":6818:6847  abi.encodePacked(this, nonce) */\n      0x20\n      dup3\n      add\n        /* \"#utility.yul\":7358:7459   */\n      mstore\n        /* \"#utility.yul\":7475:7487   */\n      0x34\n      dup2\n      add\n        /* \"#utility.yul\":7468:7496   */\n      dup5\n      swap1\n      mstore\n        /* \"@chainlink/contracts/src/v0.8/ChainlinkClient.sol\":6771:6788  bytes32 requestId */\n      0x00\n      swap1\n        /* \"#utility.yul\":7512:7524   */\n      0x54\n      add\n        /* \"@chainlink/contracts/src/v0.8/ChainlinkClient.sol\":6818:6847  abi.encodePacked(this, nonce) */\n      0x40\n      dup1\n      mload\n      dup1\n      dup4\n      sub\n      0xffffffffffffffffffffffffffffffffffffffffffffffffffffffffffffffe0\n      add\n      dup2\n      mstore\n      dup3\n      dup3\n      mstore\n        /* \"@chainlink/contracts/src/v0.8/ChainlinkClient.sol\":6808:6848  keccak256(abi.encodePacked(this, nonce)) */\n      dup1\n      mload\n        /* \"@chainlink/contracts/src/v0.8/ChainlinkClient.sol\":6818:6847  abi.encodePacked(this, nonce) */\n      0x20\n        /* \"@chainlink/contracts/src/v0.8/ChainlinkClient.sol\":6808:6848  keccak256(abi.encodePacked(this, nonce)) */\n      swap2\n      dup3\n      add\n      keccak256\n        /* \"@chainlink/contracts/src/v0.8/ChainlinkClient.sol\":6854:6882  s_pendingRequests[requestId] */\n      0x00\n      dup2\n      dup2\n      mstore\n        /* \"@chainlink/contracts/src/v0.8/ChainlinkClient.sol\":6854:6871  s_pendingRequests */\n      0x05\n        /* \"@chainlink/contracts/src/v0.8/ChainlinkClient.sol\":6854:6882  s_pendingRequests[requestId] */\n      swap1\n      swap3\n      mstore\n      swap2\n      dup2\n      keccak256\n        /* \"@chainlink/contracts/src/v0.8/ChainlinkClient.sol\":6854:6898  s_pendingRequests[requestId] = oracleAddress */\n      dup1\n      sload\n      0xffffffffffffffffffffffff0000000000000000000000000000000000000000\n      and\n      0xffffffffffffffffffffffffffffffffffffffff\n      dup11\n      and\n      or\n      swap1\n      sstore\n        /* \"@chainlink/contracts/src/v0.8/ChainlinkClient.sol\":6808:6848  keccak256(abi.encodePacked(this, nonce)) */\n      swap1\n      swap3\n      pop\n      dup3\n      swap2\n        /* \"@chainlink/contracts/src/v0.8/ChainlinkClient.sol\":6909:6938  ChainlinkRequested(requestId) */\n      0xb5e6e01e79f91267dc17b4e6314d5d4d03593d2ceee0fbb452b750bd70ea5af9\n      swap2\n        /* \"@chainlink/contracts/src/v0.8/ChainlinkClient.sol\":6854:6882  s_pendingRequests[requestId] */\n      swap1\n        /* \"@chainlink/contracts/src/v0.8/ChainlinkClient.sol\":6909:6938  ChainlinkRequested(requestId) */\n      log2\n        /* \"@chainlink/contracts/src/v0.8/ChainlinkClient.sol\":6952:6958  s_link */\n      sload(0x02)\n        /* \"@chainlink/contracts/src/v0.8/ChainlinkClient.sol\":6952:7014  s_link.transferAndCall(oracleAddress, payment, encodedRequest) */\n      mload(0x40)\n      0x4000aea000000000000000000000000000000000000000000000000000000000\n      dup2\n      mstore\n        /* \"@chainlink/contracts/src/v0.8/ChainlinkClient.sol\":6952:6958  s_link */\n      0xffffffffffffffffffffffffffffffffffffffff\n      swap1\n      swap2\n      and\n      swap1\n        /* \"@chainlink/contracts/src/v0.8/ChainlinkClient.sol\":6952:6974  s_link.transferAndCall */\n      0x4000aea0\n      swap1\n        /* \"@chainlink/contracts/src/v0.8/ChainlinkClient.sol\":6952:7014  s_link.transferAndCall(oracleAddress, payment, encodedRequest) */\n      tag_202\n      swap1\n        /* \"@chainlink/contracts/src/v0.8/ChainlinkClient.sol\":6975:6988  oracleAddress */\n      dup9\n      swap1\n        /* \"@chainlink/contracts/src/v0.8/ChainlinkClient.sol\":6990:6997  payment */\n      dup8\n      swap1\n        /* \"@chainlink/contracts/src/v0.8/ChainlinkClient.sol\":6999:7013  encodedRequest */\n      dup8\n      swap1\n        /* \"@chainlink/contracts/src/v0.8/ChainlinkClient.sol\":6952:7014  s_link.transferAndCall(oracleAddress, payment, encodedRequest) */\n      0x04\n      add\n      tag_203\n      jump\t// in\n    tag_202:\n      0x20\n      mload(0x40)\n      dup1\n      dup4\n      sub\n      dup2\n      0x00\n      dup8\n      gas\n      call\n      iszero\n      dup1\n      iszero\n      tag_205\n      jumpi\n      returndatasize\n      0x00\n      dup1\n      returndatacopy\n      revert(0x00, returndatasize)\n    tag_205:\n      pop\n      pop\n      pop\n      pop\n      mload(0x40)\n      returndatasize\n      not(0x1f)\n      0x1f\n      dup3\n      add\n      and\n      dup3\n      add\n      dup1\n      0x40\n      mstore\n      pop\n      dup2\n      add\n      swap1\n      tag_206\n      swap2\n      swap1\n      tag_111\n      jump\t// in\n    tag_206:\n        /* \"@chainlink/contracts/src/v0.8/ChainlinkClient.sol\":6944:7054  require(s_link.transferAndCall(oracleAddress, payment, encodedRequest), \"unable to transferAndCall to oracle\") */\n      tag_150\n      jumpi\n      mload(0x40)\n      0x08c379a000000000000000000000000000000000000000000000000000000000\n      dup2\n      mstore\n        /* \"#utility.yul\":8151:8153   */\n      0x20\n        /* \"@chainlink/contracts/src/v0.8/ChainlinkClient.sol\":6944:7054  require(s_link.transferAndCall(oracleAddress, payment, encodedRequest), \"unable to transferAndCall to oracle\") */\n      0x04\n      dup3\n      add\n        /* \"#utility.yul\":8133:8154   */\n      mstore\n        /* \"#utility.yul\":8190:8192   */\n      0x23\n        /* \"#utility.yul\":8170:8188   */\n      0x24\n      dup3\n      add\n        /* \"#utility.yul\":8163:8193   */\n      mstore\n        /* \"#utility.yul\":8229:8263   */\n      0x756e61626c6520746f207472616e73666572416e6443616c6c20746f206f7261\n        /* \"#utility.yul\":8209:8227   */\n      0x44\n      dup3\n      add\n        /* \"#utility.yul\":8202:8264   */\n      mstore\n        /* \"#utility.yul\":8300:8305   */\n      0x636c650000000000000000000000000000000000000000000000000000000000\n        /* \"#utility.yul\":8280:8298   */\n      0x64\n      dup3\n      add\n        /* \"#utility.yul\":8273:8306   */\n      mstore\n        /* \"#utility.yul\":8323:8342   */\n      0x84\n      add\n        /* \"@chainlink/contracts/src/v0.8/ChainlinkClient.sol\":6944:7054  require(s_link.transferAndCall(oracleAddress, payment, encodedRequest), \"unable to transferAndCall to oracle\") */\n      tag_66\n        /* \"#utility.yul\":7949:8348   */\n      jump\n        /* \"@chainlink/contracts/src/v0.8/vendor/BufferChainlink.sol\":6040:6185  function appendUint8(buffer memory buf, uint8 data) internal pure returns (buffer memory) {... */\n    tag_178:\n      0x40\n      dup1\n      mload\n      dup1\n      dup3\n      add\n      swap1\n      swap2\n      mstore\n      0x60\n      dup2\n      mstore\n      0x00\n      0x20\n      dup3\n      add\n      mstore\n        /* \"@chainlink/contracts/src/v0.8/vendor/BufferChainlink.sol\":6143:6180  writeUint8(buf, buf.buf.length, data) */\n      tag_138\n        /* \"@chainlink/contracts/src/v0.8/vendor/BufferChainlink.sol\":6154:6157  buf */\n      dup4\n        /* \"@chainlink/contracts/src/v0.8/vendor/BufferChainlink.sol\":6159:6162  buf */\n      dup5\n        /* \"@chainlink/contracts/src/v0.8/vendor/BufferChainlink.sol\":6159:6166  buf.buf */\n      0x00\n      add\n      mload\n        /* \"@chainlink/contracts/src/v0.8/vendor/BufferChainlink.sol\":6159:6173  buf.buf.length */\n      mload\n        /* \"@chainlink/contracts/src/v0.8/vendor/BufferChainlink.sol\":6175:6179  data */\n      dup5\n        /* \"@chainlink/contracts/src/v0.8/vendor/BufferChainlink.sol\":6143:6153  writeUint8 */\n      tag_213\n        /* \"@chainlink/contracts/src/v0.8/vendor/BufferChainlink.sol\":6143:6180  writeUint8(buf, buf.buf.length, data) */\n      jump\t// in\n        /* \"@chainlink/contracts/src/v0.8/vendor/BufferChainlink.sol\":9894:10071  function appendInt(... */\n    tag_183:\n      0x40\n      dup1\n      mload\n      dup1\n      dup3\n      add\n      swap1\n      swap2\n      mstore\n      0x60\n      dup2\n      mstore\n      0x00\n      0x20\n      dup3\n      add\n      mstore\n        /* \"@chainlink/contracts/src/v0.8/vendor/BufferChainlink.sol\":10026:10066  writeInt(buf, buf.buf.length, data, len) */\n      tag_150\n        /* \"@chainlink/contracts/src/v0.8/vendor/BufferChainlink.sol\":10035:10038  buf */\n      dup5\n        /* \"@chainlink/contracts/src/v0.8/vendor/BufferChainlink.sol\":10040:10043  buf */\n      dup6\n        /* \"@chainlink/contracts/src/v0.8/vendor/BufferChainlink.sol\":10040:10047  buf.buf */\n      0x00\n      add\n      mload\n        /* \"@chainlink/contracts/src/v0.8/vendor/BufferChainlink.sol\":10040:10054  buf.buf.length */\n      mload\n        /* \"@chainlink/contracts/src/v0.8/vendor/BufferChainlink.sol\":10056:10060  data */\n      dup6\n        /* \"@chainlink/contracts/src/v0.8/vendor/BufferChainlink.sol\":10062:10065  len */\n      dup6\n        /* \"@chainlink/contracts/src/v0.8/vendor/BufferChainlink.sol\":10026:10034  writeInt */\n      tag_217\n        /* \"@chainlink/contracts/src/v0.8/vendor/BufferChainlink.sol\":10026:10066  writeInt(buf, buf.buf.length, data, len) */\n      jump\t// in\n        /* \"@chainlink/contracts/src/v0.8/vendor/BufferChainlink.sol\":2745:3955  function write(... */\n    tag_198:\n      0x40\n      dup1\n      mload\n      dup1\n      dup3\n      add\n      swap1\n      swap2\n      mstore\n      0x60\n      dup2\n      mstore\n      0x00\n      0x20\n      dup3\n      add\n      mstore\n        /* \"@chainlink/contracts/src/v0.8/vendor/BufferChainlink.sol\":2903:2907  data */\n      dup3\n        /* \"@chainlink/contracts/src/v0.8/vendor/BufferChainlink.sol\":2903:2914  data.length */\n      mload\n        /* \"@chainlink/contracts/src/v0.8/vendor/BufferChainlink.sol\":2896:2899  len */\n      dup3\n        /* \"@chainlink/contracts/src/v0.8/vendor/BufferChainlink.sol\":2896:2914  len <= data.length */\n      gt\n      iszero\n        /* \"@chainlink/contracts/src/v0.8/vendor/BufferChainlink.sol\":2888:2915  require(len <= data.length) */\n      tag_220\n      jumpi\n      0x00\n      dup1\n      revert\n    tag_220:\n        /* \"@chainlink/contracts/src/v0.8/vendor/BufferChainlink.sol\":2938:2950  buf.capacity */\n      0x20\n      dup6\n      add\n      mload\n        /* \"@chainlink/contracts/src/v0.8/vendor/BufferChainlink.sol\":2926:2935  off + len */\n      tag_221\n        /* \"@chainlink/contracts/src/v0.8/vendor/BufferChainlink.sol\":2932:2935  len */\n      dup4\n        /* \"@chainlink/contracts/src/v0.8/vendor/BufferChainlink.sol\":2926:2929  off */\n      dup7\n        /* \"@chainlink/contracts/src/v0.8/vendor/BufferChainlink.sol\":2926:2935  off + len */\n      tag_160\n      jump\t// in\n    tag_221:\n        /* \"@chainlink/contracts/src/v0.8/vendor/BufferChainlink.sol\":2926:2950  off + len > buf.capacity */\n      gt\n        /* \"@chainlink/contracts/src/v0.8/vendor/BufferChainlink.sol\":2922:3012  if (off + len > buf.capacity) {... */\n      iszero\n      tag_223\n      jumpi\n        /* \"@chainlink/contracts/src/v0.8/vendor/BufferChainlink.sol\":2960:3005  resize(buf, max(buf.capacity, len + off) * 2) */\n      tag_223\n        /* \"@chainlink/contracts/src/v0.8/vendor/BufferChainlink.sol\":2967:2970  buf */\n      dup6\n        /* \"@chainlink/contracts/src/v0.8/vendor/BufferChainlink.sol\":2972:3000  max(buf.capacity, len + off) */\n      tag_224\n        /* \"@chainlink/contracts/src/v0.8/vendor/BufferChainlink.sol\":2976:2979  buf */\n      dup8\n        /* \"@chainlink/contracts/src/v0.8/vendor/BufferChainlink.sol\":2976:2988  buf.capacity */\n      0x20\n      add\n      mload\n        /* \"@chainlink/contracts/src/v0.8/vendor/BufferChainlink.sol\":2996:2999  off */\n      dup8\n        /* \"@chainlink/contracts/src/v0.8/vendor/BufferChainlink.sol\":2990:2993  len */\n      dup7\n        /* \"@chainlink/contracts/src/v0.8/vendor/BufferChainlink.sol\":2990:2999  len + off */\n      tag_225\n      swap2\n      swap1\n      tag_160\n      jump\t// in\n    tag_225:\n        /* \"@chainlink/contracts/src/v0.8/vendor/BufferChainlink.sol\":2972:2975  max */\n      tag_226\n        /* \"@chainlink/contracts/src/v0.8/vendor/BufferChainlink.sol\":2972:3000  max(buf.capacity, len + off) */\n      jump\t// in\n    tag_224:\n        /* \"@chainlink/contracts/src/v0.8/vendor/BufferChainlink.sol\":2972:3004  max(buf.capacity, len + off) * 2 */\n      tag_227\n      swap1\n        /* \"@chainlink/contracts/src/v0.8/vendor/BufferChainlink.sol\":3003:3004  2 */\n      0x02\n        /* \"@chainlink/contracts/src/v0.8/vendor/BufferChainlink.sol\":2972:3004  max(buf.capacity, len + off) * 2 */\n      tag_228\n      jump\t// in\n    tag_227:\n        /* \"@chainlink/contracts/src/v0.8/vendor/BufferChainlink.sol\":2960:2966  resize */\n      tag_229\n        /* \"@chainlink/contracts/src/v0.8/vendor/BufferChainlink.sol\":2960:3005  resize(buf, max(buf.capacity, len + off) * 2) */\n      jump\t// in\n    tag_223:\n        /* \"@chainlink/contracts/src/v0.8/vendor/BufferChainlink.sol\":3018:3030  uint256 dest */\n      0x00\n        /* \"@chainlink/contracts/src/v0.8/vendor/BufferChainlink.sol\":3036:3047  uint256 src */\n      dup1\n        /* \"@chainlink/contracts/src/v0.8/vendor/BufferChainlink.sol\":3133:3136  buf */\n      dup7\n        /* \"@chainlink/contracts/src/v0.8/vendor/BufferChainlink.sol\":3127:3137  mload(buf) */\n      mload\n        /* \"@chainlink/contracts/src/v0.8/vendor/BufferChainlink.sol\":3204:3210  bufptr */\n      dup1\n        /* \"@chainlink/contracts/src/v0.8/vendor/BufferChainlink.sol\":3198:3211  mload(bufptr) */\n      mload\n        /* \"@chainlink/contracts/src/v0.8/vendor/BufferChainlink.sol\":3320:3323  off */\n      dup8\n        /* \"@chainlink/contracts/src/v0.8/vendor/BufferChainlink.sol\":3315:3317  32 */\n      0x20\n        /* \"@chainlink/contracts/src/v0.8/vendor/BufferChainlink.sol\":3307:3313  bufptr */\n      dup4\n        /* \"@chainlink/contracts/src/v0.8/vendor/BufferChainlink.sol\":3303:3318  add(bufptr, 32) */\n      add\n        /* \"@chainlink/contracts/src/v0.8/vendor/BufferChainlink.sol\":3299:3324  add(add(bufptr, 32), off) */\n      add\n        /* \"@chainlink/contracts/src/v0.8/vendor/BufferChainlink.sol\":3291:3324  dest := add(add(bufptr, 32), off) */\n      swap4\n      pop\n        /* \"@chainlink/contracts/src/v0.8/vendor/BufferChainlink.sol\":3404:3410  buflen */\n      dup1\n        /* \"@chainlink/contracts/src/v0.8/vendor/BufferChainlink.sol\":3398:3401  off */\n      dup9\n        /* \"@chainlink/contracts/src/v0.8/vendor/BufferChainlink.sol\":3393:3396  len */\n      dup8\n        /* \"@chainlink/contracts/src/v0.8/vendor/BufferChainlink.sol\":3389:3402  add(len, off) */\n      add\n        /* \"@chainlink/contracts/src/v0.8/vendor/BufferChainlink.sol\":3386:3411  gt(add(len, off), buflen) */\n      gt\n        /* \"@chainlink/contracts/src/v0.8/vendor/BufferChainlink.sol\":3383:3459  if gt(add(len, off), buflen) {... */\n      iszero\n      tag_230\n      jumpi\n        /* \"@chainlink/contracts/src/v0.8/vendor/BufferChainlink.sol\":3446:3449  off */\n      dup8\n        /* \"@chainlink/contracts/src/v0.8/vendor/BufferChainlink.sol\":3441:3444  len */\n      dup7\n        /* \"@chainlink/contracts/src/v0.8/vendor/BufferChainlink.sol\":3437:3450  add(len, off) */\n      add\n        /* \"@chainlink/contracts/src/v0.8/vendor/BufferChainlink.sol\":3429:3435  bufptr */\n      dup3\n        /* \"@chainlink/contracts/src/v0.8/vendor/BufferChainlink.sol\":3422:3451  mstore(bufptr, add(len, off)) */\n      mstore\n        /* \"@chainlink/contracts/src/v0.8/vendor/BufferChainlink.sol\":3383:3459  if gt(add(len, off), buflen) {... */\n    tag_230:\n      pop\n      pop\n      pop\n        /* \"@chainlink/contracts/src/v0.8/vendor/BufferChainlink.sol\":3483:3485  32 */\n      0x20\n        /* \"@chainlink/contracts/src/v0.8/vendor/BufferChainlink.sol\":3473:3486  add(data, 32) */\n      dup5\n      add\n        /* \"@chainlink/contracts/src/v0.8/vendor/BufferChainlink.sol\":3544:3673  for (; len >= 32; len -= 32) {... */\n    tag_231:\n        /* \"@chainlink/contracts/src/v0.8/vendor/BufferChainlink.sol\":3558:3560  32 */\n      0x20\n        /* \"@chainlink/contracts/src/v0.8/vendor/BufferChainlink.sol\":3551:3554  len */\n      dup5\n        /* \"@chainlink/contracts/src/v0.8/vendor/BufferChainlink.sol\":3551:3560  len >= 32 */\n      lt\n        /* \"@chainlink/contracts/src/v0.8/vendor/BufferChainlink.sol\":3544:3673  for (; len >= 32; len -= 32) {... */\n      tag_232\n      jumpi\n        /* \"@chainlink/contracts/src/v0.8/vendor/BufferChainlink.sol\":3613:3623  mload(src) */\n      dup1\n      mload\n        /* \"@chainlink/contracts/src/v0.8/vendor/BufferChainlink.sol\":3600:3624  mstore(dest, mload(src)) */\n      dup3\n      mstore\n        /* \"@chainlink/contracts/src/v0.8/vendor/BufferChainlink.sol\":3639:3649  dest += 32 */\n      tag_234\n        /* \"@chainlink/contracts/src/v0.8/vendor/BufferChainlink.sol\":3647:3649  32 */\n      0x20\n        /* \"@chainlink/contracts/src/v0.8/vendor/BufferChainlink.sol\":3607:3611  dest */\n      dup4\n        /* \"@chainlink/contracts/src/v0.8/vendor/BufferChainlink.sol\":3639:3649  dest += 32 */\n      tag_160\n      jump\t// in\n    tag_234:\n      swap2\n      pop\n        /* \"@chainlink/contracts/src/v0.8/vendor/BufferChainlink.sol\":3657:3666  src += 32 */\n      tag_235\n        /* \"@chainlink/contracts/src/v0.8/vendor/BufferChainlink.sol\":3664:3666  32 */\n      0x20\n        /* \"@chainlink/contracts/src/v0.8/vendor/BufferChainlink.sol\":3657:3666  src += 32 */\n      dup3\n      tag_160\n      jump\t// in\n    tag_235:\n      swap1\n      pop\n        /* \"@chainlink/contracts/src/v0.8/vendor/BufferChainlink.sol\":3562:3571  len -= 32 */\n      tag_236\n        /* \"@chainlink/contracts/src/v0.8/vendor/BufferChainlink.sol\":3569:3571  32 */\n      0x20\n        /* \"@chainlink/contracts/src/v0.8/vendor/BufferChainlink.sol\":3562:3571  len -= 32 */\n      dup6\n      tag_173\n      jump\t// in\n    tag_236:\n      swap4\n      pop\n        /* \"@chainlink/contracts/src/v0.8/vendor/BufferChainlink.sol\":3544:3673  for (; len >= 32; len -= 32) {... */\n      jump(tag_231)\n    tag_232:\n        /* \"@chainlink/contracts/src/v0.8/vendor/BufferChainlink.sol\":3807:3817  mload(src) */\n      mload\n        /* \"@chainlink/contracts/src/v0.8/vendor/BufferChainlink.sol\":3858:3869  mload(dest) */\n      dup2\n      mload\n        /* \"@chainlink/contracts/src/v0.8/vendor/BufferChainlink.sol\":3740:3761  (256**(32 - len)) - 1 */\n      0xffffffffffffffffffffffffffffffffffffffffffffffffffffffffffffffff\n        /* \"@chainlink/contracts/src/v0.8/vendor/BufferChainlink.sol\":3747:3749  32 */\n      0x20\n        /* \"@chainlink/contracts/src/v0.8/vendor/BufferChainlink.sol\":3747:3755  32 - len */\n      dup7\n      swap1\n      sub\n        /* \"@chainlink/contracts/src/v0.8/vendor/BufferChainlink.sol\":3741:3744  256 */\n      0x0100\n        /* \"@chainlink/contracts/src/v0.8/vendor/BufferChainlink.sol\":3741:3756  256**(32 - len) */\n      exp\n        /* \"@chainlink/contracts/src/v0.8/vendor/BufferChainlink.sol\":3740:3761  (256**(32 - len)) - 1 */\n      add\n        /* \"@chainlink/contracts/src/v0.8/vendor/BufferChainlink.sol\":3854:3876  and(mload(dest), mask) */\n      swap1\n      dup2\n      and\n        /* \"@chainlink/contracts/src/v0.8/vendor/BufferChainlink.sol\":3819:3828  not(mask) */\n      swap1\n      not\n        /* \"@chainlink/contracts/src/v0.8/vendor/BufferChainlink.sol\":3803:3829  and(mload(src), not(mask)) */\n      swap2\n      swap1\n      swap2\n      and\n        /* \"@chainlink/contracts/src/v0.8/vendor/BufferChainlink.sol\":3898:3919  or(destpart, srcpart) */\n      or\n        /* \"@chainlink/contracts/src/v0.8/vendor/BufferChainlink.sol\":3885:3920  mstore(dest, or(destpart, srcpart)) */\n      swap1\n      mstore\n      pop\n        /* \"@chainlink/contracts/src/v0.8/vendor/BufferChainlink.sol\":3947:3950  buf */\n      dup4\n        /* \"@chainlink/contracts/src/v0.8/vendor/BufferChainlink.sol\":2745:3955  function write(... */\n      swap5\n      swap4\n      pop\n      pop\n      pop\n      pop\n      jump\t// out\n        /* \"@chainlink/contracts/src/v0.8/vendor/BufferChainlink.sol\":5148:5787  function writeUint8(... */\n    tag_213:\n      0x40\n      dup1\n      mload\n      dup1\n      dup3\n      add\n      swap1\n      swap2\n      mstore\n      0x60\n      dup2\n      mstore\n      0x00\n      0x20\n      dup3\n      add\n      mstore\n        /* \"@chainlink/contracts/src/v0.8/vendor/BufferChainlink.sol\":5283:5286  buf */\n      dup4\n        /* \"@chainlink/contracts/src/v0.8/vendor/BufferChainlink.sol\":5283:5295  buf.capacity */\n      0x20\n      add\n      mload\n        /* \"@chainlink/contracts/src/v0.8/vendor/BufferChainlink.sol\":5276:5279  off */\n      dup4\n        /* \"@chainlink/contracts/src/v0.8/vendor/BufferChainlink.sol\":5276:5295  off >= buf.capacity */\n      lt\n        /* \"@chainlink/contracts/src/v0.8/vendor/BufferChainlink.sol\":5272:5341  if (off >= buf.capacity) {... */\n      tag_240\n      jumpi\n        /* \"@chainlink/contracts/src/v0.8/vendor/BufferChainlink.sol\":5305:5334  resize(buf, buf.capacity * 2) */\n      tag_240\n        /* \"@chainlink/contracts/src/v0.8/vendor/BufferChainlink.sol\":5312:5315  buf */\n      dup5\n        /* \"@chainlink/contracts/src/v0.8/vendor/BufferChainlink.sol\":5317:5320  buf */\n      dup6\n        /* \"@chainlink/contracts/src/v0.8/vendor/BufferChainlink.sol\":5317:5329  buf.capacity */\n      0x20\n      add\n      mload\n        /* \"@chainlink/contracts/src/v0.8/vendor/BufferChainlink.sol\":5332:5333  2 */\n      0x02\n        /* \"@chainlink/contracts/src/v0.8/vendor/BufferChainlink.sol\":5317:5333  buf.capacity * 2 */\n      tag_227\n      swap2\n      swap1\n      tag_228\n      jump\t// in\n        /* \"@chainlink/contracts/src/v0.8/vendor/BufferChainlink.sol\":5305:5334  resize(buf, buf.capacity * 2) */\n    tag_240:\n        /* \"@chainlink/contracts/src/v0.8/vendor/BufferChainlink.sol\":5427:5430  buf */\n      dup4\n        /* \"@chainlink/contracts/src/v0.8/vendor/BufferChainlink.sol\":5421:5431  mload(buf) */\n      mload\n        /* \"@chainlink/contracts/src/v0.8/vendor/BufferChainlink.sol\":5498:5504  bufptr */\n      dup1\n        /* \"@chainlink/contracts/src/v0.8/vendor/BufferChainlink.sol\":5492:5505  mload(bufptr) */\n      mload\n        /* \"@chainlink/contracts/src/v0.8/vendor/BufferChainlink.sol\":5610:5612  32 */\n      0x20\n        /* \"@chainlink/contracts/src/v0.8/vendor/BufferChainlink.sol\":5604:5607  off */\n      dup6\n        /* \"@chainlink/contracts/src/v0.8/vendor/BufferChainlink.sol\":5596:5602  bufptr */\n      dup4\n        /* \"@chainlink/contracts/src/v0.8/vendor/BufferChainlink.sol\":5592:5608  add(bufptr, off) */\n      add\n        /* \"@chainlink/contracts/src/v0.8/vendor/BufferChainlink.sol\":5588:5613  add(add(bufptr, off), 32) */\n      add\n        /* \"@chainlink/contracts/src/v0.8/vendor/BufferChainlink.sol\":5634:5638  data */\n      dup5\n        /* \"@chainlink/contracts/src/v0.8/vendor/BufferChainlink.sol\":5628:5632  dest */\n      dup2\n        /* \"@chainlink/contracts/src/v0.8/vendor/BufferChainlink.sol\":5620:5639  mstore8(dest, data) */\n      mstore8\n      pop\n        /* \"@chainlink/contracts/src/v0.8/vendor/BufferChainlink.sol\":5705:5711  buflen */\n      dup1\n        /* \"@chainlink/contracts/src/v0.8/vendor/BufferChainlink.sol\":5700:5703  off */\n      dup6\n        /* \"@chainlink/contracts/src/v0.8/vendor/BufferChainlink.sol\":5697:5712  eq(off, buflen) */\n      sub\n        /* \"@chainlink/contracts/src/v0.8/vendor/BufferChainlink.sol\":5694:5761  if eq(off, buflen) {... */\n      tag_242\n      jumpi\n        /* \"@chainlink/contracts/src/v0.8/vendor/BufferChainlink.sol\":5750:5751  1 */\n      0x01\n        /* \"@chainlink/contracts/src/v0.8/vendor/BufferChainlink.sol\":5742:5748  buflen */\n      dup2\n        /* \"@chainlink/contracts/src/v0.8/vendor/BufferChainlink.sol\":5738:5752  add(buflen, 1) */\n      add\n        /* \"@chainlink/contracts/src/v0.8/vendor/BufferChainlink.sol\":5730:5736  bufptr */\n      dup3\n        /* \"@chainlink/contracts/src/v0.8/vendor/BufferChainlink.sol\":5723:5753  mstore(bufptr, add(buflen, 1)) */\n      mstore\n        /* \"@chainlink/contracts/src/v0.8/vendor/BufferChainlink.sol\":5694:5761  if eq(off, buflen) {... */\n    tag_242:\n      pop\n        /* \"@chainlink/contracts/src/v0.8/vendor/BufferChainlink.sol\":5779:5782  buf */\n      swap4\n      swap5\n        /* \"@chainlink/contracts/src/v0.8/vendor/BufferChainlink.sol\":5148:5787  function writeUint8(... */\n      swap4\n      pop\n      pop\n      pop\n      pop\n      jump\t// out\n        /* \"@chainlink/contracts/src/v0.8/vendor/BufferChainlink.sol\":8974:9649  function writeInt(... */\n    tag_217:\n      0x40\n      dup1\n      mload\n      dup1\n      dup3\n      add\n      swap1\n      swap2\n      mstore\n      0x60\n      dup2\n      mstore\n      0x00\n      0x20\n      dup3\n      add\n      mstore\n        /* \"@chainlink/contracts/src/v0.8/vendor/BufferChainlink.sol\":9130:9142  buf.capacity */\n      0x20\n      dup6\n      add\n      mload\n        /* \"@chainlink/contracts/src/v0.8/vendor/BufferChainlink.sol\":9118:9127  len + off */\n      tag_245\n        /* \"@chainlink/contracts/src/v0.8/vendor/BufferChainlink.sol\":9124:9127  off */\n      dup6\n        /* \"@chainlink/contracts/src/v0.8/vendor/BufferChainlink.sol\":9118:9121  len */\n      dup5\n        /* \"@chainlink/contracts/src/v0.8/vendor/BufferChainlink.sol\":9118:9127  len + off */\n      tag_160\n      jump\t// in\n    tag_245:\n        /* \"@chainlink/contracts/src/v0.8/vendor/BufferChainlink.sol\":9118:9142  len + off > buf.capacity */\n      gt\n        /* \"@chainlink/contracts/src/v0.8/vendor/BufferChainlink.sol\":9114:9187  if (len + off > buf.capacity) {... */\n      iszero\n      tag_247\n      jumpi\n        /* \"@chainlink/contracts/src/v0.8/vendor/BufferChainlink.sol\":9152:9180  resize(buf, (len + off) * 2) */\n      tag_247\n        /* \"@chainlink/contracts/src/v0.8/vendor/BufferChainlink.sol\":9159:9162  buf */\n      dup6\n        /* \"@chainlink/contracts/src/v0.8/vendor/BufferChainlink.sol\":9165:9174  len + off */\n      tag_224\n        /* \"@chainlink/contracts/src/v0.8/vendor/BufferChainlink.sol\":9171:9174  off */\n      dup7\n        /* \"@chainlink/contracts/src/v0.8/vendor/BufferChainlink.sol\":9165:9168  len */\n      dup6\n        /* \"@chainlink/contracts/src/v0.8/vendor/BufferChainlink.sol\":9165:9174  len + off */\n      tag_160\n      jump\t// in\n        /* \"@chainlink/contracts/src/v0.8/vendor/BufferChainlink.sol\":9152:9180  resize(buf, (len + off) * 2) */\n    tag_247:\n        /* \"@chainlink/contracts/src/v0.8/vendor/BufferChainlink.sol\":9193:9205  uint256 mask */\n      0x00\n        /* \"@chainlink/contracts/src/v0.8/vendor/BufferChainlink.sol\":9221:9222  1 */\n      0x01\n        /* \"@chainlink/contracts/src/v0.8/vendor/BufferChainlink.sol\":9209:9217  256**len */\n      tag_250\n        /* \"@chainlink/contracts/src/v0.8/vendor/BufferChainlink.sol\":9214:9217  len */\n      dup5\n        /* \"@chainlink/contracts/src/v0.8/vendor/BufferChainlink.sol\":9209:9212  256 */\n      0x0100\n        /* \"@chainlink/contracts/src/v0.8/vendor/BufferChainlink.sol\":9209:9217  256**len */\n      tag_251\n      jump\t// in\n    tag_250:\n        /* \"@chainlink/contracts/src/v0.8/vendor/BufferChainlink.sol\":9208:9222  (256**len) - 1 */\n      tag_252\n      swap2\n      swap1\n      tag_173\n      jump\t// in\n    tag_252:\n        /* \"@chainlink/contracts/src/v0.8/vendor/BufferChainlink.sol\":9193:9222  uint256 mask = (256**len) - 1 */\n      swap1\n      pop\n        /* \"@chainlink/contracts/src/v0.8/vendor/BufferChainlink.sol\":9308:9311  buf */\n      dup6\n        /* \"@chainlink/contracts/src/v0.8/vendor/BufferChainlink.sol\":9302:9312  mload(buf) */\n      mload\n        /* \"@chainlink/contracts/src/v0.8/vendor/BufferChainlink.sol\":9423:9426  len */\n      dup4\n        /* \"@chainlink/contracts/src/v0.8/vendor/BufferChainlink.sol\":9417:9420  off */\n      dup7\n        /* \"@chainlink/contracts/src/v0.8/vendor/BufferChainlink.sol\":9409:9415  bufptr */\n      dup3\n        /* \"@chainlink/contracts/src/v0.8/vendor/BufferChainlink.sol\":9405:9421  add(bufptr, off) */\n      add\n        /* \"@chainlink/contracts/src/v0.8/vendor/BufferChainlink.sol\":9401:9427  add(add(bufptr, off), len) */\n      add\n        /* \"@chainlink/contracts/src/v0.8/vendor/BufferChainlink.sol\":9479:9483  data */\n      dup6\n        /* \"@chainlink/contracts/src/v0.8/vendor/BufferChainlink.sol\":9471:9475  mask */\n      dup4\n        /* \"@chainlink/contracts/src/v0.8/vendor/BufferChainlink.sol\":9467:9476  not(mask) */\n      not\n        /* \"@chainlink/contracts/src/v0.8/vendor/BufferChainlink.sol\":9460:9464  dest */\n      dup3\n        /* \"@chainlink/contracts/src/v0.8/vendor/BufferChainlink.sol\":9454:9465  mload(dest) */\n      mload\n        /* \"@chainlink/contracts/src/v0.8/vendor/BufferChainlink.sol\":9450:9477  and(mload(dest), not(mask)) */\n      and\n        /* \"@chainlink/contracts/src/v0.8/vendor/BufferChainlink.sol\":9447:9484  or(and(mload(dest), not(mask)), data) */\n      or\n        /* \"@chainlink/contracts/src/v0.8/vendor/BufferChainlink.sol\":9441:9445  dest */\n      dup2\n        /* \"@chainlink/contracts/src/v0.8/vendor/BufferChainlink.sol\":9434:9485  mstore(dest, or(and(mload(dest), not(mask)), data)) */\n      mstore\n      pop\n        /* \"@chainlink/contracts/src/v0.8/vendor/BufferChainlink.sol\":9567:9573  bufptr */\n      dup1\n        /* \"@chainlink/contracts/src/v0.8/vendor/BufferChainlink.sol\":9561:9574  mload(bufptr) */\n      mload\n        /* \"@chainlink/contracts/src/v0.8/vendor/BufferChainlink.sol\":9555:9558  len */\n      dup5\n        /* \"@chainlink/contracts/src/v0.8/vendor/BufferChainlink.sol\":9550:9553  off */\n      dup8\n        /* \"@chainlink/contracts/src/v0.8/vendor/BufferChainlink.sol\":9546:9559  add(off, len) */\n      add\n        /* \"@chainlink/contracts/src/v0.8/vendor/BufferChainlink.sol\":9543:9575  gt(add(off, len), mload(bufptr)) */\n      gt\n        /* \"@chainlink/contracts/src/v0.8/vendor/BufferChainlink.sol\":9540:9623  if gt(add(off, len), mload(bufptr)) {... */\n      iszero\n      tag_253\n      jumpi\n        /* \"@chainlink/contracts/src/v0.8/vendor/BufferChainlink.sol\":9610:9613  len */\n      dup4\n        /* \"@chainlink/contracts/src/v0.8/vendor/BufferChainlink.sol\":9605:9608  off */\n      dup7\n        /* \"@chainlink/contracts/src/v0.8/vendor/BufferChainlink.sol\":9601:9614  add(off, len) */\n      add\n        /* \"@chainlink/contracts/src/v0.8/vendor/BufferChainlink.sol\":9593:9599  bufptr */\n      dup2\n        /* \"@chainlink/contracts/src/v0.8/vendor/BufferChainlink.sol\":9586:9615  mstore(bufptr, add(off, len)) */\n      mstore\n        /* \"@chainlink/contracts/src/v0.8/vendor/BufferChainlink.sol\":9540:9623  if gt(add(off, len), mload(bufptr)) {... */\n    tag_253:\n      pop\n        /* \"@chainlink/contracts/src/v0.8/vendor/BufferChainlink.sol\":9641:9644  buf */\n      swap5\n      swap6\n        /* \"@chainlink/contracts/src/v0.8/vendor/BufferChainlink.sol\":8974:9649  function writeInt(... */\n      swap5\n      pop\n      pop\n      pop\n      pop\n      pop\n      jump\t// out\n        /* \"@chainlink/contracts/src/v0.8/vendor/BufferChainlink.sol\":1961:2085  function max(uint256 a, uint256 b) private pure returns (uint256) {... */\n    tag_226:\n        /* \"@chainlink/contracts/src/v0.8/vendor/BufferChainlink.sol\":2018:2025  uint256 */\n      0x00\n        /* \"@chainlink/contracts/src/v0.8/vendor/BufferChainlink.sol\":2041:2042  b */\n      dup2\n        /* \"@chainlink/contracts/src/v0.8/vendor/BufferChainlink.sol\":2037:2038  a */\n      dup4\n        /* \"@chainlink/contracts/src/v0.8/vendor/BufferChainlink.sol\":2037:2042  a > b */\n      gt\n        /* \"@chainlink/contracts/src/v0.8/vendor/BufferChainlink.sol\":2033:2067  if (a > b) {... */\n      iszero\n      tag_255\n      jumpi\n      pop\n        /* \"@chainlink/contracts/src/v0.8/vendor/BufferChainlink.sol\":2059:2060  a */\n      dup2\n        /* \"@chainlink/contracts/src/v0.8/vendor/BufferChainlink.sol\":2052:2060  return a */\n      jump(tag_137)\n        /* \"@chainlink/contracts/src/v0.8/vendor/BufferChainlink.sol\":2033:2067  if (a > b) {... */\n    tag_255:\n      pop\n        /* \"@chainlink/contracts/src/v0.8/vendor/BufferChainlink.sol\":2079:2080  b */\n      swap2\n        /* \"@chainlink/contracts/src/v0.8/vendor/BufferChainlink.sol\":1961:2085  function max(uint256 a, uint256 b) private pure returns (uint256) {... */\n      swap1\n      pop\n      jump\t// out\n        /* \"@chainlink/contracts/src/v0.8/vendor/BufferChainlink.sol\":1801:1957  function resize(buffer memory buf, uint256 capacity) private pure {... */\n    tag_229:\n        /* \"@chainlink/contracts/src/v0.8/vendor/BufferChainlink.sol\":1895:1902  buf.buf */\n      dup2\n      mload\n        /* \"@chainlink/contracts/src/v0.8/vendor/BufferChainlink.sol\":1908:1927  init(buf, capacity) */\n      tag_257\n        /* \"@chainlink/contracts/src/v0.8/vendor/BufferChainlink.sol\":1895:1898  buf */\n      dup4\n        /* \"@chainlink/contracts/src/v0.8/vendor/BufferChainlink.sol\":1918:1926  capacity */\n      dup4\n        /* \"@chainlink/contracts/src/v0.8/vendor/BufferChainlink.sol\":1908:1912  init */\n      tag_152\n        /* \"@chainlink/contracts/src/v0.8/vendor/BufferChainlink.sol\":1908:1927  init(buf, capacity) */\n      jump\t// in\n    tag_257:\n      pop\n        /* \"@chainlink/contracts/src/v0.8/vendor/BufferChainlink.sol\":1933:1952  append(buf, oldbuf) */\n      tag_177\n        /* \"@chainlink/contracts/src/v0.8/vendor/BufferChainlink.sol\":1940:1943  buf */\n      dup4\n        /* \"@chainlink/contracts/src/v0.8/vendor/BufferChainlink.sol\":1945:1951  oldbuf */\n      dup3\n        /* \"@chainlink/contracts/src/v0.8/vendor/BufferChainlink.sol\":1933:1939  append */\n      tag_157\n        /* \"@chainlink/contracts/src/v0.8/vendor/BufferChainlink.sol\":1933:1952  append(buf, oldbuf) */\n      jump\t// in\n        /* \"#utility.yul\":196:376   */\n    tag_25:\n        /* \"#utility.yul\":255:261   */\n      0x00\n        /* \"#utility.yul\":308:310   */\n      0x20\n        /* \"#utility.yul\":296:305   */\n      dup3\n        /* \"#utility.yul\":287:294   */\n      dup5\n        /* \"#utility.yul\":283:306   */\n      sub\n        /* \"#utility.yul\":279:311   */\n      slt\n        /* \"#utility.yul\":276:328   */\n      iszero\n      tag_267\n      jumpi\n        /* \"#utility.yul\":324:325   */\n      0x00\n        /* \"#utility.yul\":321:322   */\n      dup1\n        /* \"#utility.yul\":314:326   */\n      revert\n        /* \"#utility.yul\":276:328   */\n    tag_267:\n      pop\n        /* \"#utility.yul\":347:370   */\n      calldataload\n      swap2\n        /* \"#utility.yul\":196:376   */\n      swap1\n      pop\n      jump\t// out\n        /* \"#utility.yul\":381:766   */\n    tag_29:\n        /* \"#utility.yul\":467:473   */\n      0x00\n        /* \"#utility.yul\":475:481   */\n      dup1\n        /* \"#utility.yul\":483:489   */\n      0x00\n        /* \"#utility.yul\":491:497   */\n      dup1\n        /* \"#utility.yul\":544:547   */\n      0x80\n        /* \"#utility.yul\":532:541   */\n      dup6\n        /* \"#utility.yul\":523:530   */\n      dup8\n        /* \"#utility.yul\":519:542   */\n      sub\n        /* \"#utility.yul\":515:548   */\n      slt\n        /* \"#utility.yul\":512:565   */\n      iszero\n      tag_269\n      jumpi\n        /* \"#utility.yul\":561:562   */\n      0x00\n        /* \"#utility.yul\":558:559   */\n      dup1\n        /* \"#utility.yul\":551:563   */\n      revert\n        /* \"#utility.yul\":512:565   */\n    tag_269:\n      pop\n      pop\n        /* \"#utility.yul\":584:607   */\n      dup3\n      calldataload\n      swap5\n        /* \"#utility.yul\":654:656   */\n      0x20\n        /* \"#utility.yul\":639:657   */\n      dup5\n      add\n        /* \"#utility.yul\":626:658   */\n      calldataload\n      swap5\n      pop\n        /* \"#utility.yul\":705:707   */\n      0x40\n        /* \"#utility.yul\":690:708   */\n      dup5\n      add\n        /* \"#utility.yul\":677:709   */\n      calldataload\n      swap4\n        /* \"#utility.yul\":756:758   */\n      0x60\n        /* \"#utility.yul\":741:759   */\n      add\n        /* \"#utility.yul\":728:760   */\n      calldataload\n      swap3\n      pop\n        /* \"#utility.yul\":381:766   */\n      swap1\n      pop\n      jump\t// out\n        /* \"#utility.yul\":1184:1666   */\n    tag_260:\n        /* \"#utility.yul\":1226:1229   */\n      0x00\n        /* \"#utility.yul\":1264:1269   */\n      dup2\n        /* \"#utility.yul\":1258:1270   */\n      mload\n        /* \"#utility.yul\":1291:1297   */\n      dup1\n        /* \"#utility.yul\":1286:1289   */\n      dup5\n        /* \"#utility.yul\":1279:1298   */\n      mstore\n        /* \"#utility.yul\":1316:1317   */\n      0x00\n        /* \"#utility.yul\":1326:1488   */\n    tag_273:\n        /* \"#utility.yul\":1340:1346   */\n      dup2\n        /* \"#utility.yul\":1337:1338   */\n      dup2\n        /* \"#utility.yul\":1334:1347   */\n      lt\n        /* \"#utility.yul\":1326:1488   */\n      iszero\n      tag_275\n      jumpi\n        /* \"#utility.yul\":1402:1406   */\n      0x20\n        /* \"#utility.yul\":1458:1471   */\n      dup2\n      dup6\n      add\n        /* \"#utility.yul\":1454:1476   */\n      dup2\n      add\n        /* \"#utility.yul\":1448:1477   */\n      mload\n        /* \"#utility.yul\":1430:1441   */\n      dup7\n      dup4\n      add\n        /* \"#utility.yul\":1426:1446   */\n      dup3\n      add\n        /* \"#utility.yul\":1419:1478   */\n      mstore\n        /* \"#utility.yul\":1355:1367   */\n      add\n        /* \"#utility.yul\":1326:1488   */\n      jump(tag_273)\n    tag_275:\n        /* \"#utility.yul\":1330:1333   */\n      pop\n        /* \"#utility.yul\":1533:1534   */\n      0x00\n        /* \"#utility.yul\":1526:1530   */\n      0x20\n        /* \"#utility.yul\":1517:1523   */\n      dup3\n        /* \"#utility.yul\":1512:1515   */\n      dup7\n        /* \"#utility.yul\":1508:1524   */\n      add\n        /* \"#utility.yul\":1504:1531   */\n      add\n        /* \"#utility.yul\":1497:1535   */\n      mstore\n        /* \"#utility.yul\":1655:1659   */\n      0x20\n        /* \"#utility.yul\":1585:1651   */\n      0xffffffffffffffffffffffffffffffffffffffffffffffffffffffffffffffe0\n        /* \"#utility.yul\":1580:1582   */\n      0x1f\n        /* \"#utility.yul\":1572:1578   */\n      dup4\n        /* \"#utility.yul\":1568:1583   */\n      add\n        /* \"#utility.yul\":1564:1652   */\n      and\n        /* \"#utility.yul\":1559:1562   */\n      dup6\n        /* \"#utility.yul\":1555:1653   */\n      add\n        /* \"#utility.yul\":1551:1660   */\n      add\n        /* \"#utility.yul\":1544:1660   */\n      swap2\n      pop\n      pop\n        /* \"#utility.yul\":1184:1666   */\n      swap3\n      swap2\n      pop\n      pop\n      jump\t// out\n        /* \"#utility.yul\":1671:1891   */\n    tag_52:\n        /* \"#utility.yul\":1820:1822   */\n      0x20\n        /* \"#utility.yul\":1809:1818   */\n      dup2\n        /* \"#utility.yul\":1802:1823   */\n      mstore\n        /* \"#utility.yul\":1783:1787   */\n      0x00\n        /* \"#utility.yul\":1840:1885   */\n      tag_138\n        /* \"#utility.yul\":1881:1883   */\n      0x20\n        /* \"#utility.yul\":1870:1879   */\n      dup4\n        /* \"#utility.yul\":1866:1884   */\n      add\n        /* \"#utility.yul\":1858:1864   */\n      dup5\n        /* \"#utility.yul\":1840:1885   */\n      tag_260\n      jump\t// in\n        /* \"#utility.yul\":1896:2205   */\n    tag_58:\n        /* \"#utility.yul\":1955:1961   */\n      0x00\n        /* \"#utility.yul\":2008:2010   */\n      0x20\n        /* \"#utility.yul\":1996:2005   */\n      dup3\n        /* \"#utility.yul\":1987:1994   */\n      dup5\n        /* \"#utility.yul\":1983:2006   */\n      sub\n        /* \"#utility.yul\":1979:2011   */\n      slt\n        /* \"#utility.yul\":1976:2028   */\n      iszero\n      tag_279\n      jumpi\n        /* \"#utility.yul\":2024:2025   */\n      0x00\n        /* \"#utility.yul\":2021:2022   */\n      dup1\n        /* \"#utility.yul\":2014:2026   */\n      revert\n        /* \"#utility.yul\":1976:2028   */\n    tag_279:\n        /* \"#utility.yul\":2063:2072   */\n      dup2\n        /* \"#utility.yul\":2050:2073   */\n      calldataload\n        /* \"#utility.yul\":2113:2155   */\n      0xffffffffffffffffffffffffffffffffffffffff\n        /* \"#utility.yul\":2106:2111   */\n      dup2\n        /* \"#utility.yul\":2102:2156   */\n      and\n        /* \"#utility.yul\":2095:2100   */\n      dup2\n        /* \"#utility.yul\":2092:2157   */\n      eq\n        /* \"#utility.yul\":2082:2175   */\n      tag_280\n      jumpi\n        /* \"#utility.yul\":2171:2172   */\n      0x00\n        /* \"#utility.yul\":2168:2169   */\n      dup1\n        /* \"#utility.yul\":2161:2173   */\n      revert\n        /* \"#utility.yul\":2082:2175   */\n    tag_280:\n        /* \"#utility.yul\":2194:2199   */\n      swap4\n        /* \"#utility.yul\":1896:2205   */\n      swap3\n      pop\n      pop\n      pop\n      jump\t// out\n        /* \"#utility.yul\":2943:3380   */\n    tag_76:\n        /* \"#utility.yul\":3022:3023   */\n      0x01\n        /* \"#utility.yul\":3018:3030   */\n      dup2\n      dup2\n      shr\n      swap1\n        /* \"#utility.yul\":3065:3077   */\n      dup3\n      and\n      dup1\n        /* \"#utility.yul\":3086:3147   */\n      tag_284\n      jumpi\n        /* \"#utility.yul\":3140:3144   */\n      0x7f\n        /* \"#utility.yul\":3132:3138   */\n      dup3\n        /* \"#utility.yul\":3128:3145   */\n      and\n        /* \"#utility.yul\":3118:3145   */\n      swap2\n      pop\n        /* \"#utility.yul\":3086:3147   */\n    tag_284:\n        /* \"#utility.yul\":3193:3195   */\n      0x20\n        /* \"#utility.yul\":3185:3191   */\n      dup3\n        /* \"#utility.yul\":3182:3196   */\n      lt\n        /* \"#utility.yul\":3162:3180   */\n      dup2\n        /* \"#utility.yul\":3159:3197   */\n      sub\n        /* \"#utility.yul\":3156:3374   */\n      tag_255\n      jumpi\n        /* \"#utility.yul\":3230:3307   */\n      0x4e487b7100000000000000000000000000000000000000000000000000000000\n        /* \"#utility.yul\":3227:3228   */\n      0x00\n        /* \"#utility.yul\":3220:3308   */\n      mstore\n        /* \"#utility.yul\":3331:3335   */\n      0x22\n        /* \"#utility.yul\":3328:3329   */\n      0x04\n        /* \"#utility.yul\":3321:3336   */\n      mstore\n        /* \"#utility.yul\":3359:3363   */\n      0x24\n        /* \"#utility.yul\":3356:3357   */\n      0x00\n        /* \"#utility.yul\":3349:3364   */\n      revert\n        /* \"#utility.yul\":3736:3920   */\n    tag_105:\n        /* \"#utility.yul\":3806:3812   */\n      0x00\n        /* \"#utility.yul\":3859:3861   */\n      0x20\n        /* \"#utility.yul\":3847:3856   */\n      dup3\n        /* \"#utility.yul\":3838:3845   */\n      dup5\n        /* \"#utility.yul\":3834:3857   */\n      sub\n        /* \"#utility.yul\":3830:3862   */\n      slt\n        /* \"#utility.yul\":3827:3879   */\n      iszero\n      tag_288\n      jumpi\n        /* \"#utility.yul\":3875:3876   */\n      0x00\n        /* \"#utility.yul\":3872:3873   */\n      dup1\n        /* \"#utility.yul\":3865:3877   */\n      revert\n        /* \"#utility.yul\":3827:3879   */\n    tag_288:\n      pop\n        /* \"#utility.yul\":3898:3914   */\n      mload\n      swap2\n        /* \"#utility.yul\":3736:3920   */\n      swap1\n      pop\n      jump\t// out\n        /* \"#utility.yul\":4227:4504   */\n    tag_111:\n        /* \"#utility.yul\":4294:4300   */\n      0x00\n        /* \"#utility.yul\":4347:4349   */\n      0x20\n        /* \"#utility.yul\":4335:4344   */\n      dup3\n        /* \"#utility.yul\":4326:4333   */\n      dup5\n        /* \"#utility.yul\":4322:4345   */\n      sub\n        /* \"#utility.yul\":4318:4350   */\n      slt\n        /* \"#utility.yul\":4315:4367   */\n      iszero\n      tag_291\n      jumpi\n        /* \"#utility.yul\":4363:4364   */\n      0x00\n        /* \"#utility.yul\":4360:4361   */\n      dup1\n        /* \"#utility.yul\":4353:4365   */\n      revert\n        /* \"#utility.yul\":4315:4367   */\n    tag_291:\n        /* \"#utility.yul\":4395:4404   */\n      dup2\n        /* \"#utility.yul\":4389:4405   */\n      mload\n        /* \"#utility.yul\":4448:4453   */\n      dup1\n        /* \"#utility.yul\":4441:4454   */\n      iszero\n        /* \"#utility.yul\":4434:4455   */\n      iszero\n        /* \"#utility.yul\":4427:4432   */\n      dup2\n        /* \"#utility.yul\":4424:4456   */\n      eq\n        /* \"#utility.yul\":4414:4474   */\n      tag_280\n      jumpi\n        /* \"#utility.yul\":4470:4471   */\n      0x00\n        /* \"#utility.yul\":4467:4468   */\n      dup1\n        /* \"#utility.yul\":4460:4472   */\n      revert\n        /* \"#utility.yul\":5559:5743   */\n    tag_261:\n        /* \"#utility.yul\":5611:5688   */\n      0x4e487b7100000000000000000000000000000000000000000000000000000000\n        /* \"#utility.yul\":5608:5609   */\n      0x00\n        /* \"#utility.yul\":5601:5689   */\n      mstore\n        /* \"#utility.yul\":5708:5712   */\n      0x11\n        /* \"#utility.yul\":5705:5706   */\n      0x04\n        /* \"#utility.yul\":5698:5713   */\n      mstore\n        /* \"#utility.yul\":5732:5736   */\n      0x24\n        /* \"#utility.yul\":5729:5730   */\n      0x00\n        /* \"#utility.yul\":5722:5737   */\n      revert\n        /* \"#utility.yul\":5748:5873   */\n    tag_160:\n        /* \"#utility.yul\":5813:5822   */\n      dup1\n      dup3\n      add\n        /* \"#utility.yul\":5834:5844   */\n      dup1\n      dup3\n      gt\n        /* \"#utility.yul\":5831:5867   */\n      iszero\n      tag_137\n      jumpi\n        /* \"#utility.yul\":5847:5865   */\n      tag_137\n      tag_261\n      jump\t// in\n        /* \"#utility.yul\":5878:6769   */\n    tag_162:\n        /* \"#utility.yul\":6182:6186   */\n      0x00\n        /* \"#utility.yul\":6211:6214   */\n      0x0100\n        /* \"#utility.yul\":6233:6275   */\n      0xffffffffffffffffffffffffffffffffffffffff\n        /* \"#utility.yul\":6314:6316   */\n      dup1\n        /* \"#utility.yul\":6306:6312   */\n      dup13\n        /* \"#utility.yul\":6302:6317   */\n      and\n        /* \"#utility.yul\":6291:6300   */\n      dup5\n        /* \"#utility.yul\":6284:6318   */\n      mstore\n        /* \"#utility.yul\":6354:6360   */\n      dup11\n        /* \"#utility.yul\":6349:6351   */\n      0x20\n        /* \"#utility.yul\":6338:6347   */\n      dup6\n        /* \"#utility.yul\":6334:6352   */\n      add\n        /* \"#utility.yul\":6327:6361   */\n      mstore\n        /* \"#utility.yul\":6397:6403   */\n      dup10\n        /* \"#utility.yul\":6392:6394   */\n      0x40\n        /* \"#utility.yul\":6381:6390   */\n      dup6\n        /* \"#utility.yul\":6377:6395   */\n      add\n        /* \"#utility.yul\":6370:6404   */\n      mstore\n        /* \"#utility.yul\":6452:6454   */\n      dup1\n        /* \"#utility.yul\":6444:6450   */\n      dup10\n        /* \"#utility.yul\":6440:6455   */\n      and\n        /* \"#utility.yul\":6435:6437   */\n      0x60\n        /* \"#utility.yul\":6424:6433   */\n      dup6\n        /* \"#utility.yul\":6420:6438   */\n      add\n        /* \"#utility.yul\":6413:6456   */\n      mstore\n      pop\n        /* \"#utility.yul\":6505:6571   */\n      0xffffffff00000000000000000000000000000000000000000000000000000000\n        /* \"#utility.yul\":6497:6503   */\n      dup8\n        /* \"#utility.yul\":6493:6572   */\n      and\n        /* \"#utility.yul\":6487:6490   */\n      0x80\n        /* \"#utility.yul\":6476:6485   */\n      dup5\n        /* \"#utility.yul\":6472:6491   */\n      add\n        /* \"#utility.yul\":6465:6573   */\n      mstore\n        /* \"#utility.yul\":6610:6616   */\n      dup6\n        /* \"#utility.yul\":6604:6607   */\n      0xa0\n        /* \"#utility.yul\":6593:6602   */\n      dup5\n        /* \"#utility.yul\":6589:6608   */\n      add\n        /* \"#utility.yul\":6582:6617   */\n      mstore\n        /* \"#utility.yul\":6654:6660   */\n      dup5\n        /* \"#utility.yul\":6648:6651   */\n      0xc0\n        /* \"#utility.yul\":6637:6646   */\n      dup5\n        /* \"#utility.yul\":6633:6652   */\n      add\n        /* \"#utility.yul\":6626:6661   */\n      mstore\n        /* \"#utility.yul\":6698:6700   */\n      dup1\n        /* \"#utility.yul\":6692:6695   */\n      0xe0\n        /* \"#utility.yul\":6681:6690   */\n      dup5\n        /* \"#utility.yul\":6677:6696   */\n      add\n        /* \"#utility.yul\":6670:6701   */\n      mstore\n        /* \"#utility.yul\":6718:6763   */\n      tag_301\n        /* \"#utility.yul\":6759:6761   */\n      dup2\n        /* \"#utility.yul\":6748:6757   */\n      dup5\n        /* \"#utility.yul\":6744:6762   */\n      add\n        /* \"#utility.yul\":6736:6742   */\n      dup6\n        /* \"#utility.yul\":6718:6763   */\n      tag_260\n      jump\t// in\n    tag_301:\n        /* \"#utility.yul\":6710:6763   */\n      swap12\n        /* \"#utility.yul\":5878:6769   */\n      swap11\n      pop\n      pop\n      pop\n      pop\n      pop\n      pop\n      pop\n      pop\n      pop\n      pop\n      pop\n      jump\t// out\n        /* \"#utility.yul\":6774:7040   */\n    tag_169:\n        /* \"#utility.yul\":6806:6807   */\n      0x00\n        /* \"#utility.yul\":6832:6833   */\n      dup3\n        /* \"#utility.yul\":6822:7011   */\n      tag_303\n      jumpi\n        /* \"#utility.yul\":6867:6944   */\n      0x4e487b7100000000000000000000000000000000000000000000000000000000\n        /* \"#utility.yul\":6864:6865   */\n      0x00\n        /* \"#utility.yul\":6857:6945   */\n      mstore\n        /* \"#utility.yul\":6968:6972   */\n      0x12\n        /* \"#utility.yul\":6965:6966   */\n      0x04\n        /* \"#utility.yul\":6958:6973   */\n      mstore\n        /* \"#utility.yul\":6996:7000   */\n      0x24\n        /* \"#utility.yul\":6993:6994   */\n      0x00\n        /* \"#utility.yul\":6986:7001   */\n      revert\n        /* \"#utility.yul\":6822:7011   */\n    tag_303:\n      pop\n        /* \"#utility.yul\":7025:7034   */\n      mod\n      swap1\n        /* \"#utility.yul\":6774:7040   */\n      jump\t// out\n        /* \"#utility.yul\":7045:7173   */\n    tag_173:\n        /* \"#utility.yul\":7112:7121   */\n      dup2\n      dup2\n      sub\n        /* \"#utility.yul\":7133:7144   */\n      dup2\n      dup2\n      gt\n        /* \"#utility.yul\":7130:7167   */\n      iszero\n      tag_137\n      jumpi\n        /* \"#utility.yul\":7147:7165   */\n      tag_137\n      tag_261\n      jump\t// in\n        /* \"#utility.yul\":7535:7944   */\n    tag_203:\n        /* \"#utility.yul\":7750:7792   */\n      0xffffffffffffffffffffffffffffffffffffffff\n        /* \"#utility.yul\":7742:7748   */\n      dup5\n        /* \"#utility.yul\":7738:7793   */\n      and\n        /* \"#utility.yul\":7727:7736   */\n      dup2\n        /* \"#utility.yul\":7720:7794   */\n      mstore\n        /* \"#utility.yul\":7830:7836   */\n      dup3\n        /* \"#utility.yul\":7825:7827   */\n      0x20\n        /* \"#utility.yul\":7814:7823   */\n      dup3\n        /* \"#utility.yul\":7810:7828   */\n      add\n        /* \"#utility.yul\":7803:7837   */\n      mstore\n        /* \"#utility.yul\":7873:7875   */\n      0x60\n        /* \"#utility.yul\":7868:7870   */\n      0x40\n        /* \"#utility.yul\":7857:7866   */\n      dup3\n        /* \"#utility.yul\":7853:7871   */\n      add\n        /* \"#utility.yul\":7846:7876   */\n      mstore\n        /* \"#utility.yul\":7701:7705   */\n      0x00\n        /* \"#utility.yul\":7893:7938   */\n      tag_131\n        /* \"#utility.yul\":7934:7936   */\n      0x60\n        /* \"#utility.yul\":7923:7932   */\n      dup4\n        /* \"#utility.yul\":7919:7937   */\n      add\n        /* \"#utility.yul\":7911:7917   */\n      dup5\n        /* \"#utility.yul\":7893:7938   */\n      tag_260\n      jump\t// in\n        /* \"#utility.yul\":8353:8521   */\n    tag_228:\n        /* \"#utility.yul\":8426:8435   */\n      dup1\n      dup3\n      mul\n        /* \"#utility.yul\":8457:8466   */\n      dup2\n      iszero\n        /* \"#utility.yul\":8474:8489   */\n      dup3\n      dup3\n      div\n        /* \"#utility.yul\":8468:8490   */\n      dup5\n      eq\n        /* \"#utility.yul\":8454:8491   */\n      or\n        /* \"#utility.yul\":8444:8515   */\n      tag_137\n      jumpi\n        /* \"#utility.yul\":8495:8513   */\n      tag_137\n      tag_261\n      jump\t// in\n        /* \"#utility.yul\":8526:9008   */\n    tag_262:\n        /* \"#utility.yul\":8615:8616   */\n      0x01\n        /* \"#utility.yul\":8658:8663   */\n      dup2\n        /* \"#utility.yul\":8615:8616   */\n      dup2\n        /* \"#utility.yul\":8672:9002   */\n    tag_315:\n        /* \"#utility.yul\":8693:8700   */\n      dup1\n        /* \"#utility.yul\":8683:8691   */\n      dup6\n        /* \"#utility.yul\":8680:8701   */\n      gt\n        /* \"#utility.yul\":8672:9002   */\n      iszero\n      tag_317\n      jumpi\n        /* \"#utility.yul\":8812:8816   */\n      dup2\n        /* \"#utility.yul\":8744:8810   */\n      0xffffffffffffffffffffffffffffffffffffffffffffffffffffffffffffffff\n        /* \"#utility.yul\":8740:8817   */\n      div\n        /* \"#utility.yul\":8734:8738   */\n      dup3\n        /* \"#utility.yul\":8731:8818   */\n      gt\n        /* \"#utility.yul\":8728:8841   */\n      iszero\n      tag_319\n      jumpi\n        /* \"#utility.yul\":8821:8839   */\n      tag_319\n      tag_261\n      jump\t// in\n    tag_319:\n        /* \"#utility.yul\":8871:8878   */\n      dup1\n        /* \"#utility.yul\":8861:8869   */\n      dup6\n        /* \"#utility.yul\":8857:8879   */\n      and\n        /* \"#utility.yul\":8854:8909   */\n      iszero\n      tag_320\n      jumpi\n        /* \"#utility.yul\":8891:8907   */\n      swap2\n      dup2\n      mul\n      swap2\n        /* \"#utility.yul\":8854:8909   */\n    tag_320:\n        /* \"#utility.yul\":8970:8992   */\n      swap4\n      dup5\n      shr\n      swap4\n        /* \"#utility.yul\":8930:8945   */\n      swap1\n      dup1\n      mul\n      swap1\n        /* \"#utility.yul\":8672:9002   */\n      jump(tag_315)\n    tag_317:\n        /* \"#utility.yul\":8676:8679   */\n      pop\n        /* \"#utility.yul\":8526:9008   */\n      swap3\n      pop\n      swap3\n      swap1\n      pop\n      jump\t// out\n        /* \"#utility.yul\":9013:9879   */\n    tag_263:\n        /* \"#utility.yul\":9062:9067   */\n      0x00\n        /* \"#utility.yul\":9092:9100   */\n      dup3\n        /* \"#utility.yul\":9082:9162   */\n      tag_322\n      jumpi\n      pop\n        /* \"#utility.yul\":9133:9134   */\n      0x01\n        /* \"#utility.yul\":9147:9152   */\n      jump(tag_137)\n        /* \"#utility.yul\":9082:9162   */\n    tag_322:\n        /* \"#utility.yul\":9181:9185   */\n      dup2\n        /* \"#utility.yul\":9171:9247   */\n      tag_323\n      jumpi\n      pop\n        /* \"#utility.yul\":9218:9219   */\n      0x00\n        /* \"#utility.yul\":9232:9237   */\n      jump(tag_137)\n        /* \"#utility.yul\":9171:9247   */\n    tag_323:\n        /* \"#utility.yul\":9263:9267   */\n      dup2\n        /* \"#utility.yul\":9281:9282   */\n      0x01\n        /* \"#utility.yul\":9276:9335   */\n      dup2\n      eq\n      tag_325\n      jumpi\n        /* \"#utility.yul\":9349:9350   */\n      0x02\n        /* \"#utility.yul\":9344:9474   */\n      dup2\n      eq\n      tag_326\n      jumpi\n        /* \"#utility.yul\":9256:9474   */\n      jump(tag_324)\n        /* \"#utility.yul\":9276:9335   */\n    tag_325:\n        /* \"#utility.yul\":9306:9307   */\n      0x01\n        /* \"#utility.yul\":9297:9307   */\n      swap2\n      pop\n        /* \"#utility.yul\":9320:9325   */\n      pop\n      jump(tag_137)\n        /* \"#utility.yul\":9344:9474   */\n    tag_326:\n        /* \"#utility.yul\":9381:9384   */\n      0xff\n        /* \"#utility.yul\":9371:9379   */\n      dup5\n        /* \"#utility.yul\":9368:9385   */\n      gt\n        /* \"#utility.yul\":9365:9408   */\n      iszero\n      tag_328\n      jumpi\n        /* \"#utility.yul\":9388:9406   */\n      tag_328\n      tag_261\n      jump\t// in\n    tag_328:\n      pop\n      pop\n        /* \"#utility.yul\":9444:9445   */\n      0x01\n        /* \"#utility.yul\":9430:9446   */\n      dup3\n      shl\n        /* \"#utility.yul\":9459:9464   */\n      jump(tag_137)\n        /* \"#utility.yul\":9256:9474   */\n    tag_324:\n      pop\n        /* \"#utility.yul\":9558:9560   */\n      0x20\n        /* \"#utility.yul\":9548:9556   */\n      dup4\n        /* \"#utility.yul\":9545:9561   */\n      lt\n        /* \"#utility.yul\":9539:9542   */\n      0x0133\n        /* \"#utility.yul\":9533:9537   */\n      dup4\n        /* \"#utility.yul\":9530:9543   */\n      lt\n        /* \"#utility.yul\":9526:9562   */\n      and\n        /* \"#utility.yul\":9520:9522   */\n      0x4e\n        /* \"#utility.yul\":9510:9518   */\n      dup5\n        /* \"#utility.yul\":9507:9523   */\n      lt\n        /* \"#utility.yul\":9502:9504   */\n      0x0b\n        /* \"#utility.yul\":9496:9500   */\n      dup5\n        /* \"#utility.yul\":9493:9505   */\n      lt\n        /* \"#utility.yul\":9489:9524   */\n      and\n        /* \"#utility.yul\":9486:9563   */\n      or\n        /* \"#utility.yul\":9483:9642   */\n      iszero\n      tag_329\n      jumpi\n      pop\n        /* \"#utility.yul\":9595:9614   */\n      dup2\n      dup2\n      exp\n        /* \"#utility.yul\":9627:9632   */\n      jump(tag_137)\n        /* \"#utility.yul\":9483:9642   */\n    tag_329:\n        /* \"#utility.yul\":9674:9708   */\n      tag_330\n        /* \"#utility.yul\":9699:9707   */\n      dup4\n        /* \"#utility.yul\":9693:9697   */\n      dup4\n        /* \"#utility.yul\":9674:9708   */\n      tag_262\n      jump\t// in\n    tag_330:\n        /* \"#utility.yul\":9804:9810   */\n      dup1\n        /* \"#utility.yul\":9736:9802   */\n      0xffffffffffffffffffffffffffffffffffffffffffffffffffffffffffffffff\n        /* \"#utility.yul\":9732:9811   */\n      div\n        /* \"#utility.yul\":9723:9730   */\n      dup3\n        /* \"#utility.yul\":9720:9812   */\n      gt\n        /* \"#utility.yul\":9717:9835   */\n      iszero\n      tag_332\n      jumpi\n        /* \"#utility.yul\":9815:9833   */\n      tag_332\n      tag_261\n      jump\t// in\n    tag_332:\n        /* \"#utility.yul\":9853:9873   */\n      mul\n      swap4\n        /* \"#utility.yul\":9013:9879   */\n      swap3\n      pop\n      pop\n      pop\n      jump\t// out\n        /* \"#utility.yul\":9884:10015   */\n    tag_251:\n        /* \"#utility.yul\":9944:9949   */\n      0x00\n        /* \"#utility.yul\":9973:10009   */\n      tag_138\n        /* \"#utility.yul\":10000:10008   */\n      dup4\n        /* \"#utility.yul\":9994:9998   */\n      dup4\n        /* \"#utility.yul\":9973:10009   */\n      tag_263\n      jump\t// in\n\n    auxdata: 0xa2646970667358221220c79697693d2d06bb08d8231adf686dcea11dca8dc6ec837637ec501205d301fc64736f6c63430008130033\n}\n",
				"bytecode": {
					"linkReferences": {},
					"object": "608060405260016004553480156200001657600080fd5b5060405162001c9138038062001c91833981016040819052620000399162000389565b3380600081620000905760405162461bcd60e51b815260206004820152601860248201527f43616e6e6f7420736574206f776e657220746f207a65726f000000000000000060448201526064015b60405180910390fd5b600680546001600160a01b0319166001600160a01b0384811691909117909155811615620000c357620000c38162000272565b50505060006040518060600160405280602d815260200162001c64602d913960408051808201909152600a8152692f7374616e64696e677360b01b6020820152909150600e620001148482620004d0565b50620001c281620001bb600e80546200012d9062000441565b80601f01602080910402602001604051908101604052809291908181526020018280546200015b9062000441565b8015620001ac5780601f106200018057610100808354040283529160200191620001ac565b820191906000526020600020905b8154815290600101906020018083116200018e57829003601f168201915b5089949350506200031e915050565b906200031e565b600d90620001d19082620004d0565b50600380546001600160a01b031916737ca7215c6b8013f249a195cc107f97c4e623e5f5179055600280546001600160a01b03191673326c977e6efc84e512bb9c30f76e30c160ed06fb1790557f6364336135663864636163323435653961336666353864353962343435353935600b55600a62000259670de0b6b3a764000060016200059c565b620002659190620005c2565b600c555062000618915050565b336001600160a01b03821603620002cc5760405162461bcd60e51b815260206004820152601760248201527f43616e6e6f74207472616e7366657220746f2073656c66000000000000000000604482015260640162000087565b600780546001600160a01b0319166001600160a01b03838116918217909255600654604051919216907fed8889f560326eb138920d842192f0eb3dd22b4f139c87a2c57538e05bae127890600090a350565b6060828260405160200162000335929190620005e5565b60405160208183030381529060405290505b92915050565b634e487b7160e01b600052604160045260246000fd5b60005b838110156200038057818101518382015260200162000366565b50506000910152565b6000602082840312156200039c57600080fd5b81516001600160401b0380821115620003b457600080fd5b818401915084601f830112620003c957600080fd5b815181811115620003de57620003de6200034d565b604051601f8201601f19908116603f011681019083821181831017156200040957620004096200034d565b816040528281528760208487010111156200042357600080fd5b6200043683602083016020880162000363565b979650505050505050565b600181811c908216806200045657607f821691505b6020821081036200047757634e487b7160e01b600052602260045260246000fd5b50919050565b601f821115620004cb57600081815260208120601f850160051c81016020861015620004a65750805b601f850160051c820191505b81811015620004c757828155600101620004b2565b5050505b505050565b81516001600160401b03811115620004ec57620004ec6200034d565b6200050481620004fd845462000441565b846200047d565b602080601f8311600181146200053c5760008415620005235750858301515b600019600386901b1c1916600185901b178555620004c7565b600085815260208120601f198616915b828110156200056d578886015182559484019460019091019084016200054c565b50858210156200058c5787850151600019600388901b60f8161c191681555b5050505050600190811b01905550565b80820281158282048414176200034757634e487b7160e01b600052601160045260246000fd5b600082620005e057634e487b7160e01b600052601260045260246000fd5b500490565b60008351620005f981846020880162000363565b8351908301906200060f81836020880162000363565b01949350505050565b61163c80620006286000396000f3fe608060405234801561001057600080fd5b50600436106100df5760003560e01c80638dc654a21161008c578063d9b2929711610066578063d9b292971461018e578063dfbf53ae146101a3578063f2fde38b146101ac578063f81b5c5b146101bf57600080fd5b80638dc654a2146101605780639ae2c3c614610168578063a8d542611461017b57600080fd5b806378a7d3af116100bd57806378a7d3af1461012857806379ba5097146101305780638da5cb5b1461013857600080fd5b806301a3694e146100e45780630df71602146101005780633d5d323614610115575b600080fd5b6100ed60095481565b6040519081526020015b60405180910390f35b61011361010e3660046111ee565b600855565b005b610113610123366004611207565b6101c8565b6100ed610330565b610113610475565b60065460405173ffffffffffffffffffffffffffffffffffffffff90911681526020016100f7565b610113610576565b6101136101763660046111ee565b600a55565b6101136101893660046111ee565b600955565b610196610737565b6040516100f7919061129d565b6100ed60085481565b6101136101ba3660046112b0565b6107c5565b6100ed600a5481565b600084815260056020526040902054849073ffffffffffffffffffffffffffffffffffffffff163314610282576040517f08c379a000000000000000000000000000000000000000000000000000000000815260206004820152602860248201527f536f75726365206d75737420626520746865206f7261636c65206f662074686560448201527f207265717565737400000000000000000000000000000000000000000000000060648201526084015b60405180910390fd5b60008181526005602052604080822080547fffffffffffffffffffffffff00000000000000000000000000000000000000001690555182917f7cc135e0cebb02c3480ae5d74d377283180a2601f8f644edf7987b009316c63a91a2604080518581526020810185905290810183905285907f539e5682d95ed725b9a92ef19aefc24d6e1bc6aa39ab4f2ac96a3e48f1dd2e469060600160405180910390a250600892909255600955600a5550565b600080610347600b5430633d5d323660e01b6107d6565b905061041d6040518060400160405280600381526020017f6765740000000000000000000000000000000000000000000000000000000000815250600d805461038f906112ed565b80601f01602080910402602001604051908101604052809291908181526020018280546103bb906112ed565b80156104085780601f106103dd57610100808354040283529160200191610408565b820191906000526020600020905b8154815290600101906020018083116103eb57829003601f168201915b5050505050836108679092919063ffffffff16565b6104636040518060400160405280600681526020017f6c65616775650000000000000000000000000000000000000000000000000000815250600e805461038f906112ed565b61046f81600c5461088a565b91505090565b60075473ffffffffffffffffffffffffffffffffffffffff1633146104f6576040517f08c379a000000000000000000000000000000000000000000000000000000000815260206004820152601660248201527f4d7573742062652070726f706f736564206f776e6572000000000000000000006044820152606401610279565b600680547fffffffffffffffffffffffff00000000000000000000000000000000000000008082163390811790935560078054909116905560405173ffffffffffffffffffffffffffffffffffffffff909116919082907f8be0079c531659141344cd1fd0a4f28419497f9722a3daafe3b4186f6b6457e090600090a350565b61057e6108ba565b600061059f60025473ffffffffffffffffffffffffffffffffffffffff1690565b6040517f70a0823100000000000000000000000000000000000000000000000000000000815230600482015290915073ffffffffffffffffffffffffffffffffffffffff82169063a9059cbb90339083906370a0823190602401602060405180830381865afa158015610616573d6000803e3d6000fd5b505050506040513d601f19601f8201168201806040525081019061063a919061133a565b6040517fffffffff0000000000000000000000000000000000000000000000000000000060e085901b16815273ffffffffffffffffffffffffffffffffffffffff909216600483015260248201526044016020604051808303816000875af11580156106aa573d6000803e3d6000fd5b505050506040513d601f19601f820116820180604052508101906106ce9190611353565b610734576040517f08c379a000000000000000000000000000000000000000000000000000000000815260206004820152601260248201527f556e61626c6520746f207472616e7366657200000000000000000000000000006044820152606401610279565b50565b600e8054610744906112ed565b80601f0160208091040260200160405190810160405280929190818152602001828054610770906112ed565b80156107bd5780601f10610792576101008083540402835291602001916107bd565b820191906000526020600020905b8154815290600101906020018083116107a057829003601f168201915b505050505081565b6107cd6108ba565b6107348161093d565b6108146040805160a0810182526000808252602080830182905282840182905260608084018390528451808601909552845283015290608082015290565b6108526040805160a0810182526000808252602080830182905282840182905260608084018390528451808601909552845283015290608082015290565b61085e81868686610a33565b95945050505050565b60808301516108769083610ad4565b60808301516108859082610ad4565b505050565b6003546000906108b19073ffffffffffffffffffffffffffffffffffffffff168484610aeb565b90505b92915050565b60065473ffffffffffffffffffffffffffffffffffffffff16331461093b576040517f08c379a000000000000000000000000000000000000000000000000000000000815260206004820152601660248201527f4f6e6c792063616c6c61626c65206279206f776e6572000000000000000000006044820152606401610279565b565b3373ffffffffffffffffffffffffffffffffffffffff8216036109bc576040517f08c379a000000000000000000000000000000000000000000000000000000000815260206004820152601760248201527f43616e6e6f74207472616e7366657220746f2073656c660000000000000000006044820152606401610279565b600780547fffffffffffffffffffffffff00000000000000000000000000000000000000001673ffffffffffffffffffffffffffffffffffffffff838116918217909255600654604051919216907fed8889f560326eb138920d842192f0eb3dd22b4f139c87a2c57538e05bae127890600090a350565b610a716040805160a0810182526000808252602080830182905282840182905260608084018390528451808601909552845283015290608082015290565b610a818560800151610100610be2565b505082845273ffffffffffffffffffffffffffffffffffffffff821660208501527fffffffff0000000000000000000000000000000000000000000000000000000081166040850152835b949350505050565b610ae18260038351610c47565b6108858282610d5c565b600454600090610afc8160016113a4565b600455835160408086015160808701515191516000937f404299460000000000000000000000000000000000000000000000000000000093610b4d9386938493923092918a916001916024016113b7565b604080517fffffffffffffffffffffffffffffffffffffffffffffffffffffffffffffffe08184030181529190526020810180517bffffffffffffffffffffffffffffffffffffffffffffffffffffffff167fffffffff00000000000000000000000000000000000000000000000000000000909316929092179091529050610bd886838684610d83565b9695505050505050565b604080518082019091526060815260006020820152610c02602083611440565b15610c2a57610c12602083611440565b610c1d90602061147b565b610c2790836113a4565b91505b506020828101829052604080518085526000815290920101905290565b60178167ffffffffffffffff1611610c7257610c6c8360e0600585901b168317610f91565b50505050565b60ff8167ffffffffffffffff1611610cb057610c99836018611fe0600586901b1617610f91565b50610c6c8367ffffffffffffffff83166001610fb6565b61ffff8167ffffffffffffffff1611610cef57610cd8836019611fe0600586901b1617610f91565b50610c6c8367ffffffffffffffff83166002610fb6565b63ffffffff8167ffffffffffffffff1611610d3057610d1983601a611fe0600586901b1617610f91565b50610c6c8367ffffffffffffffff83166004610fb6565b610d4583601b611fe0600586901b1617610f91565b50610c6c8367ffffffffffffffff83166008610fb6565b6040805180820190915260608152600060208201526108b183846000015151848551610fdc565b6040517fffffffffffffffffffffffffffffffffffffffff0000000000000000000000003060601b16602082015260348101849052600090605401604080518083037fffffffffffffffffffffffffffffffffffffffffffffffffffffffffffffffe001815282825280516020918201206000818152600590925291812080547fffffffffffffffffffffffff00000000000000000000000000000000000000001673ffffffffffffffffffffffffffffffffffffffff8a1617905590925082917fb5e6e01e79f91267dc17b4e6314d5d4d03593d2ceee0fbb452b750bd70ea5af99190a26002546040517f4000aea000000000000000000000000000000000000000000000000000000000815273ffffffffffffffffffffffffffffffffffffffff90911690634000aea090610ec29088908790879060040161148e565b6020604051808303816000875af1158015610ee1573d6000803e3d6000fd5b505050506040513d601f19601f82011682018060405250810190610f059190611353565b610acc576040517f08c379a000000000000000000000000000000000000000000000000000000000815260206004820152602360248201527f756e61626c6520746f207472616e73666572416e6443616c6c20746f206f726160448201527f636c6500000000000000000000000000000000000000000000000000000000006064820152608401610279565b6040805180820190915260608152600060208201526108b183846000015151846110e4565b604080518082019091526060815260006020820152610acc84856000015151858561113f565b6040805180820190915260608152600060208201528251821115610fff57600080fd5b602085015161100e83866113a4565b111561104157611041856110318760200151878661102c91906113a4565b6111c0565b61103c9060026114c3565b6111d7565b6000808651805187602083010193508088870111156110605787860182525b505050602084015b602084106110a0578051825261107f6020836113a4565b915061108c6020826113a4565b905061109960208561147b565b9350611068565b5181517fffffffffffffffffffffffffffffffffffffffffffffffffffffffffffffffff60208690036101000a019081169019919091161790525083949350505050565b6040805180820190915260608152600060208201528360200151831061111957611119848560200151600261103c91906114c3565b8351805160208583010184815350808503611135576001810182525b5093949350505050565b604080518082019091526060815260006020820152602085015161116385846113a4565b1115611177576111778561103186856113a4565b60006001611187846101006115fa565b611191919061147b565b90508551838682010185831982511617815250805184870111156111b55783860181525b509495945050505050565b6000818311156111d15750816108b4565b50919050565b81516111e38383610be2565b50610c6c8382610d5c565b60006020828403121561120057600080fd5b5035919050565b6000806000806080858703121561121d57600080fd5b5050823594602084013594506040840135936060013592509050565b6000815180845260005b8181101561125f57602081850181015186830182015201611243565b5060006020828601015260207fffffffffffffffffffffffffffffffffffffffffffffffffffffffffffffffe0601f83011685010191505092915050565b6020815260006108b16020830184611239565b6000602082840312156112c257600080fd5b813573ffffffffffffffffffffffffffffffffffffffff811681146112e657600080fd5b9392505050565b600181811c9082168061130157607f821691505b6020821081036111d1577f4e487b7100000000000000000000000000000000000000000000000000000000600052602260045260246000fd5b60006020828403121561134c57600080fd5b5051919050565b60006020828403121561136557600080fd5b815180151581146112e657600080fd5b7f4e487b7100000000000000000000000000000000000000000000000000000000600052601160045260246000fd5b808201808211156108b4576108b4611375565b600061010073ffffffffffffffffffffffffffffffffffffffff808c1684528a60208501528960408501528089166060850152507fffffffff00000000000000000000000000000000000000000000000000000000871660808401528560a08401528460c08401528060e084015261143181840185611239565b9b9a5050505050505050505050565b600082611476577f4e487b7100000000000000000000000000000000000000000000000000000000600052601260045260246000fd5b500690565b818103818111156108b4576108b4611375565b73ffffffffffffffffffffffffffffffffffffffff8416815282602082015260606040820152600061085e6060830184611239565b80820281158282048414176108b4576108b4611375565b600181815b8085111561153357817fffffffffffffffffffffffffffffffffffffffffffffffffffffffffffffffff0482111561151957611519611375565b8085161561152657918102915b93841c93908002906114df565b509250929050565b60008261154a575060016108b4565b81611557575060006108b4565b816001811461156d576002811461157757611593565b60019150506108b4565b60ff84111561158857611588611375565b50506001821b6108b4565b5060208310610133831016604e8410600b84101617156115b6575081810a6108b4565b6115c083836114da565b807fffffffffffffffffffffffffffffffffffffffffffffffffffffffffffffffff048211156115f2576115f2611375565b029392505050565b60006108b1838361153b56fea2646970667358221220c79697693d2d06bb08d8231adf686dcea11dca8dc6ec837637ec501205d301fc64736f6c63430008130033687474703a2f2f6170692e666f6f7462616c6c2d646174612e6f72672f76342f636f6d7065746974696f6e732f",
					"opcodes": "PUSH1 0x80 PUSH1 0x40 MSTORE PUSH1 0x1 PUSH1 0x4 SSTORE CALLVALUE DUP1 ISZERO PUSH3 0x16 JUMPI PUSH1 0x0 DUP1 REVERT JUMPDEST POP PUSH1 0x40 MLOAD PUSH3 0x1C91 CODESIZE SUB DUP1 PUSH3 0x1C91 DUP4 CODECOPY DUP2 ADD PUSH1 0x40 DUP2 SWAP1 MSTORE PUSH3 0x39 SWAP2 PUSH3 0x389 JUMP JUMPDEST CALLER DUP1 PUSH1 0x0 DUP2 PUSH3 0x90 JUMPI PUSH1 0x40 MLOAD PUSH3 0x461BCD PUSH1 0xE5 SHL DUP2 MSTORE PUSH1 0x20 PUSH1 0x4 DUP3 ADD MSTORE PUSH1 0x18 PUSH1 0x24 DUP3 ADD MSTORE PUSH32 0x43616E6E6F7420736574206F776E657220746F207A65726F0000000000000000 PUSH1 0x44 DUP3 ADD MSTORE PUSH1 0x64 ADD JUMPDEST PUSH1 0x40 MLOAD DUP1 SWAP2 SUB SWAP1 REVERT JUMPDEST PUSH1 0x6 DUP1 SLOAD PUSH1 0x1 PUSH1 0x1 PUSH1 0xA0 SHL SUB NOT AND PUSH1 0x1 PUSH1 0x1 PUSH1 0xA0 SHL SUB DUP5 DUP2 AND SWAP2 SWAP1 SWAP2 OR SWAP1 SWAP2 SSTORE DUP2 AND ISZERO PUSH3 0xC3 JUMPI PUSH3 0xC3 DUP2 PUSH3 0x272 JUMP JUMPDEST POP POP POP PUSH1 0x0 PUSH1 0x40 MLOAD DUP1 PUSH1 0x60 ADD PUSH1 0x40 MSTORE DUP1 PUSH1 0x2D DUP2 MSTORE PUSH1 0x20 ADD PUSH3 0x1C64 PUSH1 0x2D SWAP2 CODECOPY PUSH1 0x40 DUP1 MLOAD DUP1 DUP3 ADD SWAP1 SWAP2 MSTORE PUSH1 0xA DUP2 MSTORE PUSH10 0x2F7374616E64696E6773 PUSH1 0xB0 SHL PUSH1 0x20 DUP3 ADD MSTORE SWAP1 SWAP2 POP PUSH1 0xE PUSH3 0x114 DUP5 DUP3 PUSH3 0x4D0 JUMP JUMPDEST POP PUSH3 0x1C2 DUP2 PUSH3 0x1BB PUSH1 0xE DUP1 SLOAD PUSH3 0x12D SWAP1 PUSH3 0x441 JUMP JUMPDEST DUP1 PUSH1 0x1F ADD PUSH1 0x20 DUP1 SWAP2 DIV MUL PUSH1 0x20 ADD PUSH1 0x40 MLOAD SWAP1 DUP2 ADD PUSH1 0x40 MSTORE DUP1 SWAP3 SWAP2 SWAP1 DUP2 DUP2 MSTORE PUSH1 0x20 ADD DUP3 DUP1 SLOAD PUSH3 0x15B SWAP1 PUSH3 0x441 JUMP JUMPDEST DUP1 ISZERO PUSH3 0x1AC JUMPI DUP1 PUSH1 0x1F LT PUSH3 0x180 JUMPI PUSH2 0x100 DUP1 DUP4 SLOAD DIV MUL DUP4 MSTORE SWAP2 PUSH1 0x20 ADD SWAP2 PUSH3 0x1AC JUMP JUMPDEST DUP3 ADD SWAP2 SWAP1 PUSH1 0x0 MSTORE PUSH1 0x20 PUSH1 0x0 KECCAK256 SWAP1 JUMPDEST DUP2 SLOAD DUP2 MSTORE SWAP1 PUSH1 0x1 ADD SWAP1 PUSH1 0x20 ADD DUP1 DUP4 GT PUSH3 0x18E JUMPI DUP3 SWAP1 SUB PUSH1 0x1F AND DUP3 ADD SWAP2 JUMPDEST POP DUP10 SWAP5 SWAP4 POP POP PUSH3 0x31E SWAP2 POP POP JUMP JUMPDEST SWAP1 PUSH3 0x31E JUMP JUMPDEST PUSH1 0xD SWAP1 PUSH3 0x1D1 SWAP1 DUP3 PUSH3 0x4D0 JUMP JUMPDEST POP PUSH1 0x3 DUP1 SLOAD PUSH1 0x1 PUSH1 0x1 PUSH1 0xA0 SHL SUB NOT AND PUSH20 0x7CA7215C6B8013F249A195CC107F97C4E623E5F5 OR SWAP1 SSTORE PUSH1 0x2 DUP1 SLOAD PUSH1 0x1 PUSH1 0x1 PUSH1 0xA0 SHL SUB NOT AND PUSH20 0x326C977E6EFC84E512BB9C30F76E30C160ED06FB OR SWAP1 SSTORE PUSH32 0x6364336135663864636163323435653961336666353864353962343435353935 PUSH1 0xB SSTORE PUSH1 0xA PUSH3 0x259 PUSH8 0xDE0B6B3A7640000 PUSH1 0x1 PUSH3 0x59C JUMP JUMPDEST PUSH3 0x265 SWAP2 SWAP1 PUSH3 0x5C2 JUMP JUMPDEST PUSH1 0xC SSTORE POP PUSH3 0x618 SWAP2 POP POP JUMP JUMPDEST CALLER PUSH1 0x1 PUSH1 0x1 PUSH1 0xA0 SHL SUB DUP3 AND SUB PUSH3 0x2CC JUMPI PUSH1 0x40 MLOAD PUSH3 0x461BCD PUSH1 0xE5 SHL DUP2 MSTORE PUSH1 0x20 PUSH1 0x4 DUP3 ADD MSTORE PUSH1 0x17 PUSH1 0x24 DUP3 ADD MSTORE PUSH32 0x43616E6E6F74207472616E7366657220746F2073656C66000000000000000000 PUSH1 0x44 DUP3 ADD MSTORE PUSH1 0x64 ADD PUSH3 0x87 JUMP JUMPDEST PUSH1 0x7 DUP1 SLOAD PUSH1 0x1 PUSH1 0x1 PUSH1 0xA0 SHL SUB NOT AND PUSH1 0x1 PUSH1 0x1 PUSH1 0xA0 SHL SUB DUP4 DUP2 AND SWAP2 DUP3 OR SWAP1 SWAP3 SSTORE PUSH1 0x6 SLOAD PUSH1 0x40 MLOAD SWAP2 SWAP3 AND SWAP1 PUSH32 0xED8889F560326EB138920D842192F0EB3DD22B4F139C87A2C57538E05BAE1278 SWAP1 PUSH1 0x0 SWAP1 LOG3 POP JUMP JUMPDEST PUSH1 0x60 DUP3 DUP3 PUSH1 0x40 MLOAD PUSH1 0x20 ADD PUSH3 0x335 SWAP3 SWAP2 SWAP1 PUSH3 0x5E5 JUMP JUMPDEST PUSH1 0x40 MLOAD PUSH1 0x20 DUP2 DUP4 SUB SUB DUP2 MSTORE SWAP1 PUSH1 0x40 MSTORE SWAP1 POP JUMPDEST SWAP3 SWAP2 POP POP JUMP JUMPDEST PUSH4 0x4E487B71 PUSH1 0xE0 SHL PUSH1 0x0 MSTORE PUSH1 0x41 PUSH1 0x4 MSTORE PUSH1 0x24 PUSH1 0x0 REVERT JUMPDEST PUSH1 0x0 JUMPDEST DUP4 DUP2 LT ISZERO PUSH3 0x380 JUMPI DUP2 DUP2 ADD MLOAD DUP4 DUP3 ADD MSTORE PUSH1 0x20 ADD PUSH3 0x366 JUMP JUMPDEST POP POP PUSH1 0x0 SWAP2 ADD MSTORE JUMP JUMPDEST PUSH1 0x0 PUSH1 0x20 DUP3 DUP5 SUB SLT ISZERO PUSH3 0x39C JUMPI PUSH1 0x0 DUP1 REVERT JUMPDEST DUP2 MLOAD PUSH1 0x1 PUSH1 0x1 PUSH1 0x40 SHL SUB DUP1 DUP3 GT ISZERO PUSH3 0x3B4 JUMPI PUSH1 0x0 DUP1 REVERT JUMPDEST DUP2 DUP5 ADD SWAP2 POP DUP5 PUSH1 0x1F DUP4 ADD SLT PUSH3 0x3C9 JUMPI PUSH1 0x0 DUP1 REVERT JUMPDEST DUP2 MLOAD DUP2 DUP2 GT ISZERO PUSH3 0x3DE JUMPI PUSH3 0x3DE PUSH3 0x34D JUMP JUMPDEST PUSH1 0x40 MLOAD PUSH1 0x1F DUP3 ADD PUSH1 0x1F NOT SWAP1 DUP2 AND PUSH1 0x3F ADD AND DUP2 ADD SWAP1 DUP4 DUP3 GT DUP2 DUP4 LT OR ISZERO PUSH3 0x409 JUMPI PUSH3 0x409 PUSH3 0x34D JUMP JUMPDEST DUP2 PUSH1 0x40 MSTORE DUP3 DUP2 MSTORE DUP8 PUSH1 0x20 DUP5 DUP8 ADD ADD GT ISZERO PUSH3 0x423 JUMPI PUSH1 0x0 DUP1 REVERT JUMPDEST PUSH3 0x436 DUP4 PUSH1 0x20 DUP4 ADD PUSH1 0x20 DUP9 ADD PUSH3 0x363 JUMP JUMPDEST SWAP8 SWAP7 POP POP POP POP POP POP POP JUMP JUMPDEST PUSH1 0x1 DUP2 DUP2 SHR SWAP1 DUP3 AND DUP1 PUSH3 0x456 JUMPI PUSH1 0x7F DUP3 AND SWAP2 POP JUMPDEST PUSH1 0x20 DUP3 LT DUP2 SUB PUSH3 0x477 JUMPI PUSH4 0x4E487B71 PUSH1 0xE0 SHL PUSH1 0x0 MSTORE PUSH1 0x22 PUSH1 0x4 MSTORE PUSH1 0x24 PUSH1 0x0 REVERT JUMPDEST POP SWAP2 SWAP1 POP JUMP JUMPDEST PUSH1 0x1F DUP3 GT ISZERO PUSH3 0x4CB JUMPI PUSH1 0x0 DUP2 DUP2 MSTORE PUSH1 0x20 DUP2 KECCAK256 PUSH1 0x1F DUP6 ADD PUSH1 0x5 SHR DUP2 ADD PUSH1 0x20 DUP7 LT ISZERO PUSH3 0x4A6 JUMPI POP DUP1 JUMPDEST PUSH1 0x1F DUP6 ADD PUSH1 0x5 SHR DUP3 ADD SWAP2 POP JUMPDEST DUP2 DUP2 LT ISZERO PUSH3 0x4C7 JUMPI DUP3 DUP2 SSTORE PUSH1 0x1 ADD PUSH3 0x4B2 JUMP JUMPDEST POP POP POP JUMPDEST POP POP POP JUMP JUMPDEST DUP2 MLOAD PUSH1 0x1 PUSH1 0x1 PUSH1 0x40 SHL SUB DUP2 GT ISZERO PUSH3 0x4EC JUMPI PUSH3 0x4EC PUSH3 0x34D JUMP JUMPDEST PUSH3 0x504 DUP2 PUSH3 0x4FD DUP5 SLOAD PUSH3 0x441 JUMP JUMPDEST DUP5 PUSH3 0x47D JUMP JUMPDEST PUSH1 0x20 DUP1 PUSH1 0x1F DUP4 GT PUSH1 0x1 DUP2 EQ PUSH3 0x53C JUMPI PUSH1 0x0 DUP5 ISZERO PUSH3 0x523 JUMPI POP DUP6 DUP4 ADD MLOAD JUMPDEST PUSH1 0x0 NOT PUSH1 0x3 DUP7 SWAP1 SHL SHR NOT AND PUSH1 0x1 DUP6 SWAP1 SHL OR DUP6 SSTORE PUSH3 0x4C7 JUMP JUMPDEST PUSH1 0x0 DUP6 DUP2 MSTORE PUSH1 0x20 DUP2 KECCAK256 PUSH1 0x1F NOT DUP7 AND SWAP2 JUMPDEST DUP3 DUP2 LT ISZERO PUSH3 0x56D JUMPI DUP9 DUP7 ADD MLOAD DUP3 SSTORE SWAP5 DUP5 ADD SWAP5 PUSH1 0x1 SWAP1 SWAP2 ADD SWAP1 DUP5 ADD PUSH3 0x54C JUMP JUMPDEST POP DUP6 DUP3 LT ISZERO PUSH3 0x58C JUMPI DUP8 DUP6 ADD MLOAD PUSH1 0x0 NOT PUSH1 0x3 DUP9 SWAP1 SHL PUSH1 0xF8 AND SHR NOT AND DUP2 SSTORE JUMPDEST POP POP POP POP POP PUSH1 0x1 SWAP1 DUP2 SHL ADD SWAP1 SSTORE POP JUMP JUMPDEST DUP1 DUP3 MUL DUP2 ISZERO DUP3 DUP3 DIV DUP5 EQ OR PUSH3 0x347 JUMPI PUSH4 0x4E487B71 PUSH1 0xE0 SHL PUSH1 0x0 MSTORE PUSH1 0x11 PUSH1 0x4 MSTORE PUSH1 0x24 PUSH1 0x0 REVERT JUMPDEST PUSH1 0x0 DUP3 PUSH3 0x5E0 JUMPI PUSH4 0x4E487B71 PUSH1 0xE0 SHL PUSH1 0x0 MSTORE PUSH1 0x12 PUSH1 0x4 MSTORE PUSH1 0x24 PUSH1 0x0 REVERT JUMPDEST POP DIV SWAP1 JUMP JUMPDEST PUSH1 0x0 DUP4 MLOAD PUSH3 0x5F9 DUP2 DUP5 PUSH1 0x20 DUP9 ADD PUSH3 0x363 JUMP JUMPDEST DUP4 MLOAD SWAP1 DUP4 ADD SWAP1 PUSH3 0x60F DUP2 DUP4 PUSH1 0x20 DUP9 ADD PUSH3 0x363 JUMP JUMPDEST ADD SWAP5 SWAP4 POP POP POP POP JUMP JUMPDEST PUSH2 0x163C DUP1 PUSH3 0x628 PUSH1 0x0 CODECOPY PUSH1 0x0 RETURN INVALID PUSH1 0x80 PUSH1 0x40 MSTORE CALLVALUE DUP1 ISZERO PUSH2 0x10 JUMPI PUSH1 0x0 DUP1 REVERT JUMPDEST POP PUSH1 0x4 CALLDATASIZE LT PUSH2 0xDF JUMPI PUSH1 0x0 CALLDATALOAD PUSH1 0xE0 SHR DUP1 PUSH4 0x8DC654A2 GT PUSH2 0x8C JUMPI DUP1 PUSH4 0xD9B29297 GT PUSH2 0x66 JUMPI DUP1 PUSH4 0xD9B29297 EQ PUSH2 0x18E JUMPI DUP1 PUSH4 0xDFBF53AE EQ PUSH2 0x1A3 JUMPI DUP1 PUSH4 0xF2FDE38B EQ PUSH2 0x1AC JUMPI DUP1 PUSH4 0xF81B5C5B EQ PUSH2 0x1BF JUMPI PUSH1 0x0 DUP1 REVERT JUMPDEST DUP1 PUSH4 0x8DC654A2 EQ PUSH2 0x160 JUMPI DUP1 PUSH4 0x9AE2C3C6 EQ PUSH2 0x168 JUMPI DUP1 PUSH4 0xA8D54261 EQ PUSH2 0x17B JUMPI PUSH1 0x0 DUP1 REVERT JUMPDEST DUP1 PUSH4 0x78A7D3AF GT PUSH2 0xBD JUMPI DUP1 PUSH4 0x78A7D3AF EQ PUSH2 0x128 JUMPI DUP1 PUSH4 0x79BA5097 EQ PUSH2 0x130 JUMPI DUP1 PUSH4 0x8DA5CB5B EQ PUSH2 0x138 JUMPI PUSH1 0x0 DUP1 REVERT JUMPDEST DUP1 PUSH4 0x1A3694E EQ PUSH2 0xE4 JUMPI DUP1 PUSH4 0xDF71602 EQ PUSH2 0x100 JUMPI DUP1 PUSH4 0x3D5D3236 EQ PUSH2 0x115 JUMPI JUMPDEST PUSH1 0x0 DUP1 REVERT JUMPDEST PUSH2 0xED PUSH1 0x9 SLOAD DUP2 JUMP JUMPDEST PUSH1 0x40 MLOAD SWAP1 DUP2 MSTORE PUSH1 0x20 ADD JUMPDEST PUSH1 0x40 MLOAD DUP1 SWAP2 SUB SWAP1 RETURN JUMPDEST PUSH2 0x113 PUSH2 0x10E CALLDATASIZE PUSH1 0x4 PUSH2 0x11EE JUMP JUMPDEST PUSH1 0x8 SSTORE JUMP JUMPDEST STOP JUMPDEST PUSH2 0x113 PUSH2 0x123 CALLDATASIZE PUSH1 0x4 PUSH2 0x1207 JUMP JUMPDEST PUSH2 0x1C8 JUMP JUMPDEST PUSH2 0xED PUSH2 0x330 JUMP JUMPDEST PUSH2 0x113 PUSH2 0x475 JUMP JUMPDEST PUSH1 0x6 SLOAD PUSH1 0x40 MLOAD PUSH20 0xFFFFFFFFFFFFFFFFFFFFFFFFFFFFFFFFFFFFFFFF SWAP1 SWAP2 AND DUP2 MSTORE PUSH1 0x20 ADD PUSH2 0xF7 JUMP JUMPDEST PUSH2 0x113 PUSH2 0x576 JUMP JUMPDEST PUSH2 0x113 PUSH2 0x176 CALLDATASIZE PUSH1 0x4 PUSH2 0x11EE JUMP JUMPDEST PUSH1 0xA SSTORE JUMP JUMPDEST PUSH2 0x113 PUSH2 0x189 CALLDATASIZE PUSH1 0x4 PUSH2 0x11EE JUMP JUMPDEST PUSH1 0x9 SSTORE JUMP JUMPDEST PUSH2 0x196 PUSH2 0x737 JUMP JUMPDEST PUSH1 0x40 MLOAD PUSH2 0xF7 SWAP2 SWAP1 PUSH2 0x129D JUMP JUMPDEST PUSH2 0xED PUSH1 0x8 SLOAD DUP2 JUMP JUMPDEST PUSH2 0x113 PUSH2 0x1BA CALLDATASIZE PUSH1 0x4 PUSH2 0x12B0 JUMP JUMPDEST PUSH2 0x7C5 JUMP JUMPDEST PUSH2 0xED PUSH1 0xA SLOAD DUP2 JUMP JUMPDEST PUSH1 0x0 DUP5 DUP2 MSTORE PUSH1 0x5 PUSH1 0x20 MSTORE PUSH1 0x40 SWAP1 KECCAK256 SLOAD DUP5 SWAP1 PUSH20 0xFFFFFFFFFFFFFFFFFFFFFFFFFFFFFFFFFFFFFFFF AND CALLER EQ PUSH2 0x282 JUMPI PUSH1 0x40 MLOAD PUSH32 0x8C379A000000000000000000000000000000000000000000000000000000000 DUP2 MSTORE PUSH1 0x20 PUSH1 0x4 DUP3 ADD MSTORE PUSH1 0x28 PUSH1 0x24 DUP3 ADD MSTORE PUSH32 0x536F75726365206D75737420626520746865206F7261636C65206F6620746865 PUSH1 0x44 DUP3 ADD MSTORE PUSH32 0x2072657175657374000000000000000000000000000000000000000000000000 PUSH1 0x64 DUP3 ADD MSTORE PUSH1 0x84 ADD JUMPDEST PUSH1 0x40 MLOAD DUP1 SWAP2 SUB SWAP1 REVERT JUMPDEST PUSH1 0x0 DUP2 DUP2 MSTORE PUSH1 0x5 PUSH1 0x20 MSTORE PUSH1 0x40 DUP1 DUP3 KECCAK256 DUP1 SLOAD PUSH32 0xFFFFFFFFFFFFFFFFFFFFFFFF0000000000000000000000000000000000000000 AND SWAP1 SSTORE MLOAD DUP3 SWAP2 PUSH32 0x7CC135E0CEBB02C3480AE5D74D377283180A2601F8F644EDF7987B009316C63A SWAP2 LOG2 PUSH1 0x40 DUP1 MLOAD DUP6 DUP2 MSTORE PUSH1 0x20 DUP2 ADD DUP6 SWAP1 MSTORE SWAP1 DUP2 ADD DUP4 SWAP1 MSTORE DUP6 SWAP1 PUSH32 0x539E5682D95ED725B9A92EF19AEFC24D6E1BC6AA39AB4F2AC96A3E48F1DD2E46 SWAP1 PUSH1 0x60 ADD PUSH1 0x40 MLOAD DUP1 SWAP2 SUB SWAP1 LOG2 POP PUSH1 0x8 SWAP3 SWAP1 SWAP3 SSTORE PUSH1 0x9 SSTORE PUSH1 0xA SSTORE POP JUMP JUMPDEST PUSH1 0x0 DUP1 PUSH2 0x347 PUSH1 0xB SLOAD ADDRESS PUSH4 0x3D5D3236 PUSH1 0xE0 SHL PUSH2 0x7D6 JUMP JUMPDEST SWAP1 POP PUSH2 0x41D PUSH1 0x40 MLOAD DUP1 PUSH1 0x40 ADD PUSH1 0x40 MSTORE DUP1 PUSH1 0x3 DUP2 MSTORE PUSH1 0x20 ADD PUSH32 0x6765740000000000000000000000000000000000000000000000000000000000 DUP2 MSTORE POP PUSH1 0xD DUP1 SLOAD PUSH2 0x38F SWAP1 PUSH2 0x12ED JUMP JUMPDEST DUP1 PUSH1 0x1F ADD PUSH1 0x20 DUP1 SWAP2 DIV MUL PUSH1 0x20 ADD PUSH1 0x40 MLOAD SWAP1 DUP2 ADD PUSH1 0x40 MSTORE DUP1 SWAP3 SWAP2 SWAP1 DUP2 DUP2 MSTORE PUSH1 0x20 ADD DUP3 DUP1 SLOAD PUSH2 0x3BB SWAP1 PUSH2 0x12ED JUMP JUMPDEST DUP1 ISZERO PUSH2 0x408 JUMPI DUP1 PUSH1 0x1F LT PUSH2 0x3DD JUMPI PUSH2 0x100 DUP1 DUP4 SLOAD DIV MUL DUP4 MSTORE SWAP2 PUSH1 0x20 ADD SWAP2 PUSH2 0x408 JUMP JUMPDEST DUP3 ADD SWAP2 SWAP1 PUSH1 0x0 MSTORE PUSH1 0x20 PUSH1 0x0 KECCAK256 SWAP1 JUMPDEST DUP2 SLOAD DUP2 MSTORE SWAP1 PUSH1 0x1 ADD SWAP1 PUSH1 0x20 ADD DUP1 DUP4 GT PUSH2 0x3EB JUMPI DUP3 SWAP1 SUB PUSH1 0x1F AND DUP3 ADD SWAP2 JUMPDEST POP POP POP POP POP DUP4 PUSH2 0x867 SWAP1 SWAP3 SWAP2 SWAP1 PUSH4 0xFFFFFFFF AND JUMP JUMPDEST PUSH2 0x463 PUSH1 0x40 MLOAD DUP1 PUSH1 0x40 ADD PUSH1 0x40 MSTORE DUP1 PUSH1 0x6 DUP2 MSTORE PUSH1 0x20 ADD PUSH32 0x6C65616775650000000000000000000000000000000000000000000000000000 DUP2 MSTORE POP PUSH1 0xE DUP1 SLOAD PUSH2 0x38F SWAP1 PUSH2 0x12ED JUMP JUMPDEST PUSH2 0x46F DUP2 PUSH1 0xC SLOAD PUSH2 0x88A JUMP JUMPDEST SWAP2 POP POP SWAP1 JUMP JUMPDEST PUSH1 0x7 SLOAD PUSH20 0xFFFFFFFFFFFFFFFFFFFFFFFFFFFFFFFFFFFFFFFF AND CALLER EQ PUSH2 0x4F6 JUMPI PUSH1 0x40 MLOAD PUSH32 0x8C379A000000000000000000000000000000000000000000000000000000000 DUP2 MSTORE PUSH1 0x20 PUSH1 0x4 DUP3 ADD MSTORE PUSH1 0x16 PUSH1 0x24 DUP3 ADD MSTORE PUSH32 0x4D7573742062652070726F706F736564206F776E657200000000000000000000 PUSH1 0x44 DUP3 ADD MSTORE PUSH1 0x64 ADD PUSH2 0x279 JUMP JUMPDEST PUSH1 0x6 DUP1 SLOAD PUSH32 0xFFFFFFFFFFFFFFFFFFFFFFFF0000000000000000000000000000000000000000 DUP1 DUP3 AND CALLER SWAP1 DUP2 OR SWAP1 SWAP4 SSTORE PUSH1 0x7 DUP1 SLOAD SWAP1 SWAP2 AND SWAP1 SSTORE PUSH1 0x40 MLOAD PUSH20 0xFFFFFFFFFFFFFFFFFFFFFFFFFFFFFFFFFFFFFFFF SWAP1 SWAP2 AND SWAP2 SWAP1 DUP3 SWAP1 PUSH32 0x8BE0079C531659141344CD1FD0A4F28419497F9722A3DAAFE3B4186F6B6457E0 SWAP1 PUSH1 0x0 SWAP1 LOG3 POP JUMP JUMPDEST PUSH2 0x57E PUSH2 0x8BA JUMP JUMPDEST PUSH1 0x0 PUSH2 0x59F PUSH1 0x2 SLOAD PUSH20 0xFFFFFFFFFFFFFFFFFFFFFFFFFFFFFFFFFFFFFFFF AND SWAP1 JUMP JUMPDEST PUSH1 0x40 MLOAD PUSH32 0x70A0823100000000000000000000000000000000000000000000000000000000 DUP2 MSTORE ADDRESS PUSH1 0x4 DUP3 ADD MSTORE SWAP1 SWAP2 POP PUSH20 0xFFFFFFFFFFFFFFFFFFFFFFFFFFFFFFFFFFFFFFFF DUP3 AND SWAP1 PUSH4 0xA9059CBB SWAP1 CALLER SWAP1 DUP4 SWAP1 PUSH4 0x70A08231 SWAP1 PUSH1 0x24 ADD PUSH1 0x20 PUSH1 0x40 MLOAD DUP1 DUP4 SUB DUP2 DUP7 GAS STATICCALL ISZERO DUP1 ISZERO PUSH2 0x616 JUMPI RETURNDATASIZE PUSH1 0x0 DUP1 RETURNDATACOPY RETURNDATASIZE PUSH1 0x0 REVERT JUMPDEST POP POP POP POP PUSH1 0x40 MLOAD RETURNDATASIZE PUSH1 0x1F NOT PUSH1 0x1F DUP3 ADD AND DUP3 ADD DUP1 PUSH1 0x40 MSTORE POP DUP2 ADD SWAP1 PUSH2 0x63A SWAP2 SWAP1 PUSH2 0x133A JUMP JUMPDEST PUSH1 0x40 MLOAD PUSH32 0xFFFFFFFF00000000000000000000000000000000000000000000000000000000 PUSH1 0xE0 DUP6 SWAP1 SHL AND DUP2 MSTORE PUSH20 0xFFFFFFFFFFFFFFFFFFFFFFFFFFFFFFFFFFFFFFFF SWAP1 SWAP3 AND PUSH1 0x4 DUP4 ADD MSTORE PUSH1 0x24 DUP3 ADD MSTORE PUSH1 0x44 ADD PUSH1 0x20 PUSH1 0x40 MLOAD DUP1 DUP4 SUB DUP2 PUSH1 0x0 DUP8 GAS CALL ISZERO DUP1 ISZERO PUSH2 0x6AA JUMPI RETURNDATASIZE PUSH1 0x0 DUP1 RETURNDATACOPY RETURNDATASIZE PUSH1 0x0 REVERT JUMPDEST POP POP POP POP PUSH1 0x40 MLOAD RETURNDATASIZE PUSH1 0x1F NOT PUSH1 0x1F DUP3 ADD AND DUP3 ADD DUP1 PUSH1 0x40 MSTORE POP DUP2 ADD SWAP1 PUSH2 0x6CE SWAP2 SWAP1 PUSH2 0x1353 JUMP JUMPDEST PUSH2 0x734 JUMPI PUSH1 0x40 MLOAD PUSH32 0x8C379A000000000000000000000000000000000000000000000000000000000 DUP2 MSTORE PUSH1 0x20 PUSH1 0x4 DUP3 ADD MSTORE PUSH1 0x12 PUSH1 0x24 DUP3 ADD MSTORE PUSH32 0x556E61626C6520746F207472616E736665720000000000000000000000000000 PUSH1 0x44 DUP3 ADD MSTORE PUSH1 0x64 ADD PUSH2 0x279 JUMP JUMPDEST POP JUMP JUMPDEST PUSH1 0xE DUP1 SLOAD PUSH2 0x744 SWAP1 PUSH2 0x12ED JUMP JUMPDEST DUP1 PUSH1 0x1F ADD PUSH1 0x20 DUP1 SWAP2 DIV MUL PUSH1 0x20 ADD PUSH1 0x40 MLOAD SWAP1 DUP2 ADD PUSH1 0x40 MSTORE DUP1 SWAP3 SWAP2 SWAP1 DUP2 DUP2 MSTORE PUSH1 0x20 ADD DUP3 DUP1 SLOAD PUSH2 0x770 SWAP1 PUSH2 0x12ED JUMP JUMPDEST DUP1 ISZERO PUSH2 0x7BD JUMPI DUP1 PUSH1 0x1F LT PUSH2 0x792 JUMPI PUSH2 0x100 DUP1 DUP4 SLOAD DIV MUL DUP4 MSTORE SWAP2 PUSH1 0x20 ADD SWAP2 PUSH2 0x7BD JUMP JUMPDEST DUP3 ADD SWAP2 SWAP1 PUSH1 0x0 MSTORE PUSH1 0x20 PUSH1 0x0 KECCAK256 SWAP1 JUMPDEST DUP2 SLOAD DUP2 MSTORE SWAP1 PUSH1 0x1 ADD SWAP1 PUSH1 0x20 ADD DUP1 DUP4 GT PUSH2 0x7A0 JUMPI DUP3 SWAP1 SUB PUSH1 0x1F AND DUP3 ADD SWAP2 JUMPDEST POP POP POP POP POP DUP2 JUMP JUMPDEST PUSH2 0x7CD PUSH2 0x8BA JUMP JUMPDEST PUSH2 0x734 DUP2 PUSH2 0x93D JUMP JUMPDEST PUSH2 0x814 PUSH1 0x40 DUP1 MLOAD PUSH1 0xA0 DUP2 ADD DUP3 MSTORE PUSH1 0x0 DUP1 DUP3 MSTORE PUSH1 0x20 DUP1 DUP4 ADD DUP3 SWAP1 MSTORE DUP3 DUP5 ADD DUP3 SWAP1 MSTORE PUSH1 0x60 DUP1 DUP5 ADD DUP4 SWAP1 MSTORE DUP5 MLOAD DUP1 DUP7 ADD SWAP1 SWAP6 MSTORE DUP5 MSTORE DUP4 ADD MSTORE SWAP1 PUSH1 0x80 DUP3 ADD MSTORE SWAP1 JUMP JUMPDEST PUSH2 0x852 PUSH1 0x40 DUP1 MLOAD PUSH1 0xA0 DUP2 ADD DUP3 MSTORE PUSH1 0x0 DUP1 DUP3 MSTORE PUSH1 0x20 DUP1 DUP4 ADD DUP3 SWAP1 MSTORE DUP3 DUP5 ADD DUP3 SWAP1 MSTORE PUSH1 0x60 DUP1 DUP5 ADD DUP4 SWAP1 MSTORE DUP5 MLOAD DUP1 DUP7 ADD SWAP1 SWAP6 MSTORE DUP5 MSTORE DUP4 ADD MSTORE SWAP1 PUSH1 0x80 DUP3 ADD MSTORE SWAP1 JUMP JUMPDEST PUSH2 0x85E DUP2 DUP7 DUP7 DUP7 PUSH2 0xA33 JUMP JUMPDEST SWAP6 SWAP5 POP POP POP POP POP JUMP JUMPDEST PUSH1 0x80 DUP4 ADD MLOAD PUSH2 0x876 SWAP1 DUP4 PUSH2 0xAD4 JUMP JUMPDEST PUSH1 0x80 DUP4 ADD MLOAD PUSH2 0x885 SWAP1 DUP3 PUSH2 0xAD4 JUMP JUMPDEST POP POP POP JUMP JUMPDEST PUSH1 0x3 SLOAD PUSH1 0x0 SWAP1 PUSH2 0x8B1 SWAP1 PUSH20 0xFFFFFFFFFFFFFFFFFFFFFFFFFFFFFFFFFFFFFFFF AND DUP5 DUP5 PUSH2 0xAEB JUMP JUMPDEST SWAP1 POP JUMPDEST SWAP3 SWAP2 POP POP JUMP JUMPDEST PUSH1 0x6 SLOAD PUSH20 0xFFFFFFFFFFFFFFFFFFFFFFFFFFFFFFFFFFFFFFFF AND CALLER EQ PUSH2 0x93B JUMPI PUSH1 0x40 MLOAD PUSH32 0x8C379A000000000000000000000000000000000000000000000000000000000 DUP2 MSTORE PUSH1 0x20 PUSH1 0x4 DUP3 ADD MSTORE PUSH1 0x16 PUSH1 0x24 DUP3 ADD MSTORE PUSH32 0x4F6E6C792063616C6C61626C65206279206F776E657200000000000000000000 PUSH1 0x44 DUP3 ADD MSTORE PUSH1 0x64 ADD PUSH2 0x279 JUMP JUMPDEST JUMP JUMPDEST CALLER PUSH20 0xFFFFFFFFFFFFFFFFFFFFFFFFFFFFFFFFFFFFFFFF DUP3 AND SUB PUSH2 0x9BC JUMPI PUSH1 0x40 MLOAD PUSH32 0x8C379A000000000000000000000000000000000000000000000000000000000 DUP2 MSTORE PUSH1 0x20 PUSH1 0x4 DUP3 ADD MSTORE PUSH1 0x17 PUSH1 0x24 DUP3 ADD MSTORE PUSH32 0x43616E6E6F74207472616E7366657220746F2073656C66000000000000000000 PUSH1 0x44 DUP3 ADD MSTORE PUSH1 0x64 ADD PUSH2 0x279 JUMP JUMPDEST PUSH1 0x7 DUP1 SLOAD PUSH32 0xFFFFFFFFFFFFFFFFFFFFFFFF0000000000000000000000000000000000000000 AND PUSH20 0xFFFFFFFFFFFFFFFFFFFFFFFFFFFFFFFFFFFFFFFF DUP4 DUP2 AND SWAP2 DUP3 OR SWAP1 SWAP3 SSTORE PUSH1 0x6 SLOAD PUSH1 0x40 MLOAD SWAP2 SWAP3 AND SWAP1 PUSH32 0xED8889F560326EB138920D842192F0EB3DD22B4F139C87A2C57538E05BAE1278 SWAP1 PUSH1 0x0 SWAP1 LOG3 POP JUMP JUMPDEST PUSH2 0xA71 PUSH1 0x40 DUP1 MLOAD PUSH1 0xA0 DUP2 ADD DUP3 MSTORE PUSH1 0x0 DUP1 DUP3 MSTORE PUSH1 0x20 DUP1 DUP4 ADD DUP3 SWAP1 MSTORE DUP3 DUP5 ADD DUP3 SWAP1 MSTORE PUSH1 0x60 DUP1 DUP5 ADD DUP4 SWAP1 MSTORE DUP5 MLOAD DUP1 DUP7 ADD SWAP1 SWAP6 MSTORE DUP5 MSTORE DUP4 ADD MSTORE SWAP1 PUSH1 0x80 DUP3 ADD MSTORE SWAP1 JUMP JUMPDEST PUSH2 0xA81 DUP6 PUSH1 0x80 ADD MLOAD PUSH2 0x100 PUSH2 0xBE2 JUMP JUMPDEST POP POP DUP3 DUP5 MSTORE PUSH20 0xFFFFFFFFFFFFFFFFFFFFFFFFFFFFFFFFFFFFFFFF DUP3 AND PUSH1 0x20 DUP6 ADD MSTORE PUSH32 0xFFFFFFFF00000000000000000000000000000000000000000000000000000000 DUP2 AND PUSH1 0x40 DUP6 ADD MSTORE DUP4 JUMPDEST SWAP5 SWAP4 POP POP POP POP JUMP JUMPDEST PUSH2 0xAE1 DUP3 PUSH1 0x3 DUP4 MLOAD PUSH2 0xC47 JUMP JUMPDEST PUSH2 0x885 DUP3 DUP3 PUSH2 0xD5C JUMP JUMPDEST PUSH1 0x4 SLOAD PUSH1 0x0 SWAP1 PUSH2 0xAFC DUP2 PUSH1 0x1 PUSH2 0x13A4 JUMP JUMPDEST PUSH1 0x4 SSTORE DUP4 MLOAD PUSH1 0x40 DUP1 DUP7 ADD MLOAD PUSH1 0x80 DUP8 ADD MLOAD MLOAD SWAP2 MLOAD PUSH1 0x0 SWAP4 PUSH32 0x4042994600000000000000000000000000000000000000000000000000000000 SWAP4 PUSH2 0xB4D SWAP4 DUP7 SWAP4 DUP5 SWAP4 SWAP3 ADDRESS SWAP3 SWAP2 DUP11 SWAP2 PUSH1 0x1 SWAP2 PUSH1 0x24 ADD PUSH2 0x13B7 JUMP JUMPDEST PUSH1 0x40 DUP1 MLOAD PUSH32 0xFFFFFFFFFFFFFFFFFFFFFFFFFFFFFFFFFFFFFFFFFFFFFFFFFFFFFFFFFFFFFFE0 DUP2 DUP5 SUB ADD DUP2 MSTORE SWAP2 SWAP1 MSTORE PUSH1 0x20 DUP2 ADD DUP1 MLOAD PUSH28 0xFFFFFFFFFFFFFFFFFFFFFFFFFFFFFFFFFFFFFFFFFFFFFFFFFFFFFFFF AND PUSH32 0xFFFFFFFF00000000000000000000000000000000000000000000000000000000 SWAP1 SWAP4 AND SWAP3 SWAP1 SWAP3 OR SWAP1 SWAP2 MSTORE SWAP1 POP PUSH2 0xBD8 DUP7 DUP4 DUP7 DUP5 PUSH2 0xD83 JUMP JUMPDEST SWAP7 SWAP6 POP POP POP POP POP POP JUMP JUMPDEST PUSH1 0x40 DUP1 MLOAD DUP1 DUP3 ADD SWAP1 SWAP2 MSTORE PUSH1 0x60 DUP2 MSTORE PUSH1 0x0 PUSH1 0x20 DUP3 ADD MSTORE PUSH2 0xC02 PUSH1 0x20 DUP4 PUSH2 0x1440 JUMP JUMPDEST ISZERO PUSH2 0xC2A JUMPI PUSH2 0xC12 PUSH1 0x20 DUP4 PUSH2 0x1440 JUMP JUMPDEST PUSH2 0xC1D SWAP1 PUSH1 0x20 PUSH2 0x147B JUMP JUMPDEST PUSH2 0xC27 SWAP1 DUP4 PUSH2 0x13A4 JUMP JUMPDEST SWAP2 POP JUMPDEST POP PUSH1 0x20 DUP3 DUP2 ADD DUP3 SWAP1 MSTORE PUSH1 0x40 DUP1 MLOAD DUP1 DUP6 MSTORE PUSH1 0x0 DUP2 MSTORE SWAP1 SWAP3 ADD ADD SWAP1 MSTORE SWAP1 JUMP JUMPDEST PUSH1 0x17 DUP2 PUSH8 0xFFFFFFFFFFFFFFFF AND GT PUSH2 0xC72 JUMPI PUSH2 0xC6C DUP4 PUSH1 0xE0 PUSH1 0x5 DUP6 SWAP1 SHL AND DUP4 OR PUSH2 0xF91 JUMP JUMPDEST POP POP POP POP JUMP JUMPDEST PUSH1 0xFF DUP2 PUSH8 0xFFFFFFFFFFFFFFFF AND GT PUSH2 0xCB0 JUMPI PUSH2 0xC99 DUP4 PUSH1 0x18 PUSH2 0x1FE0 PUSH1 0x5 DUP7 SWAP1 SHL AND OR PUSH2 0xF91 JUMP JUMPDEST POP PUSH2 0xC6C DUP4 PUSH8 0xFFFFFFFFFFFFFFFF DUP4 AND PUSH1 0x1 PUSH2 0xFB6 JUMP JUMPDEST PUSH2 0xFFFF DUP2 PUSH8 0xFFFFFFFFFFFFFFFF AND GT PUSH2 0xCEF JUMPI PUSH2 0xCD8 DUP4 PUSH1 0x19 PUSH2 0x1FE0 PUSH1 0x5 DUP7 SWAP1 SHL AND OR PUSH2 0xF91 JUMP JUMPDEST POP PUSH2 0xC6C DUP4 PUSH8 0xFFFFFFFFFFFFFFFF DUP4 AND PUSH1 0x2 PUSH2 0xFB6 JUMP JUMPDEST PUSH4 0xFFFFFFFF DUP2 PUSH8 0xFFFFFFFFFFFFFFFF AND GT PUSH2 0xD30 JUMPI PUSH2 0xD19 DUP4 PUSH1 0x1A PUSH2 0x1FE0 PUSH1 0x5 DUP7 SWAP1 SHL AND OR PUSH2 0xF91 JUMP JUMPDEST POP PUSH2 0xC6C DUP4 PUSH8 0xFFFFFFFFFFFFFFFF DUP4 AND PUSH1 0x4 PUSH2 0xFB6 JUMP JUMPDEST PUSH2 0xD45 DUP4 PUSH1 0x1B PUSH2 0x1FE0 PUSH1 0x5 DUP7 SWAP1 SHL AND OR PUSH2 0xF91 JUMP JUMPDEST POP PUSH2 0xC6C DUP4 PUSH8 0xFFFFFFFFFFFFFFFF DUP4 AND PUSH1 0x8 PUSH2 0xFB6 JUMP JUMPDEST PUSH1 0x40 DUP1 MLOAD DUP1 DUP3 ADD SWAP1 SWAP2 MSTORE PUSH1 0x60 DUP2 MSTORE PUSH1 0x0 PUSH1 0x20 DUP3 ADD MSTORE PUSH2 0x8B1 DUP4 DUP5 PUSH1 0x0 ADD MLOAD MLOAD DUP5 DUP6 MLOAD PUSH2 0xFDC JUMP JUMPDEST PUSH1 0x40 MLOAD PUSH32 0xFFFFFFFFFFFFFFFFFFFFFFFFFFFFFFFFFFFFFFFF000000000000000000000000 ADDRESS PUSH1 0x60 SHL AND PUSH1 0x20 DUP3 ADD MSTORE PUSH1 0x34 DUP2 ADD DUP5 SWAP1 MSTORE PUSH1 0x0 SWAP1 PUSH1 0x54 ADD PUSH1 0x40 DUP1 MLOAD DUP1 DUP4 SUB PUSH32 0xFFFFFFFFFFFFFFFFFFFFFFFFFFFFFFFFFFFFFFFFFFFFFFFFFFFFFFFFFFFFFFE0 ADD DUP2 MSTORE DUP3 DUP3 MSTORE DUP1 MLOAD PUSH1 0x20 SWAP2 DUP3 ADD KECCAK256 PUSH1 0x0 DUP2 DUP2 MSTORE PUSH1 0x5 SWAP1 SWAP3 MSTORE SWAP2 DUP2 KECCAK256 DUP1 SLOAD PUSH32 0xFFFFFFFFFFFFFFFFFFFFFFFF0000000000000000000000000000000000000000 AND PUSH20 0xFFFFFFFFFFFFFFFFFFFFFFFFFFFFFFFFFFFFFFFF DUP11 AND OR SWAP1 SSTORE SWAP1 SWAP3 POP DUP3 SWAP2 PUSH32 0xB5E6E01E79F91267DC17B4E6314D5D4D03593D2CEEE0FBB452B750BD70EA5AF9 SWAP2 SWAP1 LOG2 PUSH1 0x2 SLOAD PUSH1 0x40 MLOAD PUSH32 0x4000AEA000000000000000000000000000000000000000000000000000000000 DUP2 MSTORE PUSH20 0xFFFFFFFFFFFFFFFFFFFFFFFFFFFFFFFFFFFFFFFF SWAP1 SWAP2 AND SWAP1 PUSH4 0x4000AEA0 SWAP1 PUSH2 0xEC2 SWAP1 DUP9 SWAP1 DUP8 SWAP1 DUP8 SWAP1 PUSH1 0x4 ADD PUSH2 0x148E JUMP JUMPDEST PUSH1 0x20 PUSH1 0x40 MLOAD DUP1 DUP4 SUB DUP2 PUSH1 0x0 DUP8 GAS CALL ISZERO DUP1 ISZERO PUSH2 0xEE1 JUMPI RETURNDATASIZE PUSH1 0x0 DUP1 RETURNDATACOPY RETURNDATASIZE PUSH1 0x0 REVERT JUMPDEST POP POP POP POP PUSH1 0x40 MLOAD RETURNDATASIZE PUSH1 0x1F NOT PUSH1 0x1F DUP3 ADD AND DUP3 ADD DUP1 PUSH1 0x40 MSTORE POP DUP2 ADD SWAP1 PUSH2 0xF05 SWAP2 SWAP1 PUSH2 0x1353 JUMP JUMPDEST PUSH2 0xACC JUMPI PUSH1 0x40 MLOAD PUSH32 0x8C379A000000000000000000000000000000000000000000000000000000000 DUP2 MSTORE PUSH1 0x20 PUSH1 0x4 DUP3 ADD MSTORE PUSH1 0x23 PUSH1 0x24 DUP3 ADD MSTORE PUSH32 0x756E61626C6520746F207472616E73666572416E6443616C6C20746F206F7261 PUSH1 0x44 DUP3 ADD MSTORE PUSH32 0x636C650000000000000000000000000000000000000000000000000000000000 PUSH1 0x64 DUP3 ADD MSTORE PUSH1 0x84 ADD PUSH2 0x279 JUMP JUMPDEST PUSH1 0x40 DUP1 MLOAD DUP1 DUP3 ADD SWAP1 SWAP2 MSTORE PUSH1 0x60 DUP2 MSTORE PUSH1 0x0 PUSH1 0x20 DUP3 ADD MSTORE PUSH2 0x8B1 DUP4 DUP5 PUSH1 0x0 ADD MLOAD MLOAD DUP5 PUSH2 0x10E4 JUMP JUMPDEST PUSH1 0x40 DUP1 MLOAD DUP1 DUP3 ADD SWAP1 SWAP2 MSTORE PUSH1 0x60 DUP2 MSTORE PUSH1 0x0 PUSH1 0x20 DUP3 ADD MSTORE PUSH2 0xACC DUP5 DUP6 PUSH1 0x0 ADD MLOAD MLOAD DUP6 DUP6 PUSH2 0x113F JUMP JUMPDEST PUSH1 0x40 DUP1 MLOAD DUP1 DUP3 ADD SWAP1 SWAP2 MSTORE PUSH1 0x60 DUP2 MSTORE PUSH1 0x0 PUSH1 0x20 DUP3 ADD MSTORE DUP3 MLOAD DUP3 GT ISZERO PUSH2 0xFFF JUMPI PUSH1 0x0 DUP1 REVERT JUMPDEST PUSH1 0x20 DUP6 ADD MLOAD PUSH2 0x100E DUP4 DUP7 PUSH2 0x13A4 JUMP JUMPDEST GT ISZERO PUSH2 0x1041 JUMPI PUSH2 0x1041 DUP6 PUSH2 0x1031 DUP8 PUSH1 0x20 ADD MLOAD DUP8 DUP7 PUSH2 0x102C SWAP2 SWAP1 PUSH2 0x13A4 JUMP JUMPDEST PUSH2 0x11C0 JUMP JUMPDEST PUSH2 0x103C SWAP1 PUSH1 0x2 PUSH2 0x14C3 JUMP JUMPDEST PUSH2 0x11D7 JUMP JUMPDEST PUSH1 0x0 DUP1 DUP7 MLOAD DUP1 MLOAD DUP8 PUSH1 0x20 DUP4 ADD ADD SWAP4 POP DUP1 DUP9 DUP8 ADD GT ISZERO PUSH2 0x1060 JUMPI DUP8 DUP7 ADD DUP3 MSTORE JUMPDEST POP POP POP PUSH1 0x20 DUP5 ADD JUMPDEST PUSH1 0x20 DUP5 LT PUSH2 0x10A0 JUMPI DUP1 MLOAD DUP3 MSTORE PUSH2 0x107F PUSH1 0x20 DUP4 PUSH2 0x13A4 JUMP JUMPDEST SWAP2 POP PUSH2 0x108C PUSH1 0x20 DUP3 PUSH2 0x13A4 JUMP JUMPDEST SWAP1 POP PUSH2 0x1099 PUSH1 0x20 DUP6 PUSH2 0x147B JUMP JUMPDEST SWAP4 POP PUSH2 0x1068 JUMP JUMPDEST MLOAD DUP2 MLOAD PUSH32 0xFFFFFFFFFFFFFFFFFFFFFFFFFFFFFFFFFFFFFFFFFFFFFFFFFFFFFFFFFFFFFFFF PUSH1 0x20 DUP7 SWAP1 SUB PUSH2 0x100 EXP ADD SWAP1 DUP2 AND SWAP1 NOT SWAP2 SWAP1 SWAP2 AND OR SWAP1 MSTORE POP DUP4 SWAP5 SWAP4 POP POP POP POP JUMP JUMPDEST PUSH1 0x40 DUP1 MLOAD DUP1 DUP3 ADD SWAP1 SWAP2 MSTORE PUSH1 0x60 DUP2 MSTORE PUSH1 0x0 PUSH1 0x20 DUP3 ADD MSTORE DUP4 PUSH1 0x20 ADD MLOAD DUP4 LT PUSH2 0x1119 JUMPI PUSH2 0x1119 DUP5 DUP6 PUSH1 0x20 ADD MLOAD PUSH1 0x2 PUSH2 0x103C SWAP2 SWAP1 PUSH2 0x14C3 JUMP JUMPDEST DUP4 MLOAD DUP1 MLOAD PUSH1 0x20 DUP6 DUP4 ADD ADD DUP5 DUP2 MSTORE8 POP DUP1 DUP6 SUB PUSH2 0x1135 JUMPI PUSH1 0x1 DUP2 ADD DUP3 MSTORE JUMPDEST POP SWAP4 SWAP5 SWAP4 POP POP POP POP JUMP JUMPDEST PUSH1 0x40 DUP1 MLOAD DUP1 DUP3 ADD SWAP1 SWAP2 MSTORE PUSH1 0x60 DUP2 MSTORE PUSH1 0x0 PUSH1 0x20 DUP3 ADD MSTORE PUSH1 0x20 DUP6 ADD MLOAD PUSH2 0x1163 DUP6 DUP5 PUSH2 0x13A4 JUMP JUMPDEST GT ISZERO PUSH2 0x1177 JUMPI PUSH2 0x1177 DUP6 PUSH2 0x1031 DUP7 DUP6 PUSH2 0x13A4 JUMP JUMPDEST PUSH1 0x0 PUSH1 0x1 PUSH2 0x1187 DUP5 PUSH2 0x100 PUSH2 0x15FA JUMP JUMPDEST PUSH2 0x1191 SWAP2 SWAP1 PUSH2 0x147B JUMP JUMPDEST SWAP1 POP DUP6 MLOAD DUP4 DUP7 DUP3 ADD ADD DUP6 DUP4 NOT DUP3 MLOAD AND OR DUP2 MSTORE POP DUP1 MLOAD DUP5 DUP8 ADD GT ISZERO PUSH2 0x11B5 JUMPI DUP4 DUP7 ADD DUP2 MSTORE JUMPDEST POP SWAP5 SWAP6 SWAP5 POP POP POP POP POP JUMP JUMPDEST PUSH1 0x0 DUP2 DUP4 GT ISZERO PUSH2 0x11D1 JUMPI POP DUP2 PUSH2 0x8B4 JUMP JUMPDEST POP SWAP2 SWAP1 POP JUMP JUMPDEST DUP2 MLOAD PUSH2 0x11E3 DUP4 DUP4 PUSH2 0xBE2 JUMP JUMPDEST POP PUSH2 0xC6C DUP4 DUP3 PUSH2 0xD5C JUMP JUMPDEST PUSH1 0x0 PUSH1 0x20 DUP3 DUP5 SUB SLT ISZERO PUSH2 0x1200 JUMPI PUSH1 0x0 DUP1 REVERT JUMPDEST POP CALLDATALOAD SWAP2 SWAP1 POP JUMP JUMPDEST PUSH1 0x0 DUP1 PUSH1 0x0 DUP1 PUSH1 0x80 DUP6 DUP8 SUB SLT ISZERO PUSH2 0x121D JUMPI PUSH1 0x0 DUP1 REVERT JUMPDEST POP POP DUP3 CALLDATALOAD SWAP5 PUSH1 0x20 DUP5 ADD CALLDATALOAD SWAP5 POP PUSH1 0x40 DUP5 ADD CALLDATALOAD SWAP4 PUSH1 0x60 ADD CALLDATALOAD SWAP3 POP SWAP1 POP JUMP JUMPDEST PUSH1 0x0 DUP2 MLOAD DUP1 DUP5 MSTORE PUSH1 0x0 JUMPDEST DUP2 DUP2 LT ISZERO PUSH2 0x125F JUMPI PUSH1 0x20 DUP2 DUP6 ADD DUP2 ADD MLOAD DUP7 DUP4 ADD DUP3 ADD MSTORE ADD PUSH2 0x1243 JUMP JUMPDEST POP PUSH1 0x0 PUSH1 0x20 DUP3 DUP7 ADD ADD MSTORE PUSH1 0x20 PUSH32 0xFFFFFFFFFFFFFFFFFFFFFFFFFFFFFFFFFFFFFFFFFFFFFFFFFFFFFFFFFFFFFFE0 PUSH1 0x1F DUP4 ADD AND DUP6 ADD ADD SWAP2 POP POP SWAP3 SWAP2 POP POP JUMP JUMPDEST PUSH1 0x20 DUP2 MSTORE PUSH1 0x0 PUSH2 0x8B1 PUSH1 0x20 DUP4 ADD DUP5 PUSH2 0x1239 JUMP JUMPDEST PUSH1 0x0 PUSH1 0x20 DUP3 DUP5 SUB SLT ISZERO PUSH2 0x12C2 JUMPI PUSH1 0x0 DUP1 REVERT JUMPDEST DUP2 CALLDATALOAD PUSH20 0xFFFFFFFFFFFFFFFFFFFFFFFFFFFFFFFFFFFFFFFF DUP2 AND DUP2 EQ PUSH2 0x12E6 JUMPI PUSH1 0x0 DUP1 REVERT JUMPDEST SWAP4 SWAP3 POP POP POP JUMP JUMPDEST PUSH1 0x1 DUP2 DUP2 SHR SWAP1 DUP3 AND DUP1 PUSH2 0x1301 JUMPI PUSH1 0x7F DUP3 AND SWAP2 POP JUMPDEST PUSH1 0x20 DUP3 LT DUP2 SUB PUSH2 0x11D1 JUMPI PUSH32 0x4E487B7100000000000000000000000000000000000000000000000000000000 PUSH1 0x0 MSTORE PUSH1 0x22 PUSH1 0x4 MSTORE PUSH1 0x24 PUSH1 0x0 REVERT JUMPDEST PUSH1 0x0 PUSH1 0x20 DUP3 DUP5 SUB SLT ISZERO PUSH2 0x134C JUMPI PUSH1 0x0 DUP1 REVERT JUMPDEST POP MLOAD SWAP2 SWAP1 POP JUMP JUMPDEST PUSH1 0x0 PUSH1 0x20 DUP3 DUP5 SUB SLT ISZERO PUSH2 0x1365 JUMPI PUSH1 0x0 DUP1 REVERT JUMPDEST DUP2 MLOAD DUP1 ISZERO ISZERO DUP2 EQ PUSH2 0x12E6 JUMPI PUSH1 0x0 DUP1 REVERT JUMPDEST PUSH32 0x4E487B7100000000000000000000000000000000000000000000000000000000 PUSH1 0x0 MSTORE PUSH1 0x11 PUSH1 0x4 MSTORE PUSH1 0x24 PUSH1 0x0 REVERT JUMPDEST DUP1 DUP3 ADD DUP1 DUP3 GT ISZERO PUSH2 0x8B4 JUMPI PUSH2 0x8B4 PUSH2 0x1375 JUMP JUMPDEST PUSH1 0x0 PUSH2 0x100 PUSH20 0xFFFFFFFFFFFFFFFFFFFFFFFFFFFFFFFFFFFFFFFF DUP1 DUP13 AND DUP5 MSTORE DUP11 PUSH1 0x20 DUP6 ADD MSTORE DUP10 PUSH1 0x40 DUP6 ADD MSTORE DUP1 DUP10 AND PUSH1 0x60 DUP6 ADD MSTORE POP PUSH32 0xFFFFFFFF00000000000000000000000000000000000000000000000000000000 DUP8 AND PUSH1 0x80 DUP5 ADD MSTORE DUP6 PUSH1 0xA0 DUP5 ADD MSTORE DUP5 PUSH1 0xC0 DUP5 ADD MSTORE DUP1 PUSH1 0xE0 DUP5 ADD MSTORE PUSH2 0x1431 DUP2 DUP5 ADD DUP6 PUSH2 0x1239 JUMP JUMPDEST SWAP12 SWAP11 POP POP POP POP POP POP POP POP POP POP POP JUMP JUMPDEST PUSH1 0x0 DUP3 PUSH2 0x1476 JUMPI PUSH32 0x4E487B7100000000000000000000000000000000000000000000000000000000 PUSH1 0x0 MSTORE PUSH1 0x12 PUSH1 0x4 MSTORE PUSH1 0x24 PUSH1 0x0 REVERT JUMPDEST POP MOD SWAP1 JUMP JUMPDEST DUP2 DUP2 SUB DUP2 DUP2 GT ISZERO PUSH2 0x8B4 JUMPI PUSH2 0x8B4 PUSH2 0x1375 JUMP JUMPDEST PUSH20 0xFFFFFFFFFFFFFFFFFFFFFFFFFFFFFFFFFFFFFFFF DUP5 AND DUP2 MSTORE DUP3 PUSH1 0x20 DUP3 ADD MSTORE PUSH1 0x60 PUSH1 0x40 DUP3 ADD MSTORE PUSH1 0x0 PUSH2 0x85E PUSH1 0x60 DUP4 ADD DUP5 PUSH2 0x1239 JUMP JUMPDEST DUP1 DUP3 MUL DUP2 ISZERO DUP3 DUP3 DIV DUP5 EQ OR PUSH2 0x8B4 JUMPI PUSH2 0x8B4 PUSH2 0x1375 JUMP JUMPDEST PUSH1 0x1 DUP2 DUP2 JUMPDEST DUP1 DUP6 GT ISZERO PUSH2 0x1533 JUMPI DUP2 PUSH32 0xFFFFFFFFFFFFFFFFFFFFFFFFFFFFFFFFFFFFFFFFFFFFFFFFFFFFFFFFFFFFFFFF DIV DUP3 GT ISZERO PUSH2 0x1519 JUMPI PUSH2 0x1519 PUSH2 0x1375 JUMP JUMPDEST DUP1 DUP6 AND ISZERO PUSH2 0x1526 JUMPI SWAP2 DUP2 MUL SWAP2 JUMPDEST SWAP4 DUP5 SHR SWAP4 SWAP1 DUP1 MUL SWAP1 PUSH2 0x14DF JUMP JUMPDEST POP SWAP3 POP SWAP3 SWAP1 POP JUMP JUMPDEST PUSH1 0x0 DUP3 PUSH2 0x154A JUMPI POP PUSH1 0x1 PUSH2 0x8B4 JUMP JUMPDEST DUP2 PUSH2 0x1557 JUMPI POP PUSH1 0x0 PUSH2 0x8B4 JUMP JUMPDEST DUP2 PUSH1 0x1 DUP2 EQ PUSH2 0x156D JUMPI PUSH1 0x2 DUP2 EQ PUSH2 0x1577 JUMPI PUSH2 0x1593 JUMP JUMPDEST PUSH1 0x1 SWAP2 POP POP PUSH2 0x8B4 JUMP JUMPDEST PUSH1 0xFF DUP5 GT ISZERO PUSH2 0x1588 JUMPI PUSH2 0x1588 PUSH2 0x1375 JUMP JUMPDEST POP POP PUSH1 0x1 DUP3 SHL PUSH2 0x8B4 JUMP JUMPDEST POP PUSH1 0x20 DUP4 LT PUSH2 0x133 DUP4 LT AND PUSH1 0x4E DUP5 LT PUSH1 0xB DUP5 LT AND OR ISZERO PUSH2 0x15B6 JUMPI POP DUP2 DUP2 EXP PUSH2 0x8B4 JUMP JUMPDEST PUSH2 0x15C0 DUP4 DUP4 PUSH2 0x14DA JUMP JUMPDEST DUP1 PUSH32 0xFFFFFFFFFFFFFFFFFFFFFFFFFFFFFFFFFFFFFFFFFFFFFFFFFFFFFFFFFFFFFFFF DIV DUP3 GT ISZERO PUSH2 0x15F2 JUMPI PUSH2 0x15F2 PUSH2 0x1375 JUMP JUMPDEST MUL SWAP4 SWAP3 POP POP POP JUMP JUMPDEST PUSH1 0x0 PUSH2 0x8B1 DUP4 DUP4 PUSH2 0x153B JUMP INVALID LOG2 PUSH5 0x6970667358 0x22 SLT KECCAK256 0xC7 SWAP7 SWAP8 PUSH10 0x3D2D06BB08D8231ADF68 PUSH14 0xCEA11DCA8DC6EC837637EC501205 0xD3 ADD 0xFC PUSH5 0x736F6C6343 STOP ADDMOD SGT STOP CALLER PUSH9 0x7474703A2F2F617069 0x2E PUSH7 0x6F6F7462616C6C 0x2D PUSH5 0x6174612E6F PUSH19 0x672F76342F636F6D7065746974696F6E732F00 "
				},
				"gasEstimates": {
					"creation": {
						"codeDepositCost": "1138400",
						"executionCost": "infinite",
						"totalCost": "infinite"
					},
					"external": {
						"acceptOwnership()": "52314",
						"fulfillOracleRequest(bytes32,uint256,uint256,uint256)": "96290",
						"league()": "infinite",
						"owner()": "2356",
						"requestWinner()": "infinite",
						"setWinner(uint256)": "22358",
						"setWinner2(uint256)": "22379",
						"setWinner3(uint256)": "22357",
						"transferOwnership(address)": "30404",
						"winner()": "2328",
						"winner2()": "2308",
						"winner3()": "2372",
						"withdrawLink()": "infinite"
					}
				},
				"methodIdentifiers": {
					"acceptOwnership()": "79ba5097",
					"fulfillOracleRequest(bytes32,uint256,uint256,uint256)": "3d5d3236",
					"league()": "d9b29297",
					"owner()": "8da5cb5b",
					"requestWinner()": "78a7d3af",
					"setWinner(uint256)": "0df71602",
					"setWinner2(uint256)": "a8d54261",
					"setWinner3(uint256)": "9ae2c3c6",
					"transferOwnership(address)": "f2fde38b",
					"winner()": "dfbf53ae",
					"winner2()": "01a3694e",
					"winner3()": "f81b5c5b",
					"withdrawLink()": "8dc654a2"
				}
			},
			"storageLayout": {
				"storage": [
					{
						"astId": 319,
						"contract": "contracts/ChainlinkConsumer.sol:APIConsumer",
						"label": "s_ens",
						"offset": 0,
						"slot": "0",
						"type": "t_contract(ENSInterface)1156"
					},
					{
						"astId": 321,
						"contract": "contracts/ChainlinkConsumer.sol:APIConsumer",
						"label": "s_ensNode",
						"offset": 0,
						"slot": "1",
						"type": "t_bytes32"
					},
					{
						"astId": 324,
						"contract": "contracts/ChainlinkConsumer.sol:APIConsumer",
						"label": "s_link",
						"offset": 0,
						"slot": "2",
						"type": "t_contract(LinkTokenInterface)1251"
					},
					{
						"astId": 327,
						"contract": "contracts/ChainlinkConsumer.sol:APIConsumer",
						"label": "s_oracle",
						"offset": 0,
						"slot": "3",
						"type": "t_contract(OperatorInterface)1331"
					},
					{
						"astId": 330,
						"contract": "contracts/ChainlinkConsumer.sol:APIConsumer",
						"label": "s_requestCount",
						"offset": 0,
						"slot": "4",
						"type": "t_uint256"
					},
					{
						"astId": 334,
						"contract": "contracts/ChainlinkConsumer.sol:APIConsumer",
						"label": "s_pendingRequests",
						"offset": 0,
						"slot": "5",
						"type": "t_mapping(t_bytes32,t_address)"
					},
					{
						"astId": 889,
						"contract": "contracts/ChainlinkConsumer.sol:APIConsumer",
						"label": "s_owner",
						"offset": 0,
						"slot": "6",
						"type": "t_address"
					},
					{
						"astId": 891,
						"contract": "contracts/ChainlinkConsumer.sol:APIConsumer",
						"label": "s_pendingOwner",
						"offset": 0,
						"slot": "7",
						"type": "t_address"
					},
					{
						"astId": 2410,
						"contract": "contracts/ChainlinkConsumer.sol:APIConsumer",
						"label": "winner",
						"offset": 0,
						"slot": "8",
						"type": "t_uint256"
					},
					{
						"astId": 2412,
						"contract": "contracts/ChainlinkConsumer.sol:APIConsumer",
						"label": "winner2",
						"offset": 0,
						"slot": "9",
						"type": "t_uint256"
					},
					{
						"astId": 2414,
						"contract": "contracts/ChainlinkConsumer.sol:APIConsumer",
						"label": "winner3",
						"offset": 0,
						"slot": "10",
						"type": "t_uint256"
					},
					{
						"astId": 2416,
						"contract": "contracts/ChainlinkConsumer.sol:APIConsumer",
						"label": "jobId",
						"offset": 0,
						"slot": "11",
						"type": "t_bytes32"
					},
					{
						"astId": 2418,
						"contract": "contracts/ChainlinkConsumer.sol:APIConsumer",
						"label": "fee",
						"offset": 0,
						"slot": "12",
						"type": "t_uint256"
					},
					{
						"astId": 2420,
						"contract": "contracts/ChainlinkConsumer.sol:APIConsumer",
						"label": "URL",
						"offset": 0,
						"slot": "13",
						"type": "t_string_storage"
					},
					{
						"astId": 2422,
						"contract": "contracts/ChainlinkConsumer.sol:APIConsumer",
						"label": "league",
						"offset": 0,
						"slot": "14",
						"type": "t_string_storage"
					},
					{
						"astId": 2531,
						"contract": "contracts/ChainlinkConsumer.sol:APIConsumer",
						"label": "NFTHolder",
						"offset": 0,
						"slot": "15",
						"type": "t_mapping(t_uint256,t_address)"
					}
				],
				"types": {
					"t_address": {
						"encoding": "inplace",
						"label": "address",
						"numberOfBytes": "20"
					},
					"t_bytes32": {
						"encoding": "inplace",
						"label": "bytes32",
						"numberOfBytes": "32"
					},
					"t_contract(ENSInterface)1156": {
						"encoding": "inplace",
						"label": "contract ENSInterface",
						"numberOfBytes": "20"
					},
					"t_contract(LinkTokenInterface)1251": {
						"encoding": "inplace",
						"label": "contract LinkTokenInterface",
						"numberOfBytes": "20"
					},
					"t_contract(OperatorInterface)1331": {
						"encoding": "inplace",
						"label": "contract OperatorInterface",
						"numberOfBytes": "20"
					},
					"t_mapping(t_bytes32,t_address)": {
						"encoding": "mapping",
						"key": "t_bytes32",
						"label": "mapping(bytes32 => address)",
						"numberOfBytes": "32",
						"value": "t_address"
					},
					"t_mapping(t_uint256,t_address)": {
						"encoding": "mapping",
						"key": "t_uint256",
						"label": "mapping(uint256 => address)",
						"numberOfBytes": "32",
						"value": "t_address"
					},
					"t_string_storage": {
						"encoding": "bytes",
						"label": "string",
						"numberOfBytes": "32"
					},
					"t_uint256": {
						"encoding": "inplace",
						"label": "uint256",
						"numberOfBytes": "32"
					}
				}
			},
			"userdoc": {
				"kind": "user",
				"methods": {
					"acceptOwnership()": {
						"notice": "Allows an ownership transfer to be completed by the recipient."
					},
					"fulfillOracleRequest(bytes32,uint256,uint256,uint256)": {
						"notice": "Receive the response in the form of uint256"
					},
					"owner()": {
						"notice": "Get the current owner"
					},
					"requestWinner()": {
						"notice": "Create a Chainlink request to retrieve API response, then find the target data."
					},
					"transferOwnership(address)": {
						"notice": "Allows an owner to begin transferring ownership to a new address, pending."
					},
					"withdrawLink()": {
						"notice": "Allow withdraw of Link tokens from the contract"
					}
				},
				"version": 1
			}
		}
	}
}